:020000040800F2
:10000000504B0020E90200088F310008D529000874
:100010008D31000895090008FD3900080000000036
:10002000000000000000000000000000290200089D
:10003000090D000800000000850200084D3300088B
:100040000303000803030008030300080303000878
:100050000303000803030008030300080303000868
:100060000303000803030008030300080303000858
:100070000303000803030008030300080303000848
:100080004D0C0008030300080303000803030008E5
:100090000303000803030008030300080303000828
:1000A0000303000803030008030300080303000818
:1000B0000303000803030008030300080303000808
:1000C00003030008030300080303000803030008F8
:1000D00003030008030300080303000803030008E8
:1000E00003030008030300080303000803030008D8
:1000F00003030008030300080303000803030008C8
:1001000003030008030300080303000803030008B7
:100110000303000803030008193400080303000860
:10012000590C000803030008030300080303000838
:100130000303000803030008030300080303000887
:100140000303000803030008030300080303000877
:100150000303000803030008030300080303000867
:100160000303000803030008030300080303000857
:100170000303000803030008030300080000000055
:10018000030300080303000800F002F800F03CF845
:100190000AA090E8000C82448344AAF10107DA45E2
:1001A00001D100F031F8AFF2090EBAE80F0013F0F8
:1001B000010F18BFFB1A43F001031847A4490000C0
:1001C000C4490000103A24BF78C878C1FAD8520751
:1001D00024BF30C830C144BF04680C6070470000C1
:1001E0000023002400250026103A28BF78C1FBD840
:1001F000520728BF30C148BF0B6070471FB504F0DD
:1002000099FC1FBD10B510BD00F0A6F91146FFF70F
:10021000F5FF03F004FC00F0C4F903B4FFF7F2FFAC
:1002200003BC00F0CBF900002C4B19680868B0E85B
:10023000F04F80F30988BFF36F8F4FF0000080F319
:10024000118870470000000008480068006880F3CB
:1002500008884FF0000080F3148862B661B6BFF3DF
:100260004F8FBFF36F8F00DF00BF00BF08ED00E0CE
:10027000DFF80C00016841F470010160704700BFB5
:1002800088ED00E0EFF30980BFF36F8F134B1A681E
:100290001EF0100F08BF20ED108A20E9F04F10600B
:1002A00009B44FF0500080F31188BFF34F8FBFF3B4
:1002B0006F8F03F0F7FF4FF0000080F3118809BC47
:1002C00019680868B0E8F04F1EF0100F08BFB0ECD6
:1002D000108A80F30988BFF36F8F704710000020E9
:1002E000EFF3058070470000094880470948004740
:1002F000FEE7FEE7FEE7FEE7FEE7FEE7FEE7FEE7D6
:10030000FEE7FEE704480549054A064B7047000032
:10031000093400088901000850450020504B002096
:10032000504700205047002053EA020C00F069803B
:100330002DE9F04B4FF00006002B1FBFB3FA83F5F9
:1003400003FA05F424FA05F65E4012BF1643B2FA2A
:1003500082F502FA05F4C5F120051EBF22FA05FC5C
:1003600044EA0C04203556EA044C4FEA144418BF02
:10037000641C4FF000084FF00009904271EB030C31
:1003800039D3002919BFB1FA81F701FA07F6B0FA9B
:1003900080F700FA07F6C7F120071EBF20FA07FC16
:1003A00046EA0C062037B6FBF4FCA7EB0507103F26
:1003B00007F01F0BCBF120060CFA0BFB2CFA06F60C
:1003C00044BFB3460026202FA4BF5E464FF0000B6B
:1003D0005BEA060C08BF4FF0010B19EB0B09ABFBF6
:1003E000027C48EB0608C01B06FB02CC0BFB03CCCF
:1003F00071EB0C01C1E70B46024641464846BDE899
:10040000F08B13B54FF000004FF00001AFF3008008
:10041000BDE81C407047032A40F2308010F0030C06
:1004200000F0158011F8013BBCF1020F624498BF47
:1004300011F801CB00F8013B38BF11F8013BA2F1E4
:10044000040298BF00F801CB38BF00F8013B11F05F
:10045000030300F04F80083AC0F0088051F8043BD5
:10046000083A51F804CBA0E80810F5E7121D5CBF6C
:1004700051F8043B40F8043BAFF30080D20724BF9F
:1004800011F8013B11F801CB48BF11F8012B24BF33
:1004900000F8013B00F801CB48BF00F8012B704782
:1004A0004FF0000200B5134694469646203922BF0D
:1004B000A0E80C50A0E80C50B1F12001BFF4F7AF58
:1004C000090728BFA0E80C5048BF0CC05DF804EB3A
:1004D000890028BF40F8042B08BF704748BF20F8A8
:1004E000022B11F0804F18BF00F8012B70477047A6
:1004F0007047704710B5203AC0F00B80B1E8185033
:10050000203AA0E81850B1E81850A0E81850BFF4FD
:10051000F5AF5FEA027C24BFB1E81850A0E818509C
:1005200044BF18C918C0BDE810405FEA827C24BFF0
:1005300051F8043B40F8043B08BF7047D20728BF7E
:1005400031F8023B48BF11F8012B28BF20F8023BCD
:1005500048BF00F8012B7047754600F02BF8AE46F7
:1005600005006946534620F00700854618B020B5BF
:10057000FFF7C8FEBDE820404FF000064FF000072F
:100580004FF000084FF0000B21F00701AC46ACE83B
:10059000C009ACE8C009ACE8C009ACE8C0098D46A8
:1005A000704710B50446AFF300802046BDE8104008
:1005B000FFF733BE00487047F0440020014918207F
:1005C000ABBEFEE72600020070470000464910B5AA
:1005D0004A6822F440324A604A6843681A434A60D3
:1005E00001684A6822F480724A6001684A680369B7
:1005F00042EA03224A6001684A6822F040724A6077
:1006000001684A6883681A434A6001688A6822F46C
:1006100000628A6001688A68C3681A438A60816AD6
:100620006FF07062D14201688A6822F070628A605D
:1006300001688A680CD0836A1A438A6001688A68F4
:1006400022F040528A6001688A68C36A1A4301E056
:1006500022F040528A6001688A6822F002028A60B1
:1006600001688A68037E42EA43028A6090F820109B
:10067000002901684A680FD042F400624A600168AC
:100680004A6822F460424A6001684A68174C436A2B
:1006900004EB43331A4301E022F400624A6001682C
:1006A000CA6A22F47002CA620168CA6A838B104C5B
:1006B00004EB03531A43CA6201688A6822F4007289
:1006C0008A6001688A6890F8303042EA43228A6082
:1006D00001688A6822F480628A6001688A684069D9
:1006E00042EA8020886010BD0023014000E0FFFF47
:1006F0000000F0FF70B504460125A1B1012919D011
:10070000022909D003291CD000F02AF80020A07586
:10071000A071A073A07770BD227420210C4800F056
:10072000B3FEA57570BD227001210A4800F0ACFE31
:10073000A57170BD22720221074800F0A5FEA573C5
:1007400070BD22761021054800F09EFEA57770BD91
:100750000010024000040240000802400000024075
:1007600010B5002202740270027204460276012162
:10077000094800F089FE22780221084800F084FE32
:10078000227A2021064800F07FFE227EBDE810403C
:100790001021044800F078BE000402400008024026
:1007A00000100240000002402DE9F04104460126FD
:1007B0001E481F4F0025D1B1012922D002290AD09D
:1007C000032928D02046FFF7CBFFA575A571A57397
:1007D000A577BDE8F081267432462021154800F047
:1007E00053FE1548658200688563A675F1E726709B
:1007F0003246012100F048FE658038684563A671E5
:10080000E7E726723246012100F03EFE6581386836
:100810004563A673DDE726763246012100F034FEFB
:10082000658338684563A677D3E70000000402407B
:1008300044040020001002406405002070B5044606
:100840000125B1B1154801291AD002290AD003297E
:100850001CD02046FFF784FF0020A075A071A07374
:10086000A07770BD62744FF4005100F00DFEA575C5
:1008700070BD627080210A4800F006FEA57170BD4F
:100880006272042100F000FEA57370BD6276202123
:10089000044800F0F9FDA57770BD00000008024093
:1008A000001002400000024070B500250446B2F579
:1008B0007A7F08D8012099B1012917D0022909D0DF
:1008C000032919D02046FFF74BFFA575A571A57325
:1008D000A57770BD0B49628209688A63A07570BDF7
:1008E0000949628009684A63A07170BD0749628145
:1008F00009684A63A07370BD0549628309688A6309
:10090000A07770BD64050020440400201C05002071
:100910008C04002070B50446012511B3012926D0AE
:10092000022918D003294FF0040126D0154801F000
:10093000FDFE0021144801F0F9FE0021134801F0EA
:10094000F5FE0421124801F0F1FE0020A075A0710F
:10095000A073A07770BD04210A4801F083FEA5753D
:1009600070BD0021084801F07DFEA57170BD002119
:10097000064801F077FEA57370BD054801F072FED0
:10098000A57770BD64050020440400201C050020EC
:100990008C040020FEE700001C4800F06FF80120E6
:1009A00003F0F6FB0121194800F034F8174800F075
:1009B000FCF8164E164D4FF0FF372E363A463146AC
:1009C000A86803F02DFE01281CD1104C2046638E30
:1009D000E28D218E00F07EF8204600F0D4F820460B
:1009E00000F0FAF8208D2880608D6880A08DA880A6
:1009F0000748618C0C304180A18C8180218C018062
:100A0000E18CC180012003F0C3FBD7E7BC44002088
:100A10007800002070B5044600F1100300F10806CC
:100A200000F11805B9B1012926D101220221184689
:100A3000FFF760FE012200212046FFF75BFE012246
:100A400011463046FFF756FE01222846BDE87040A9
:100A50000321FFF74FBE002202211846FFF74AFE8E
:100A6000002211462046FFF745FE002201213046B4
:100A7000FFF740FE0022E8E770BD000010B5044615
:100A800002211030FFF790FE00212046FFF78CFE78
:100A9000012104F10800FFF787FE032104F118008B
:100AA000FFF782FE0020014604EB4002401CC0B26A
:100AB00011840428F8D321856185A18500204FF495
:100AC0007A7100BF04EB4002401CC0B2D1850328FC
:100AD000F8D310BDF0B54FF47A75A1F1C80E4FF4FC
:100AE000C86C00246E424FF44877E64505D8A1F55E
:100AF0007A7EA1F2CB313B2901D204850EE04FF47E
:100B00007A710EFB01FE9EFBF7F1A94201DD05851E
:100B100004E0B14201DA068500E00185A2F1C801D6
:100B2000614505D8A2F57A71A2F2CB323B2A01D2F7
:100B300044850DE04FF47A72514391FBF7F1A942DD
:100B400001DD458504E0B14201DA468500E04185DA
:100B5000A3F1C801614505D8A3F57A71A3F2CB339F
:100B60003B2B01D28485F0BD4FF47A72514391FB47
:100B7000F7F1A94201DD8585F0BDB14201DA868534
:100B8000F0BD8185F0BD30B5418D038D4A42818D28
:100B90009C184942641A44849C1A651A0A44858444
:100BA0001A4402842144C18430BD10B50446022198
:100BB0001030FFF7AFFE00212046FFF7ABFE01210A
:100BC00004F10800FFF7A6FE04F11800BDE810408C
:100BD0000321FFF79FBE00002DE9F84F074619A03B
:100BE000DFF864A000680024E9464FF47A784FF0FB
:100BF000010B009019F80460454607EB4600B0F978
:100C00002000A84207DC504505DB002801DB014637
:100C100000E041428DB2012E12D0022E10D00BEB1B
:100C2000E07231463846FFF709FE2A46314638461B
:100C3000FFF73AFE641CE4B2042CDBD3BDE8F88F66
:100C4000C20FEEE70200010318FCFFFF014800F0AD
:100C5000B1B90000CC060020014800F0ABB900009B
:100C60002803002001681823CAB2103AB2FBF3F23D
:100C7000054B6FF30901032A9B5CC36500D9091D6D
:100C800081650846704700003E4B000810B50146DC
:100C900000208B698A6A4FF0C07453B1B3F5005FCE
:100CA00015D072B1012A0CD0022A0AD0032A09D128
:100CB00004E01AB1012A06D0022A03D1C96AC90187
:100CC00000D5012010BDC96AA142FAD010BD002A8A
:100CD000F7D0012AF2D0022AF3D0032AF3D010BDB4
:100CE00030B50468256825F48025256004686360B4
:100CF0008368402B036803D099600068C26030BDF0
:100D00009A600068C16030BD704772B6FEE7B7EE0A
:100D1000001AD0ED001A31EE601A21EE211A00EE11
:100D2000801A80ED011ABCEEC10A80ED001A10EEA7
:100D3000100A80B27047000078B50024009490F843
:100D40003C20012A19D0012280F83C200A680723A0
:100D50000568092A13D9EE680A3A02EB4202934069
:100D60009E43EE600B788A680A3B03EB43039A408C
:100D70000368DD682A43DA6010E0022078BD2E693E
:100D800002EB420293409E432E610B788A6803EB8C
:100D900043039A4003681D692A431A614A681F2366
:100DA000072A13D205686E6B521E02EB8202934033
:100DB0009E436E630B790A885B1E92B203EB83033A
:100DC0009A4003685D6B2A435A6327E005680D2A41
:100DD00012D22E6BD21F02EB820293409E432E63EF
:100DE0000B790A88DB1F92B203EB83039A400368F6
:100DF0001D6B2A431A6311E0EE6A0D3A02EB820280
:100E000093409E43EE620B790A880D3B92B203EB4E
:100E100083039A400368DD6A2A43DA62164B056849
:100E2000144A9D4206D10D68122D03D1556845F430
:100E30008005556005689D4218D10B68102B01D0C4
:100E4000112B13D1536843F4000353600968102930
:100E50000CD10A490A4A0968B1FBF2F101EB8101A0
:100E6000490000E0491E00910029FBD180F83C4078
:100E7000002078BD00230140002001400C0000202C
:100E800040420F0070B504004FF0000503D0206C05
:100E9000002610B107E0012070BD204600F01CF8CC
:100EA000666484F83C60206CC00610D4206C20F48A
:100EB000885040F0020020642046FFF787FB6664FC
:100EC000206C20F0020040F00100206400E00125C9
:100ED00084F83C60284670BD70B586B00646142183
:100EE0006846FFF7DDFA2C493068884251D12B481B
:100EF0000025016841F4807101600068274900F411
:100F0000807014390590086840F004000860086893
:100F100000F004000590086840F0010008600868CF
:100F200000F001000590086840F0020008600868C1
:100F3000032400F00200059009208DE83100694685
:100F4000174800F0A9F940208DE83100694615489E
:100F500000F0A2F902208DE831006946124800F045
:100F60009BF9134C1148C4E900050015A560C4E9BC
:100F70000350400060618000A0614011C4E9070592
:100F80002046656200F0E6F808B1FFF7BEFEB463E4
:100F9000A66306B070BD0000002001404438024046
:100FA00000080240000002400004024010640240B9
:100FB000280300202DE9F84304464FF00009CDF83E
:100FC000009063484FF41651A56D0068B0FBF1F72F
:100FD0002E6894F85C10082000FA01F131420FD01D
:100FE00021680A6852070BD50A6822F004020A60D9
:100FF00094F85C108840A860606D40F00100606566
:1010000094F85C104FF0010808FA01F0304208D063
:1010100021684969090604D5A860606D40F00200A6
:10102000606594F85C1004208840304208D0216844
:101030000968890704D5A860606D40F00400606508
:1010400094F85C1010208840304218D0216809685C
:10105000090714D5A86020680168490304D5006811
:10106000000308D5A16C07E00168C90503D4016835
:1010700021F008010160216C09B12046884794F8ED
:101080005C1020208840304231D021680968C906B0
:101090002DD5A86094F8350005282068016806D091
:1010A000490347D5006800031DD4616C1CE021F0A2
:1010B000160101602068416921F080014161206CC6
:1010C00008B9A06C20B12068016821F00801016016
:1010D00094F85C103F208840A86084F8358084F83C
:1010E0003490216D1FE0E16B09B120468847606DA7
:1010F00000282BD0606DC00714D0052084F835007F
:101100002068016821F0010101600098401C0090F6
:10111000B84203D820680068C007F6D184F835804B
:1011200084F83490E16C002910D001B02046BDE86D
:10113000F04308470168C905D5D4016821F01001C2
:10114000016084F8358084F83490CCE7BDE8F883FA
:101150000C0000202DE9F041044600F09BF9064602
:101160005CB1022084F83500002584F834502068F2
:10117000016821F0010101600DE00120BDE8F0816E
:1011800000F088F9801B052805D920206065032020
:1011900084F83500F2E720680068C007F0D12268C3
:1011A000116820480140D4E901031843D4E903360B
:1011B0003343184363691843A3691843E369184329
:1011C000236A18430843616A042903D1D4E90B1345
:1011D00019430843106020684069666A20F00701DF
:1011E00030460E43012704280CD1A06A0643E06A6A
:1011F00040B12046FFF74AFD20B14020606584F8E9
:101200003570BAE7206846612046FFF72BFD94F859
:101210005C203F2191408160656584F83570002035
:10122000ACE700003F8010F02DE9F0410446866DE8
:1012300090F83400002501280DD0012084F83400F6
:1012400094F835700020012F07D084F8340002256F
:101250002846BDE8F0810220FBE7022784F83570BC
:1012600060652046FFF73CFD94F85C103F20884005
:10127000B0602068016841F016010160206C20B167
:101280002068016841F0080101602068016841F0B0
:1012900001010160DCE700002DE9F84FDFF8BCA197
:1012A0000022012503264FF00F090AF1040BAAF1D1
:1012B000040E00BF0B6805FA02F42340A34270D16C
:1012C0000F7907F00307012F01D0022F16D187688D
:1012D0004FEA420806FA08FC27EA0C07D1F80CC0CE
:1012E0000CFA08FC4CEA070CC0F808C04768A74392
:1012F0000C79C4F3001494403C4344600C79E443FB
:10130000A4070AD0C4684FEA420C06FA0CF7BC43A3
:101310008F6807FA0CF72743C7600C7904F00304C1
:10132000022C12D1D40800EB840CDCF820405707C3
:10133000FF0E09FA07F824EA0804D1F8108008FA29
:1013400007F848EA0408CCF8208004684FEA420C09
:1013500006FA0CF7BC430F7907F0030707FA0CF7FE
:10136000274307604C6814F4403F70D03C4C27681A
:1013700047F480472760246822F0030704F4804480
:101380000094384C07EB040CDCF8084897074FEA48
:10139000177809FA08F7BC43334FB84202D1002747
:1013A00024E054E0314FB84201D101271EE0304F14
:1013B000B84201D1022719E02E4FB84201D10327CC
:1013C00014E02D4FB84201D104270FE02B4FB84253
:1013D00001D105270AE02A4FB84201D1062705E0CE
:1013E000284FB84201D1072700E0082707FA08F77D
:1013F0002743CCF80878DAF800405746D1F804C003
:101400009C435FEACC2C00D51C433C60DBF80040D9
:101410005F46D1F804C09C435FEA8C2C00D51C4386
:101420003C60DEF800407746D1F804C09C435FEA98
:101430008C3C00D51C433C60084F083F3C68D1F809
:1014400004C09C435FEACC3C00D51C433C60521C6A
:10145000102AFFF42FAFBDE8F88F0000083C0140D0
:1014600044380240003001400000024000040240C5
:1014700000080240000C024000100240001402402C
:1014800000180240001C02400AB181617047090443
:10149000FBE7000001488068704700000000002062
:1014A00070B5040025D094F83D00002520B984F8DB
:1014B0003C50204600F0B8F8242084F83D00206815
:1014C000016821F0010101602068016841F40041D8
:1014D00001602068016821F40041016000F05CFABD
:1014E0004D4A6168914201D84C4900E04C4988421C
:1014F00001D2012070BD4B492368B0FBF1F15E6859
:1015000026F03F060E435E606368934206D94FF4AF
:10151000967359434FF47A73B1FBF3F12368491C76
:101520001E6A26F03F06314319626168914210D865
:101530004900401EB0FBF1F2521CC2F30B02042A18
:1015400001D2042022E0B0FBF1F0401CC0F30B00FC
:101550001CE0A268F2B301EBC10303EB0116431ECA
:10156000B3FBF6F35B1C43F480431B0549D092B3F5
:1015700001EBC10202EB0111401EB0FBF1F0401C77
:10158000C0F30B0040F4804040F400402168CA6979
:101590004CF6FF739A431043C861D4E90710014326
:1015A0002068026822F0C00211430160D4E90301FF
:1015B00001432068826848F2FF339A4311438160F7
:1015C000D4E9050108432168CA6822F0FF021043EC
:1015D000C86001E00EE016E02068016841F00101FA
:1015E00001602564202084F83D00256384F83E5086
:1015F000002070BD01EB4106431EB3FBF6F35B1CFC
:10160000B3E70120C2E701EB4101401EB0FBF1F05E
:10161000401CC0F30B00B7E7A086010080841E00C9
:1016200000093D0040420F0010B586B00446142169
:101630006846FEF735FF13492068884220D11248DA
:101640000021026842F002020260006800F002001D
:101650000590C02000901220CDE9010103200390E5
:101660000420049069460948FFF716FE064810302A
:10167000016841F400110160006800F40010059059
:1016800006B010BD00540040303802400004024053
:101690000248816802781144816070470000002090
:1016A0000B4810B5016841F400710160016841F414
:1016B00080610160016841F480710160032000F0E5
:1016C0009FF80F2000F006F800F050F8002010BD41
:1016D000003C024030B505461F4887B00024016831
:1016E00041F010010160006806A900F010000090B0
:1016F00001A800F031F90498A8B100F04DF94000BC
:101700001649174AB0FBF1F11648491E026040F233
:10171000E732C0E90324C0E90114846100F0A2FCAF
:10172000040003D015E000F037F9E9E70D4800F0B8
:101730001DFD04000DD1362000F034F8102D07D225
:1017400000222946362000F03BF80748056000E0FB
:10175000012407B0204630BD4038024040420F000F
:10176000001000402C070020040000200C4882B02C
:10177000016841F480410160006800F480400090FD
:101780000748001F016841F0805101600068002295
:1017900000F0805000900F21901E02B000F010B8B1
:1017A00044380240002809DB00F01F02012191406B
:1017B0004009800000F1E020C0F8001170470000EF
:1017C000F0B40E4B1B680C46C3F30223C3F10705AC
:1017D000042D00D90425191D072901D2002300E09A
:1017E000DB1E012606FA05F1491E214099409E4064
:1017F000761E16403143F0BC02F001B90CED00E05A
:10180000064900F0070208684FF6FF03184040EA57
:101810000220034A10430860704700000CED00E00E
:101820000000FA052DE9F0470E46050065D0DFF807
:101830001481D8F80000F7B200F00700B04207D2D8
:1018400088F80070D8F8000000F00700B04254D1CA
:1018500028683D4C810712D5400703D5206840F425
:10186000E05020602878000703D5206840F46040ED
:1018700020602068A96820F0F000084320602878E4
:10188000C0072DD0304968680839012812D00228D5
:1018900013D0032811D00968890700292DDA21689F
:1018A00021F0030101432160FFF7F4FD814641F27D
:1018B000883A0EE009688903EFE709688901ECE7D7
:1018C000FFF7E8FDA0EB0901514502D90320BDE86F
:1018D000F0872068696800F00C00B0EB810FEFD151
:1018E000D8F80010404601F00701B14207D907704F
:1018F000006800F00700B04201D00120E7E7287837
:10190000400705D52068E96820F4E05008432060CE
:101910002878000706D52068296920F4604040EA4D
:10192000C100206000F058F82168084AC1F3031193
:10193000515CC8400649086006480068FFF7CAFEC7
:101940000020C4E7003C024008380240464B000833
:101950000C000020040000200F2202600C4A1368D3
:1019600003F003034360136803F0F003836013681C
:1019700003F4E053C36012684FF4E05303EAD20269
:1019800002610448006800F007000860704700002A
:1019900008380240003C02400448054900680968D4
:1019A000044AC1F38221515CC84070470C000020FA
:1019B00008380240564B0008044805490068096889
:1019C000044AC1F34231515CC84070470C0000200A
:1019D00008380240564B0008154810B5006810F052
:1019E0000C02144813D01449042A0FD0082A0ED12F
:1019F0000F4C241F2268236802F03F025B0207D5C8
:101A00002068C0F38810A0FB010106E0084610BD65
:101A10002168C1F38811A1FB00010023FEF784FCBB
:101A20002168C1F30141491C4900B0FBF1F010BD30
:101A3000083802400024F400001BB7002DE9F84FDD
:101A400004006ED02078DFF84C93C007A9F104059C
:101A50004AD009F104000168C1F38101012908D0CD
:101A60000068C0F3810002280AD1D9F800004002C2
:101A700006D52868800337D560680028E1D033E0B8
:101A80006068B0F5803F10D0B0F5A02F286810D066
:101A900020F480302860286820F480202860606866
:101AA000A8B1FFF7F7FC06460DE0286840F4803047
:101AB000F4E740F480202860F7E700BFFFF7EAFC76
:101AC000801B642873D828688003F7D50CE0FFF7E3
:101AD000E1FC064605E000BFFFF7DCFC801B642844
:101AE000F0D828688003F7D42078DFF8AC8280072C
:101AF0004FF0000A3ED5A748001D016811F00C0FF9
:101B000008D00068C0F3810002280BD1D9F800008A
:101B1000400207D42868800716D5E068012800D164
:101B200012E033E1E068B8B10120C8F80000FFF727
:101B3000B1FC064605E000BFFFF7ACFC801B0228A5
:101B4000C0D828688007F7D52868216920F0F800F8
:101B500040EAC10028600DE0C8F800A0FFF79AFC39
:101B6000064604E0FFF796FC801B02281FD8286871
:101B70008007F7D42078000722D5864F874861690F
:101B8000703771B101210160FFF784FC064604E063
:101B9000FFF780FC801B022809D838688007F7D53A
:101BA0000EE0C0F800A0FFF775FC064605E082E0F5
:101BB000FFF770FC801B02287DD838688007F7D4B7
:101BC0002078400768D5DFF8CCB100270BF13C0B3B
:101BD000DBF80000C0000BD4DBF8001041F08051AE
:101BE000CBF80010DBF80000012700F080500090D7
:101BF0006B4E3068C00510D4306840F4807030609F
:101C0000FFF748FC009005E0FFF744FC0099401AFC
:101C1000022850D83068C005F6D55E4EA0686C36F4
:101C200001280FD00528306810D020F00100306066
:101C3000306820F004003060A068B8B1FFF72AFCDB
:101C400000900FE0306840F00100F4E740F004003D
:101C50003060F7E7FFF71EFC0099411A41F2883027
:101C6000814266D830688007F4D50EE0FFF712FC99
:101C7000009007E0FFF70EFC0099411A41F288300E
:101C8000814256D830688007F4D42FB1DBF80010B9
:101C900021F08051CBF80010A069C8B33D49091D5F
:101CA0000968C1F3810102294AD00228504607D0B1
:101CB000C8F8600000E03CE0FFF7ECFB04463BE0C6
:101CC0004746C8F86000FFF7E5FB064605E000BFA1
:101CD000FFF7E0FB801B02282BD828688001F7D48F
:101CE000D4E907010843A16A2E4A490802EB0141E1
:101CF000626A41EA8211084394F82C1040EA0161BB
:101D0000C9F8001001203866FFF7C4FB044606E05E
:101D10003EE000BFFFF7BEFB001B022809D8286881
:101D20008001F7D534E000BFFFF7B4FB001B0228A9
:101D300002D90320BDE8F88F28688001F4D427E099
:101D40000128F7D0D9F80000E26900F4800191423F
:101D50001CD1226A00F03F01914217D147F6C071B1
:101D6000626A0140B1EB821F10D1A26A4FF0FF33CB
:101D700000F4403103EB5202B1EB024F06D194F86C
:101D80002C1000F07060B0EB016F01D00120D1E7A2
:101D90000020CFE70438024000004742800E47424F
:101DA000007000400000FFFF70B5040003D06079B0
:101DB000002510B105E0012070BD2571204600F01E
:101DC0000DF8022060712068016841F00401016093
:101DD00001206071A560002070BD000008B500689A
:101DE0000649884208D10648016841F04001016077
:101DF000006800F04000009008BD00000008065098
:101E00003438024070B5040009D0606A002540B142
:101E100025616561A56294F8510040B10CE0012094
:101E200070BD6068B0F5827FF4D0E561F2E784F8B8
:101E30005050204600F044F8022084F851002068F9
:101E4000016821F040010160A088218900F48270BE
:101E500001F404410843A18901F400610843217C95
:101E600001F002010843217D01F001010843218BAB
:101E700001F400710843217F01F03801084394F810
:101E8000201001F080010843218D01F40051084326
:101E900021680860A069042101EA104094F8241028
:101EA00001F010010843216848602068C16921F4ED
:101EB0000061C1616565012084F85100002070BD9A
:101EC000F0B587B0044614216846FEF7E9FA2649C2
:101ED0002068884245D125480024016841F400412A
:101EE0000160006800F40040059020481038016847
:101EF00041F001010160016801F0010105910168F3
:101F000041F004010160016801F0040105910168DC
:101F100041F0020101600068022500F00200059016
:101F20004FF40040CDE9000502AA0326062782E807
:101F3000D00069460E48FFF7AFF9B002CDE90005C1
:101F400002AA694682E8D0000A48FFF7A5F92020D6
:101F5000CDE9000502AA694682E8D0000648FFF7ED
:101F60009BF907B0F0BD0000003C00404038024043
:101F70000000024000080240000402407047704721
:101F800010B590F83C20012A22D0012280F83C2094
:101F9000CA688C6822F4407222434C6822F4806242
:101FA00022430C6822F4006222430C6922F480521E
:101FB00022434C6922F400522243C969002322F4CF
:101FC00080420A4301684A6480F83C30002010BD1A
:101FD000022010BD70B590F83C20012A32D00124B7
:101FE00080F83C40022280F83D2003685A689D68D2
:101FF00022F070060A6832435A60134B02689A4214
:1020000014D0B2F1804F11D0104B9A420ED0104B29
:102010009A420BD00F4B9A4208D00F4B9A4205D0F0
:102020000E4B9A4202D00E4B9A4204D1496825F0D9
:1020300080031943916080F83D40002180F83C10F6
:10204000084670BD022070BD000001400004004041
:1020500000080040000C0040000401400040014026
:102060000018004010B5040003D094F83D0010B1F2
:1020700007E0012010BD002084F83C00204600F05D
:102080001FF8022084F83D00211D206801F0CAF9E4
:10209000012084F8460084F83E0084F83F0084F86C
:1020A000400084F8410084F8420084F8430084F83A
:1020B000440084F8450084F83D00002010BD000075
:1020C00008B501682248234A814207D1106840F0D0
:1020D00001001060106800F001000BE01D481E4B6D
:1020E000001F994208D1016841F0020101600068B7
:1020F00000F00200009008BD184B994207D101681A
:1021000041F004010160006800F00400F2E7144BA4
:10211000994207D1016841F008010160006800F0B0
:102120000800E7E70F4B994207D1106840F4803070
:102130001060106800F48030DCE70B4A9142DAD17D
:10214000016841F040010160006800F04000D1E703
:1021500000000140443802400004004000080040F4
:10216000000C0040004001400018004090F83D1075
:10217000012901D001207047022180F83D1001683B
:10218000CA6842F00102CA6000681149884214D04E
:10219000B0F1804F11D00F4988420ED00E498842CD
:1021A0000BD00E49884208D00D49884205D00D4910
:1021B000884202D00C49884204D1816801F00701AD
:1021C000062903D0016841F0010101600020704739
:1021D000000001400004004000080040000C0040E6
:1021E00000040140004001400018004070B5044662
:1021F00090F83C000025012817D0012684F83C60A7
:10220000022084F83D002068826822F0770222F4E0
:102210007F4282600868502838D00DDC20284FD0DB
:1022200005DC90B3102811D14AE0022070BD30289F
:1022300046D040280AD13BE060282FD070280DD02E
:10224000B0F5805F03D0B0F5005F12D0012584F8AF
:102250003D60002084F83C00284670BDCB68D1E981
:102260000121206801F057F92068816841F0770169
:1022700009E0CB68D1E90121206801F04CF9206820
:10228000816841F480418160E1E719E0CA684968EA
:10229000206801F015FA5021206806E0CA684968F4
:1022A000206801F01EFA6021206801F03EF9CEE7B7
:1022B000CA684968206801F003FA40212068F4E701
:1022C000226801461046F0E770472DE9F0410446C8
:1022D0000068C66805694FF00007A90713D5B10764
:1022E00011D5F91E016101202077206880698007DF
:1022F000204602D0FFF7E8FF04E000F01DF9204679
:1023000000F0AFF92777680716D5700714D5216854
:102310006FF004000861022020772068806910F4C3
:10232000407F204602D0FFF7CFFF04E000F004F921
:10233000204600F096F92777280715D5300713D5E2
:1023400021686FF008000861042020772068C069C8
:102350008007204602D0FFF7B7FF04E000F0ECF85A
:10236000204600F07EF92777E80616D5F00614D54A
:1023700021686FF010000861082020772068C0698C
:1023800010F4407F204602D0FFF79EFF04E000F0EB
:10239000D3F8204600F065F92777E80708D0F00762
:1023A00006D021686FF001000861204600F0FCF9BA
:1023B000280608D5300606D521686FF08000086130
:1023C0002046FFF7DBFD680608D5700606D52168B4
:1023D0006FF040000861204600F0F0F9A8060AD529
:1023E000B00608D521686FF0200008612046BDE8DE
:1023F000F041FFF7C4BDBDE8F0810000F0B587B043
:10240000044614216846FEF74BF82468404D00222C
:102410004049022301274048AC420FD10C6844F0E8
:1024200010040C60096801F010010591411500913C
:10243000CDE90132CDE90327694612E0374E384D28
:10244000B44212D1086840F001000860086869468B
:1024500000F00100059080200090CDE9013228466F
:1024600016E0FEF719FF07B0F0BDDFF8B8C02E4E3A
:10247000644510D1086840F00200086008686946A9
:1024800000F002000590B0150090CDE90132304611
:10249000CDE90323E5E7DFF894C064450FD1086870
:1024A00040F00100086008680097CDE9013200F0B3
:1024B0000100CDE90430694603922846D1E71C4D5E
:1024C000AC4210D10C6844F010040C60096801F0B3
:1024D0001001059140210091CDE901320321CDE9A0
:1024E00003216946BDE713488442BCD1086840F027
:1024F000020008600868694600F002000590E013D9
:102500000090CDE901320920CDE903203046A8E74B
:10251000000001403038024000100240000400403A
:10252000000002400008004000040240000C00408F
:102530000040014000180040704770B5044690F814
:102540003C0000260D4601280FD0012084F83C00F5
:102550006AB1042A1DD0082A2FD00C2A3FD00126A8
:10256000002084F83C00304670BD022070BD206819
:1025700000F0E4FF2068816941F008018161206872
:10258000816921F004018161206881692A69114310
:1025900011E0206801F002F82068816941F40061CF
:1025A00081612068816921F480618161206881698D
:1025B0002A6941EA02218161D2E7206801F024F80A
:1025C0002068C16941F00801C1612068C16921F03A
:1025D0000401C1612068C1692A69114311E02068C2
:1025E00001F046F82068C16941F40061C1612068CA
:1025F000C16921F48061C1612068C1692A6941EA29
:102600000221C161ACE710B5040003D094F83D008D
:1026100010B107E0012010BD002084F83C002046E6
:1026200000F01EF8022084F83D00211D206800F013
:10263000F9FE012084F8460084F83E0084F83F004B
:1026400084F8400084F8410084F8420084F8430094
:1026500084F8440084F8450084F83D00002010BD53
:102660007047704710B50446022249B104290ED0C4
:10267000082913D094F84100012816D0012010BD7C
:1026800094F83E000128F9D184F83E200FE094F838
:102690003F000128F2D184F83F2008E094F8400080
:1026A0000128EBD184F8402001E084F84120012288
:1026B000206800F023FF16492068164A884201D09E
:1026C000904203D1436C43F4004343642068884242
:1026D00013D0B0F1804F10D00F4988420DD00F4970
:1026E00088420AD00E49884207D0904205D00D4951
:1026F000884202D00C49884204D1816801F0070168
:10270000062903D0016841F001010160002010BDDD
:1027100000000140000401400004004000080040A7
:10272000000C0040004001400018004030B5044655
:102730000D460068002200F0E1FE194B41F2111134
:1027400020688A10984202D0164B984209D1036A39
:102750000B4206D1036A134203D1436C23F40043B6
:1027600043642068036A0B4206D1016A114203D117
:10277000016821F00101016001203DB1042D08D064
:10278000082D09D084F84100002030BD84F83E00B7
:10279000FAE784F83F00F7E784F84000F4E7000028
:1027A000000001400004014000680349884201D153
:1027B000FEF76EBF70470000001000407047704782
:1027C000704770B5040004D094F84100002510B1A2
:1027D00006E0012070BD84F84050204600F024F847
:1027E000242084F841002068C16821F40051C160B0
:1027F000204601F035F82068016921F4904101611B
:102800002068416921F02A0141612068C16841F4D2
:102810000051C1606564202084F8410084F84200C2
:102820006563002070BD00002DE9F04786B00746C3
:1028300014216846FDF734FE56485549D7F800C0C4
:102840000024544B103802250326DFF84CA14FF02A
:1028500004098C452AD1196841F48011196019685E
:1028600001F480110591016841F0040101600168E3
:1028700001F004010591016841F008010160006860
:1028800002AA00F0080005909814CDE90005082779
:1028900082E8D00069464148FEF7FEFC02AA69467C
:1028A00082E8D000CDE90095504620E0DFF8F080C6
:1028B00007213C4AC4451FD1364B1B1D1F6847F0FA
:1028C00010071F601B6803F010030593036843F0B3
:1028D000010303600068029400F001000590CDE957
:1028E00003614FF4C060CDE9000569461046FEF76C
:1028F000D3FC06B0BDE8F087DFF8AC80C445F8D162
:10290000D3F800C04CF4003CC3F800C01B6803F4CB
:1029100000330593036843F001030360036803F089
:1029200001030593036843F00803036000688846C9
:1029300000F00800CDF80090CDE904800396CDE9C1
:10294000015469461046FEF7A7FC4020CDE900057A
:102950000DF1080C69468CE850015046FEF79CFCCE
:10296000134D124828604FF00060C5E9010440147F
:10297000C5E903406C61AC61EC612C6228466C6275
:10298000FEF7E8FB08B1FEF7C0F9FD63AF63B0E7FF
:102990000050004040380240000C02400008024055
:1029A00000100140000002400044004088600240E6
:1029B000CC06002090F84230202B01D00220704736
:1029C00021B11AB10023036300F0D0BF012070478A
:1029D00070477047FEE700007FB500212648009150
:1029E00001910291234A0391026001244FF40032C5
:1029F0000461C0E90121047680F820101F4AC0E973
:102A00000A210425C561C16080F830404161FEF7AC
:102A100039FA08B1FEF779F90920CDE90004032459
:102A2000694615480294FEF787F908B1FEF76DF97B
:102A3000062000900220019069460F48FEF77CF9BD
:102A400008B1FEF762F90A20CDE9000469460A4898
:102A5000FEF772F908B1FEF758F90D20CDE900052F
:102A600069460548FEF768F9002801D0FEF74DF9E0
:102A70007FBD000000200140E00200200100000FA7
:102A8000114808B5016841F480010160016801F452
:102A900080010091016841F400110160006800228A
:102AA00000F40010009005211020FEF789FE102090
:102AB000FEF778FE002205213820FEF781FEBDE8F2
:102AC00008403820FEF76EBE303802401CB50024A6
:102AD00000942346802207A10948019401F076FE64
:102AE0000120CDE900040023802206A1084801F05E
:102AF0006DFE1CBD546573745461736B310000002E
:102B000099090008546573745461736B32000000B6
:102B1000913100082DE9F04F87B014216846FDF788
:102B2000BFFC53480024016841F0100101600168B6
:102B300001F010010591016841F004010160016894
:102B400001F004010591016841F080010160016814
:102B500001F080010591016841F001010160016807
:102B600001F001010591016841F002010160016875
:102B700001F002010591016841F00801016000685F
:102B80003C4F00F0080005900022A0213846FEF7D7
:102B90007BFCDFF8E4B0002242F206115846FEF753
:102BA00073FCDFF8D880002230214046FEF76CFC31
:102BB000DFF8CC90002247F201014846FEF764FCA2
:102BC000DFF8C0A04FF4E066002231465046FEF721
:102BD0005BFC012280215846FEF756FC012251027F
:102BE0004846FEF751FC012211463846FEF74CFCE0
:102BF000A12000900125CDE901546946384603948F
:102C0000FEF74AFB42F286100090CDE90154694676
:102C100058460394FEF740FB30200090CDE9015464
:102C2000694640460394FEF737FB47F201200090C7
:102C3000CDE90154694648460394FEF72DFBE803AD
:102C40008DE8310069463846FEF726FB0096CDE94F
:102C50000154694650460394FEF71EFB40208DE860
:102C6000310069465846FEF717FB07B0BDE8F08F04
:102C700030380240001002400008024000000240CC
:102C800000040240000C02400D4810B50B490160E1
:102C90000C49416000214FF480428160C0E9031279
:102CA00041618161C1610162FEF7FAFB002803D036
:102CB000BDE81040FEF729B810BD000000540040E8
:102CC00088030020A0860100074910B50548086068
:102CD0000846FFF769F8002803D0BDE81040FEF76A
:102CE00014B810BD00080650DC0300200F4810B5D2
:102CF0000D4901604FF48271416000218160C16023
:102D00004FF480220161C0E90512C1610162416294
:102D100081620A21C162FFF775F8002803D0BDE87F
:102D20001040FDF7F2BF10BD003C0040EC03002056
:102D300010B58CB000240794089409941C216846AF
:102D40000A94FDF7ADFB1A48184901601421C0E947
:102D5000011440F28F11C0E903148461FFF782F976
:102D600008B1FDF7D2FF4FF48050079007A9104833
:102D7000FFF73CFA08B1FDF7C8FF0D48FFF743FC29
:102D800008B1FDF7C2FF60200090C820CDE9010422
:102D90000422694606480494FFF7CFFB08B1FDF70B
:102DA000B4FF0348FFF72AFB0CB010BD0018004029
:102DB000AC05002010B596B000240F941094119427
:102DC000129413941C2108A81494FDF769FB202188
:102DD0006846FDF765FB2948274901600321C0E9E2
:102DE000011440F2E731C0E9031444618461FFF744
:102DF00039F908B1FDF789FF4FF480500F900FA902
:102E00001E48FFF7F3F908B1FDF77FFF1B48FFF7F6
:102E1000FAFB08B1FDF779FF139413A9174814942E
:102E2000FFF7D8F808B1FDF770FF6020CDE908047E
:102E30000220CDE90A040C940D94002208A90F4841
:102E40000E94FFF77AFB08B1FDF75FFF00944FF493
:102E50000050CDE904400294019403946946074868
:102E60000794FFF78DF808B1FDF74FFF0348FFF710
:102E7000C5FA16B010BD0000000001404404002057
:102E800010B58EB000240794089409940A940B940A
:102E90001C2168460C94FDF703FB1F481D49016087
:102EA0000321C0E9011440F2E731C0E90314846151
:102EB000FFF7D8F808B1FDF728FF4FF480500790CE
:102EC00007A91548FFF792F908B1FDF71EFF124850
:102ED000FFF799FB08B1FDF718FF0B940BA90E48FB
:102EE0000C94FFF777F808B1FDF70FFF6020CDE9EC
:102EF0000004022002900422694604940648FFF769
:102F00001CFB08B1FDF701FF0348FFF777FA0EB08D
:102F100010BD0000000400408C04002010B58EB0ED
:102F200000240794089409940A940B941C21684681
:102F30000C94FDF7B5FA1F481D4901600321C0E953
:102F4000011440F2E731C0E903148461FFF78AF805
:102F500008B1FDF7DAFE4FF48050079007A9154835
:102F6000FFF744F908B1FDF7D0FE1248FFF74BFB1D
:102F700008B1FDF7CAFE0B940BA90E480C94FFF79D
:102F800029F808B1FDF7C1FE6020CDE90004022058
:102F900002900822694604940648FFF7CEFA08B169
:102FA000FDF7B3FE0348FFF729FA0EB010BD00008D
:102FB00000080040D404002010B58EB0002407940F
:102FC000089409940A940B941C2168460C94FDF70C
:102FD00067FA1F481D4901600321C0E9011440F24E
:102FE000E731C0E903148461FFF73CF808B1FDF74D
:102FF0008CFE4FF48050079007A91548FFF7F6F8AC
:1030000008B1FDF782FE1248FFF7FDFA08B1FDF79F
:103010007CFE0B940BA90E480C94FEF7DBFF08B165
:10302000FDF773FE6020CDE900040220029000222B
:10303000694604940648FFF780FA08B1FDF765FE7B
:103040000348FFF7DBF90EB010BD0000000C004094
:103050001C05002010B58CB0002407940894099436
:103060001C2168460A94FDF71BFA1A4818490160AA
:103070000321C0E9011440F2E731C0E9031484617F
:10308000FEF7F0FF08B1FDF740FE4FF480500790C7
:1030900007A91048FFF7AAF808B1FDF736FE0D485A
:1030A000FFF7B1FA08B1FDF730FE6020CDE900046A
:1030B000022002900422694604940648FFF73DFA74
:1030C00008B1FDF722FE0348FFF798F90CB010BDD8
:1030D00000400140640500200C4810B50A49016019
:1030E0004FF4E1314160002181600C22C160C0E9F0
:1030F00004128161C161FFF764FB002803D0BDE8C1
:103100001040FDF702BE10BD00500040F405002045
:103110000C4810B50A4901604FF4E13141600021CB
:1031200081600C22C160C0E904128161C161FFF7B6
:1031300048FB002803D0BDE81040FDF7E6BD10BDF8
:10314000001001403C0600200E4810B50C490160FB
:103150000D4941604FF4805181604900C160C91040
:1031600001610421416100218161C161FFF729FBF7
:10317000002803D0BDE81040FDF7C7BD10BD00001A
:103180000044004084060020A0860100FEE7FEE720
:103190001CB500200090024601900621092001F094
:1031A00029F9104DA860104800F086F80E4C4FF039
:1031B000FF360D4800F01AF80B4800F059F8608B04
:1031C000ADF80000A08BADF80200208CADF8040033
:1031D000002332466946A86801F072F9012000F028
:1031E000D7FFE6E7780000206444002010B50446CD
:1031F000014619221D48FFF7DDFB18B1002084F8B5
:10320000540010BD012084F85400B4F80100C0F34C
:103210000A00E084A078C108E07841EA4011C1F3D7
:103220000A0121852179800940EA8101607941EA1A
:103230008021C1F30A0161854108A07941EAC011EA
:10324000C1F30A01A1850109E07941EA0011C1F346
:103250000A01E185217AC00940EA4100617A40EA29
:103260004120C0F30A00208610BD00008406002023
:1032700070B505462DED028B00249FED0E8A00BF30
:1032800005EB4406F0EE480AF08C00EE100A05EB60
:10329000C4003430B8EE400AFDF739FD641CE4B2D6
:1032A0007083042CECD3E88D6884288EA884BDEC50
:1032B000028B70BD0AD7233D10B504460146192282
:1032C0002148FFF777FB70BBB4F80100C0F30A0098
:1032D000E084A078C108E07841EA4011C1F30A0116
:1032E00021852179800940EA8101607941EA8021C4
:1032F000C1F30A0161854108A07941EAC011C1F317
:103300000A01A1850109E07941EA0011C1F30A012E
:10331000E185217AC00940EA4100617A40EA412012
:10332000C0F30A002086002004EB4001C98C00EEA7
:10333000101A04EBC001401CB8EE400AC0B20428C9
:1033400081ED0D0AF0D310BD8406002010B5502089
:1033500080F31188BFF34F8FBFF36F8F01F09CFA9A
:1033600018B104494FF080500860002080F31188A4
:1033700010BD000004ED00E030B593B03021684688
:10338000FDF78EF814210CA8FDF78AF81C480025DB
:10339000016841F080510160006800F08050119098
:1033A0001848016841F4804101600068022400F47B
:1033B0008040119001200090000401908001CDE92F
:1033C000064006200890A820CDE9090407200B90AC
:1033D0006846FEF733FB08B172B6FEE70CA90F2072
:1033E00081E831004FF4A0500F90109005210CA8F7
:1033F000FEF718FA002801D072B6FEE713B030BD10
:1034000040380240007000400248016841F47001F9
:103410000160704788ED00E00148FEF756BF0000EC
:103420002C070020F0B50268294C2A4D2A4E2B4F5C
:103430002B4B4FF0804CA04209D0604507D0A842EA
:1034400005D0B04203D0B84201D0984204D122F056
:10345000700E4A6842EA0E02A0421BD0604519D0A5
:10346000A84217D0B04215D0B84213D0984211D01C
:103470001C4DA8420ED01C4DA8420BD01B4DA8429B
:1034800008D01B4DA84205D01A4DA84202D01A4DB3
:10349000A84203D122F44075CA682A434D6922F03C
:1034A00080022A4302608A68C2620A688262A0427D
:1034B00001D0984201D1096901630121416101698B
:1034C000C90703D0016921F001010161F0BD0000CD
:1034D000000001400004004000080040000C0040D3
:1034E0000004014000400140004401400048014008
:1034F00000180040001C00400020004010B501F002
:103500001F030121046A99408C430462016A9A40B6
:103510001143016210BD10B5846842EA032224F40D
:103520007F440A432243826010BD826822F0700209
:103530000A4342F00701816070470000F0B5036A5A
:10354000026A22F00102026242688469124E24F08B
:1035500073050C682C4323F002058B682B430D4D3B
:10356000A84201D0B04205D123F00807CB683B4305
:1035700023F00403A84201D0B04205D14D6922F4E2
:10358000407215438A692A434260846149684163F5
:103590000362F0BD0000014000040140F0B5026A82
:1035A000036A23F010030362436884690D6824F4FE
:1035B000E64444EA05248D6822F0200242EA05121E
:1035C0000F4D104EA84201D0B04206D1CF6822F074
:1035D000800242EA071222F04002A84201D0B04223
:1035E00007D14D6923F4406343EA85038D6943EABB
:1035F000850343608461496881630262F0BD000015
:103600000000014000040140F0B5026A036A23F49F
:10361000807303624368C46922F4007224F0730566
:103620000C68124E2C438D6842EA05220E4DA842CA
:1036300001D0B04206D1CF6822F4006242EA0722EC
:1036400022F48062A84201D0B04207D14D6923F430
:10365000405343EA05138D6943EA05134360C4618F
:103660004968C1630262F0BD0000014000040140EE
:1036700030B5046A026A22F4805202624268C36969
:103680000D6823F4E64343EA05238D6824F40054CF
:1036900044EA0534084DA84202D0084DA84204D19E
:1036A0004D6922F4804242EA85124260C361496852
:1036B0000164046230BD00000000014000040140CC
:1036C00010B5036A046A24F001040462846924F0DA
:1036D000F00444EA021423F00A020A4384610262FD
:1036E00010BD10B5036A046A24F0100404628469F2
:1036F00023F0A00324F4704444EA023243EA0111A7
:103700008261016210BD70B5846B2068406994F8D5
:103710004110C0F3C0100025212904D118B1E5845F
:10372000204600F08EF82068406994F84210C0F3FB
:103730008010222904D118B1E585204600F05AF8FE
:10374000606C40F0100060642046FFF739F870BDEF
:1037500010B50146806B096809684FF00002C90581
:103760002ED4C28501680C3151E8003F23F48073E8
:1037700041E80034002CF5D10168143151E8003FD4
:1037800023F0010341E80034002CF5D10168143125
:1037900051E8003F23F0400341E80034002CF5D10C
:1037A000202180F84210016B012909D101680C31F8
:1037B00051E8003F23F0100341E80034002CF5D11C
:1037C0004263016B012902D0FFF702F910BD818D20
:1037D000FEF7F5FF10BD10B5806B01214163016B51
:1037E000012902D0FFF7F5F810BD818D4908FEF7D9
:1037F000E6FF10BD01680C3151E8002F22F49072F1
:1038000041E80023002BF5D10168143151E8002F65
:1038100022F0010241E80023002BF5D1016B0129C0
:1038200009D101680C3151E8002F22F0100241E863
:103830000023002BF5D1202180F8421000210163E4
:10384000704701680C3151E8002F22F0C00241E8B6
:103850000023002BF5D1202180F841107047000093
:1038600070B5044600680169E26821F440511143D3
:1038700001612169A068E269084361691143084355
:103880002168CA6849F20C639A430243CA602068FF
:103890004169A26921F440711143416131492068B5
:1038A000884202D03049884202D1FEF785F801E013
:1038B000FEF772F8E2690023192164253226B2F579
:1038C000004F626828D0A0FB0101930F9200FCF723
:1038D0002BFD0146B0FBF5F06FF01802504301EBF1
:1038E000800006EB0010B0FBF5F000F0F002B1FB39
:1038F000F5F002EB0012B1FBF5F06FF0180358433E
:1039000001EB800006EB0010B0FBF5F000F00F00BB
:1039100021681044886070BDA0FB010192185B41D2
:10392000FCF702FD0146B0FBF5F00201B1FBF5F03A
:103930006FF01803584301EB800006EBC000B0FBAA
:10394000F5F000F0F80002EB4002B1FBF5F058434F
:1039500001EB800006EBC000B0FBF5F000F00700C3
:10396000D6E70000001001400014014038B5816224
:1039700004468285002013466064222284F8422097
:10398000E56B1B4AEA63E56B1A4A2A64E56B1A4A3F
:10399000EA64E26B10650A462168E06B091DFDF7D9
:1039A00043FC2068016840680090206948B12068A5
:1039B0000C3050E8001F41F4807140E80012002AEA
:1039C000F5D12068143050E8001F41F0010140E8B3
:1039D0000012002AF5D12068143050E8001F41F091
:1039E000400140E80012002AF5D1002038BD000057
:1039F00051370008D737000807370008FEE70907E6
:103A0000090E002804DB00F1E02080F80014704764
:103A100000F00F0000F1E02080F8141D7047FDF762
:103A20003FFEFFF7A9FCFFF775F8FFF729F8FEF74F
:103A3000D3FFFFF7BFF9FFF723FAFFF76FFAFFF79E
:103A4000BBFAFFF707FBFFF773F9FFF71DF9FFF765
:103A50003BF9FFF74BF9FFF73FFBFFF759FBFFF788
:103A600073FBFFF733F800F001F8FEE710B500F044
:103A7000DBFB002010BD00002DE9F041184C0F4683
:103A80000546E6682068001D00F0BAFA38B92068DB
:103A900090F82C1001208840216981432161681C25
:103AA00007D137B12168BDE8F0410E48091D00F08B
:103AB000EBBA20683544B5424560216805D2A06B59
:103AC000BDE8F041091D00F0C7BA606B091D00F0A8
:103AD000C3FAA06A854200D2A562BDE8F081000069
:103AE00010000020500800202DE9F041054600F0AC
:103AF000D7FA2E4CA068401CA06020682C4F10B153
:103B0000606940B32DE02560A068012829D1002616
:103B100006EB860007EB800000F090FA761C072E7B
:103B2000F6D323488C3000F089FA2148A03000F009
:103B300085FA1F48B43000F081FA1D48C83000F003
:103B40007DFA1B48DC3000F079FA19488C3060634C
:103B50001430A06305E02068E96AC06A884200D892
:103B60002560606A401C6062E96A01202269884021
:103B70001043206101EB810007EB8000291D00F05C
:103B800083FA00F0ADFA606900280CD02068E96A79
:103B9000C06A884207D207494FF080500860BFF3DF
:103BA0004F8FBFF36F8FBDE8F08100001000002041
:103BB0007407002004ED00E030B4026C0B46002ACC
:103BC0000BD0C1681144C1608468A14201D301686F
:103BD000C16030BC1846FCF71EBC30BC70472DE9F4
:103BE000F041856B174604460026026C82B1C7B1CE
:103BF000E068FCF710FCE168206C091AE1602268BB
:103C0000914202D2A168081AE060022F16D017E094
:103C10002068A8B9A06800F0A5FE06460020A060B4
:103C20000EE06068FCF7F7FB216C60680844606098
:103C3000A168884204D32068606001E005B16D1E70
:103C40006D1CA5633046BDE8F08110B5044690F8C0
:103C5000510058B101280CD002280FD0502080F319
:103C60001188BFF34F8FBFF36F8FFEE7206B00F01B
:103C70004BFA2046BDE8104000F046BA10BD0000E7
:103C800010484FF47051420706D0C01D0D4920F076
:103C90000700411AC1F570510B4A00230144C2E9E3
:103CA00000030839183A21F0070111604B600B60DE
:103CB0000B1AC0E9001393604FF00040536050614D
:103CC000704700006408002064000020144E154C6A
:103CD000A6F1C8074FF08058DFF84C9012E000BF03
:103CE00000F0DEF9F068C568281D00F089F9A068C9
:103CF000401EA0606068401E606000F0F1F9284638
:103D0000FFF7A3FF60680028EAD138680128F9D9D5
:103D1000C9F80080BFF34F8FBFF36F8FF2E7000049
:103D20003C0800201000002004ED00E0034600984D
:103D300029B10260C0E90F31012100F07DBB0060B4
:103D4000F8E72DE9F0479A46DDE9098481466FF0EE
:103D50000303206B03EB82021044089E20F0070748
:103D6000780707D0502080F31188BFF34F8FBFF33F
:103D70006F8FFEE7002561B1002023180A5C83F8ED
:103D800034200A5C12B1401C1028F6D384F843504A
:103D900001E084F83450072E00D30626E662C4E919
:103DA0001165201D00F055F904F1180000F051F9DB
:103DB0002461C6F107006462A061E56484F8505094
:103DC00052464946384600F005F92060B8F1000F28
:103DD00001D0C8F80040BDE8F087000030B51149B7
:103DE00000E011460A688242FBD34B685C188442AB
:103DF00003D1406818444860084643681C18944240
:103E000009D1084C183C2468A24209D052681A44CF
:103E100042600A6812680260814200D0086030BDCA
:103E20000460F9E76400002010B5044600F038F99A
:103E3000A06B28B15FF0000400F052F9204610BDDD
:103E40000124F9E70648416B096829B1416BC9684B
:103E5000C9684968816270474FF0FF31FAE7000096
:103E60001000002008484068401C4FF0500080F3CC
:103E7000118804D0BFF34F8FBFF36F8FFEE7BFF3FE
:103E80004F8FBFF36F8FFEE76C0000202DE9F041EC
:103E9000044600F005F994F9455004F1240609E0C0
:103EA000606A48B1304600F0A9FD08B100F09EF903
:103EB0006D1E6DB2002DF3DC4FF0FF3684F84560C7
:103EC00000F00EF900F0ECF894F9445004F11007FA
:103ED00009E0206948B1384600F090FD08B100F0D3
:103EE00085F96D1E6DB2002DF3DC84F84460BDE8E9
:103EF000F04100F0F5B800002DE9F041054600273B
:103F000000F0C8F9324E306808B9FFF7B9FE7069A1
:103F100005424ED1C5B3083568070ED005F007003D
:103F2000C0F108000544680707D0502080F31188CD
:103F3000BFF34F8FBFF36F8FFEE72DB370688542DD
:103F400037D82348183001460C6801E020460C465B
:103F50006168A94202D221680029F7D131688C42F8
:103F600027D007682168016060680837411B102965
:103F70000FD96019420708D0502080F31188BFF391
:103F80004F8FBFF36F8FFEE713E041606560FFF76F
:103F900025FF61687068401A7060B268904200D274
:103FA000B060706901430020C4E90001F068401C62
:103FB000F06000F05DFD780707D0502080F3118895
:103FC000BFF34F8FBFF36F8FFEE73846BDE8F08138
:103FD0004C00002010B5031F4FF080741C601B1FA5
:103FE00021F001011960191F044B0B6014390A609C
:103FF000091F6FF0020244380A6010BD653E0008D8
:10400000D0E9013201699A60D0E901235A604A6817
:10401000824201D182684A60002202610868401E23
:104020000860086870470000034B036003F1540008
:1040300008608020106070478C00002000F10801AB
:104040004FF0FF32C0E90112C1600161002101603F
:10405000704700210161704730B50B685A1C02D0CF
:1040600000F1080202E0026904E022465468256873
:104070009D42FAD953684B6099608A60516008612B
:104080000168491C016030BD42684A6093688B60DA
:1040900093685960916008610168491C016070472C
:1040A000502080F31188BFF34F8FBFF36F8F0A4901
:1040B0004868401C486001280CD10848006810F08E
:1040C000FF0F07D0502080F31188BFF34F8FBFF34D
:1040D0006F8FFEE7704700006C00002004ED00E0E9
:1040E0000849486828B1401E486001D180F3118812
:1040F0007047502080F31188BFF34F8FBFF36F8F4D
:10410000FEE700006C00002070B500282AD0164D94
:10411000A0F1080460686969084207D1502080F363
:104120001188BFF34F8FBFF36F8FFEE722683AB15C
:10413000502080F31188BFF34F8FBFF36F8FFEE7DE
:104140008843606000F0A6F86068696808446860A9
:104150002046FFF743FE2869401C2861BDE87040F7
:1041600000F086BC70BD00004C0000204FF0E02045
:1041700000210161816105494FF47A720968B1FB40
:10418000F2F1491E41610721016170470C000020D6
:1041900010B5020014D00F48006B38B1502080F3E6
:1041A0001188BFF34F8FBFF36F8FFEE700F072F8F7
:1041B00000211046FFF760FC00F05AFC002807D1F0
:1041C00005494FF080500860BFF34F8FBFF36F8FEA
:1041D00010BD00001000002004ED00E002490A6A52
:1041E0000260C96841607047100000200149012049
:1041F000C86170471000002010B50C4650B1094945
:1042000009681831FFF728FF2046BDE8104001215A
:10421000FFF732BC502080F31188BFF34F8FBFF3FC
:104220006F8FFEE71000002010B586B000240394C5
:1042300005AA04A903A80494FFF7F6FEDDE903012B
:104240000094CDE9011000230EA11048059A00F05A
:10425000EAFA0F490028C86211D0502080F3118873
:10426000BFF34F8FBFF36F8F4FF0FF308862012095
:104270004861CC6006B0BDE8104000F041B806B01F
:1042800010BD000049444C4500000000CD3C000832
:10429000100000200248016B491C016370470000B8
:1042A000100000201448016B11B10121C161704759
:1042B0000021C1610169B1FA81F1C1F11F0101EB76
:1042C00081020E4951F822306BB101EB820101F1FC
:1042D00008034A6852684A609A4201D152684A60AB
:1042E000D16801607047502080F31188BFF34F8F71
:1042F000BFF36F8FFEE7000010000020740700205E
:104300001CB537480168374A914207D1502080F3E5
:104310001188BFF34F8FBFF36F8FFEE700683149FD
:10432000491E884207D1502080F31188BFF34F8F78
:10433000BFF36F8FFEE72C4908780190FF200870CB
:1043400008788DF800009DF800009DF8002000F02E
:10435000F000904207D0502080F31188BFF34F8FB8
:10436000BFF36F8FFEE79DF80000204C00F0500077
:1043700020700720A06005E09DF8002052008DF815
:104380000020401E9DF800201206F5D4A0600328EE
:1043900007D0502080F31188BFF34F8FBFF36F8F8A
:1043A000FEE74FF44070A060019808700C48203080
:1043B000016841F470010160016841F070410160E1
:1043C000FFF7D4FE00206060FBF752FF0848016849
:1043D00041F040410160FBF737FF00201CBD0000A9
:1043E00000ED00E071C20F4100E400E06C0000202D
:1043F00034EF00E0F8B517460E46050013D005FB74
:1044000006F04830FFF778FD04000AD0002084F859
:10441000460004F148023B46314628460094FFF727
:1044200085FC2046F8BD502080F31188BFF34F8FE4
:10443000BFF36F8FFEE7000070B50D46040025D076
:10444000FFF72EFED4E90F20216802FB0011A160C6
:104450000021A163216861600A46D4E90F01401E72
:1044600000FB0121E16021464FF0FF3001F8440FCD
:10447000487004F110008DB1FFF7E0FD04F1240055
:10448000FFF7DCFDFFF72CFE012070BD502080F30C
:104490001188BFF34F8FBFF36F8FFEE721690029AB
:1044A000F0D000F0ABFA0028ECD004494FF0805077
:1044B0000860BFF34F8FBFF36F8FE3E704ED00E0B9
:1044C0002DE9FF4782B01D468A464FF000080400E0
:1044D00003D0BAF1000F08D011E0502080F311880A
:1044E000BFF34F8FBFF36F8FFEE7206C38B15020C2
:1044F00080F31188BFF34F8FBFF36F8FFEE7022D5C
:104500000AD1E06B012807D0502080F31188BFF357
:104510004F8FBFF36F8FFEE700F0B0F93F4F4FF0C2
:1045200000094FF0805648B9049838B1502080F304
:104530001188BFF34F8FBFF36F8FFEE7FFF7B0FD1A
:10454000A06BE16B884207D3022D05D00498D0B14F
:10455000B8F1000F1AD01EE02A4651462046FFF758
:104560003EFB616A19B104F1240000F047FA20B162
:104570003E60BFF34F8FBFF36F8FFFF7B1FD012098
:1045800006B0BDE8F087FFF7ABFD22E06846FFF715
:1045900025FE4FF00108FFF7A3FDFFF77BFEFFF7B5
:1045A0007FFD94F94400401C01D184F8449094F9B3
:1045B0004500401C01D184F84590FFF791FD04A906
:1045C000684600F0C9F830B12046FFF75FFC00F004
:1045D0004FFA0020D4E7FFF763FDA06BE16B884240
:1045E00013D1FFF77DFD04F110000499FFF704FEDD
:1045F0002046FFF74BFC00F03BFA00289ED13E60BE
:10460000BFF34F8FBFF36F8F98E7FFF769FD204629
:10461000FFF73CFC00F02CFA90E7000004ED00E00E
:104620002DE9F747002683B08A46040003D0BAF18B
:10463000000F08D011E0502080F31188BFF34F8F96
:10464000BFF36F8FFEE7206C38B1502080F31188E4
:10465000BFF34F8FBFF36F8FFEE700F00FF9DFF866
:10466000F4804FF000094FF0805748B9059838B1F1
:10467000502080F31188BFF34F8FBFF36F8FFEE799
:10468000FFF70EFDA56BC5B151462046FFF794FA22
:104690006D1EA563206950B104F1100000F0AEF961
:1046A00028B1C8F80070BFF34F8FBFF36F8FFFF7CB
:1046B00017FD012006B0BDE8F087059808B11EB1CE
:1046C00006E0FFF70DFD27E06846FFF787FD0126AE
:1046D000FFF706FDFFF7DEFDFFF7E2FC94F944006B
:1046E000401C01D184F8449094F94500401C01D14C
:1046F00084F84590FFF7F4FC05A9684600F02CF813
:10470000002820460AD0FFF7C1FB00F0B1F920468F
:10471000FFF78AFB0028B3D00020CBE7FFF784FB2C
:1047200090B104F124000599FFF766FD2046FFF7DC
:10473000ADFB00F09DF90028A2D1C8F80070BFF3CE
:104740004F8FBFF36F8F9BE72046FFF79FFB00F073
:104750008FF995E704ED00E02DE9F0410C460500E6
:1047600011D0C4B1FFF79CFC174BDA686E68206863
:10477000911B471C17D02F681B6A9F4219D0964285
:1047800017D8012410E0502080F31188BFF34F8F19
:10479000BFF36F8FFEE7502080F31188BFF34F8F78
:1047A000BFF36F8FFEE70024FFF79AFC2046BDE8B9
:1047B000F081884205D9401A20602846FFF70EFD97
:1047C000F1E700202060DCE7100000202DE9FF5F0A
:1047D0008346DDE90E87994616468A469000FFF724
:1047E0008BFB05001CD05420FFF786FB040014D07F
:1047F0000020256384F85100CDE90240CDE900870F
:104800004B46324651465846FFF79BFA2046FFF783
:104810006BF9012004B0BDE8F09F2846FFF774FC57
:104820004FF0FF30F6E7F0B585B0DDE90B640A9D87
:10483000A6B1DCB1542700972663022684F85160A4
:10484000002604AFCDE90246CDE90057FFF779FA1B
:104850002046FFF749F9049805B0F0BD502080F3D9
:104860001188BFF34F8FBFF36F8FFEE7502080F3A7
:104870001188BFF34F8FBFF36F8FFEE70548416983
:1048800019B1006B18B10020704701207047022059
:1048900070470000100000202DE9F0412F4C002649
:1048A000206B28B1A069401CA0613046BDE8F081B2
:1048B000E5686D1CE56013D1606B006838B150206D
:1048C00080F31188BFF34F8FBFF36F8FFEE7606BEC
:1048D000A16B6163A063206A401C2062FFF7B2FAFB
:1048E000A06ADFF87C80854209D3606B0068A0B1C4
:1048F000606BC068C7687868854211D2A062206882
:10490000C06A00EB800158F82100012800D9012677
:10491000E0690028C9D00126C7E74FF0FF30EDE776
:10492000381DFFF76DFBB86A18B107F11800FFF7E3
:1049300067FBF96A0120226988401043206101EB7E
:10494000810108EB8100391DFFF79EFBF86A2168A1
:10495000C96A8842C9D30126C7E7000010000020B9
:104960007407002070B504004FF0000140D0214DC5
:104970002868844207D0502080F31188BFF34F8FFE
:10498000BFF36F8FFEE7A06C38B1401EA064636C6C
:10499000E26A9A422CD040B12AE0502080F311887C
:1049A000BFF34F8FBFF36F8FFEE7201DFFF728FB8C
:1049B000114A012150B9E06A00EB800352F823301C
:1049C00023B92B6901FA00F083432B61606CE0622C
:1049D000C0F10700A061E06A2B6981401943296199
:1049E00000EB800002EB8000211DFFF74DFB012151
:1049F000084670BD10000020740700202DE9F0412A
:104A0000C068C468ACB104F118000746FFF7F8FAB3
:104A1000154D286B0126A0B139461448FFF734FB29
:104A2000E06A2968C96A88421CD90120EE61BDE8A4
:104A3000F081502080F31188BFF34F8FBFF36F8F49
:104A4000FEE7201DFFF7DCFAE16A2A6906FA01F0A9
:104A50001043286101EB81000449B43901EB800067
:104A6000211DDBE70020E2E71000002028080020DD
:104A70002DE9F0472C4D00242746286B38B1FFF76D
:104A80000FFB286B401E2863286B40B146E0502086
:104A900080F31188BFF34F8FBFF36F8FFEE7A968D4
:104AA000224E0120D1B3A6F1B40980463068E8B1A6
:104AB000F068C46804F11800FFF7A2FA201DFFF7A0
:104AC0009FFAE06A2A6908FA00F11143296100EBB4
:104AD000800109EB8100211DFFF7D6FAE06A296801
:104AE000C96A8842E2D3C5F81C80DFE70CB1FFF742
:104AF000A9F9AC6944B14646FFF7CEFE00B1EE61BC
:104B0000641EF9D10020A861E86938B1084901277D
:104B100038070860BFF34F8FBFF36F8FFFF7E0FADE
:104B20003846BDE8F087000010000020280800206B
:104B300004ED00E04FF04070E1EE100A704700060F
:104B40001016000610160000000000000000010210
:104B50000304060708090000000001020304000026
:104B6000804B0008000000208C000000C4010008F9
:104B70000C4C00088C000020C44A0000E001000832
:104B80000100000010000000000000000024F400FC
:104B90000000000000000000000000000000000015
:104BA0000000000000000000000000000000000005
:104BB00000000000000000000000000000000000F5
:104BC00000000000000000000000000000000000E5
:104BD00000000000000000000000000000000000D5
:104BE00000000000000000000000000000000000C5
:104BF000AAAAAAAA0000000000000000000000000D
:0C4C0000000000000000000000000000A8
:040000050800018965
:00000001FF
