:020000040800F2
:10000000084B0020E90200080B2A000851220008D2
:10001000092A000809060008BD3100080000000098
:10002000000000000000000000000000290200089D
:10003000C90600080000000085020008192B00080E
:100040000303000803030008030300080303000878
:100050000303000803030008030300080303000868
:100060000303000803030008030300080303000858
:100070000303000803030008030300080303000848
:100080000D0600080303000803030008030300082B
:100090000303000803030008030300080303000828
:1000A0000303000803030008030300080303000818
:1000B0000303000803030008030300080303000808
:1000C00003030008030300080303000803030008F8
:1000D00003030008030300080303000803030008E8
:1000E00003030008030300080303000803030008D8
:1000F00003030008030300080303000803030008C8
:1001000003030008030300080303000803030008B7
:100110000303000803030008E52B0008030300089D
:10012000190600080303000803030008030300087E
:100130000303000803030008030300080303000887
:100140000303000803030008030300080303000877
:100150000303000803030008030300080303000867
:100160000303000803030008030300080303000857
:100170000303000803030008030300080000000055
:10018000030300080303000800F002F800F03CF845
:100190000AA090E8000C82448344AAF10107DA45E2
:1001A00001D100F031F8AFF2090EBAE80F0013F0F8
:1001B000010F18BFFB1A43F001031847F03A000083
:1001C000103B0000103A24BF78C878C1FAD8520713
:1001D00024BF30C830C144BF04680C6070470000C1
:1001E0000023002400250026103A28BF78C1FBD840
:1001F000520728BF30C148BF0B6070471FB503F0DE
:100200003FFD1FBD10B510BD00F02FF91146FFF7DF
:10021000F5FF02F0E4FF00F04DF903B4FFF7F2FF41
:1002200003BC00F055F900002C4B19680868B0E8D1
:10023000F04F80F30988BFF36F8F4FF0000080F319
:10024000118870470000000008480068006880F3CB
:1002500008884FF0000080F3148862B661B6BFF3DF
:100260004F8FBFF36F8F00DF00BF00BF08ED00E0CE
:10027000DFF80C00016841F470010160704700BFB5
:1002800088ED00E0EFF30980BFF36F8F134B1A681E
:100290001EF0100F08BF20ED108A20E9F04F10600B
:1002A00009B44FF0500080F31188BFF34F8FBFF3B4
:1002B0006F8F03F01DFB4FF0000080F3118809BC25
:1002C00019680868B0E8F04F1EF0100F08BFB0ECD6
:1002D000108A80F30988BFF36F8F704710000020E9
:1002E000EFF3058070470000094880470948004740
:1002F000FEE7FEE7FEE7FEE7FEE7FEE7FEE7FEE7D6
:10030000FEE7FEE704480549054A064B7047000032
:10031000D52B00088901000808450020084B002063
:10032000084700200847002053EA020C00F06980CB
:100330002DE9F04B4FF00006002B1FBFB3FA83F5F9
:1003400003FA05F424FA05F65E4012BF1643B2FA2A
:1003500082F502FA05F4C5F120051EBF22FA05FC5C
:1003600044EA0C04203556EA044C4FEA144418BF02
:10037000641C4FF000084FF00009904271EB030C31
:1003800039D3002919BFB1FA81F701FA07F6B0FA9B
:1003900080F700FA07F6C7F120071EBF20FA07FC16
:1003A00046EA0C062037B6FBF4FCA7EB0507103F26
:1003B00007F01F0BCBF120060CFA0BFB2CFA06F60C
:1003C00044BFB3460026202FA4BF5E464FF0000B6B
:1003D0005BEA060C08BF4FF0010B19EB0B09ABFBF6
:1003E000027C48EB0608C01B06FB02CC0BFB03CCCF
:1003F00071EB0C01C1E70B46024641464846BDE899
:10040000F08B13B54FF000004FF00001AFF3008008
:10041000BDE81C4070474FF0000200B513469446FB
:100420009646203922BFA0E80C50A0E80C50B1F14C
:100430002001BFF4F7AF090728BFA0E80C5048BF60
:100440000CC05DF804EB890028BF40F8042B08BFFE
:10045000704748BF20F8022B11F0804F18BF00F8FA
:10046000012B7047704770477047754600F02CF8B5
:10047000AE4605006946534620F00700854618B091
:1004800020B5FFF73FFFBDE820404FF000064FF0DA
:1004900000074FF000084FF0000B21F00701AC46B9
:1004A000ACE8C009ACE8C009ACE8C009ACE8C009D8
:1004B0008D46704710B50446AFF300802046BDE876
:1004C0001040FFF7AABE000000487047A844002073
:1004D00001491820ABBEFEE726000200704700006D
:1004E000464910B54A6822F440324A604A68436877
:1004F0001A434A6001684A6822F480724A600168BF
:100500004A68036942EA03224A6001684A6822F0A5
:1005100040724A6001684A6883681A434A60016809
:100520008A6822F400628A6001688A68C3681A4394
:100530008A60816A6FF07062D14201688A6822F035
:1005400070628A6001688A680CD0836A1A438A6084
:1005500001688A6822F040528A6001688A68C36A2A
:100560001A4301E022F040528A6001688A6822F052
:1005700002028A6001688A68037E42EA43028A6056
:1005800090F82010002901684A680FD042F40062F8
:100590004A6001684A6822F460424A6001684A6819
:1005A000174C436A04EB43331A4301E022F4006220
:1005B0004A600168CA6A22F47002CA620168CA6AA3
:1005C000838B104C04EB03531A43CA6201688A6898
:1005D00022F400728A6001688A6890F8303042EA3A
:1005E00043228A6001688A6822F480628A60016816
:1005F0008A68406942EA8020886010BD002301407B
:1006000000E0FFFF0000F0FFFEE70000014800F0FF
:10061000B1B90000B8060020014800F0ABB90000F5
:100620001403002001681823CAB2103AB2FBF3F297
:10063000054B6FF30901032A9B5CC36500D9091DB3
:1006400081650846704700008A3C000810B50146E5
:1006500000208B698A6A4FF0C07453B1B3F5005F14
:1006600015D072B1012A0CD0022A0AD0032A09D16E
:1006700004E01AB1012A06D0022A03D1C96AC901CD
:1006800000D5012010BDC96AA142FAD010BD002AD0
:10069000F7D0012AF2D0022AF3D0032AF3D010BDFA
:1006A00030B50468256825F48025256004686360FA
:1006B0008368402B036803D099600068C26030BD36
:1006C0009A600068C16030BD704772B6FEE7B7EE51
:1006D000001AD0ED001A31EE601A21EE211A00EE58
:1006E000801A80ED011ABCEEC10A80ED001A10EEEE
:1006F000100A80B27047000078B50024009490F88A
:100700003C20012A19D0012280F83C200A680723E6
:100710000568092A13D9EE680A3A02EB42029340AF
:100720009E43EE600B788A680A3B03EB43039A40D2
:100730000368DD682A43DA6010E0022078BD2E6984
:1007400002EB420293409E432E610B788A6803EBD2
:1007500043039A4003681D692A431A614A681F23AC
:10076000072A13D205686E6B521E02EB8202934079
:100770009E436E630B790A885B1E92B203EB830380
:100780009A4003685D6B2A435A6327E005680D2A87
:1007900012D22E6BD21F02EB820293409E432E6335
:1007A0000B790A88DB1F92B203EB83039A4003683C
:1007B0001D6B2A431A6311E0EE6A0D3A02EB8202C6
:1007C00093409E43EE620B790A880D3B92B203EB95
:1007D00083039A400368DD6A2A43DA62164B056890
:1007E000144A9D4206D10D68122D03D1556845F477
:1007F0008005556005689D4218D10B68102B01D00B
:10080000112B13D1536843F4000353600968102976
:100810000CD10A490A4A0968B1FBF2F101EB8101E6
:10082000490000E0491E00910029FBD180F83C40BE
:10083000002078BD00230140002001400C00002072
:1008400040420F0070B504004FF0000503D0206C4B
:10085000002610B107E0012070BD204600F01CF812
:10086000666484F83C60206CC00610D4206C20F4D0
:10087000885040F0020020642046FFF731FE666495
:10088000206C20F0020040F00100206400E001250F
:1008900084F83C60284670BD70B586B006461421C9
:1008A0006846FFF7B8FD2C493068884251D12B4883
:1008B0000025016841F4807101600068274900F457
:1008C000807014390590086840F0040008600868DA
:1008D00000F004000590086840F001000860086816
:1008E00000F001000590086840F002000860086808
:1008F000032400F00200059009208DE831006946CC
:10090000174800F0A9F940208DE8310069461548E4
:1009100000F0A2F902208DE831006946124800F08B
:100920009BF9134C1148C4E900050015A560C4E902
:100930000350400060618000A0614011C4E90705D8
:100940002046656200F0E6F808B1FFF7BEFEB4632A
:10095000A66306B070BD000000200140443802408C
:1009600000080240000002400004024010640240FF
:10097000140300202DE9F84304464FF00009CDF898
:10098000009063484FF41651A56D0068B0FBF1F775
:100990002E6894F85C10082000FA01F131420FD063
:1009A00021680A6852070BD50A6822F004020A601F
:1009B00094F85C108840A860606D40F001006065AC
:1009C00094F85C104FF0010808FA01F0304208D0AA
:1009D00021684969090604D5A860606D40F00200ED
:1009E000606594F85C1004208840304208D021688B
:1009F0000968890704D5A860606D40F0040060654F
:100A000094F85C1010208840304218D021680968A2
:100A1000090714D5A86020680168490304D5006857
:100A2000000308D5A16C07E00168C90503D401687B
:100A300021F008010160216C09B12046884794F833
:100A40005C1020208840304231D021680968C906F6
:100A50002DD5A86094F8350005282068016806D0D7
:100A6000490347D5006800031DD4616C1CE021F0E8
:100A7000160101602068416921F080014161206C0C
:100A800008B9A06C20B12068016821F0080101605C
:100A900094F85C103F208840A86084F8358084F882
:100AA0003490216D1FE0E16B09B120468847606DED
:100AB00000282BD0606DC00714D0052084F83500C5
:100AC0002068016821F0010101600098401C00903D
:100AD000B84203D820680068C007F6D184F8358092
:100AE00084F83490E16C002910D001B02046BDE8B4
:100AF000F04308470168C905D5D4016821F0100109
:100B0000016084F8358084F83490CCE7BDE8F88340
:100B10000C0000202DE9F041044600F09BF9064648
:100B20005CB1022084F83500002584F83450206838
:100B3000016821F0010101600DE00120BDE8F081B4
:100B400000F088F9801B052805D920206065032066
:100B500084F83500F2E720680068C007F0D1226809
:100B6000116820480140D4E901031843D4E9033651
:100B70003343184363691843A3691843E36918436F
:100B8000236A18430843616A042903D1D4E90B138B
:100B900019430843106020684069666A20F0070125
:100BA00030460E43012704280CD1A06A0643E06AB0
:100BB00040B12046FFF74AFD20B14020606584F82F
:100BC0003570BAE7206846612046FFF72BFD94F8A0
:100BD0005C203F2191408160656584F8357000207C
:100BE000ACE700003F8010F02DE9F0410446866D2F
:100BF00090F83400002501280DD0012084F834003D
:100C000094F835700020012F07D084F834000225B5
:100C10002846BDE8F0810220FBE7022784F8357002
:100C200060652046FFF73CFD94F85C103F2088404B
:100C3000B0602068016841F016010160206C20B1AD
:100C40002068016841F0080101602068016841F0F6
:100C500001010160DCE700002DE9F84FDFF8BCA1DD
:100C60000022012503264FF00F090AF1040BAAF117
:100C7000040E00BF0B6805FA02F42340A34270D1B2
:100C80000F7907F00307012F01D0022F16D18768D3
:100C90004FEA420806FA08FC27EA0C07D1F80CC014
:100CA0000CFA08FC4CEA070CC0F808C04768A743D8
:100CB0000C79C4F3001494403C4344600C79E44341
:100CC000A4070AD0C4684FEA420C06FA0CF7BC43EA
:100CD0008F6807FA0CF72743C7600C7904F0030408
:100CE000022C12D1D40800EB840CDCF8204057070A
:100CF000FF0E09FA07F824EA0804D1F8108008FA70
:100D000007F848EA0408CCF8208004684FEA420C4F
:100D100006FA0CF7BC430F7907F0030707FA0CF744
:100D2000274307604C6814F4403F70D03C4C276860
:100D300047F480472760246822F0030704F48044C6
:100D40000094384C07EB040CDCF8084897074FEA8E
:100D5000177809FA08F7BC43334FB84202D100278D
:100D600024E054E0314FB84201D101271EE0304F5A
:100D7000B84201D1022719E02E4FB84201D1032712
:100D800014E02D4FB84201D104270FE02B4FB84299
:100D900001D105270AE02A4FB84201D1062705E014
:100DA000284FB84201D1072700E0082707FA08F7C3
:100DB0002743CCF80878DAF800405746D1F804C049
:100DC0009C435FEACC2C00D51C433C60DBF8004020
:100DD0005F46D1F804C09C435FEA8C2C00D51C43CD
:100DE0003C60DEF800407746D1F804C09C435FEADF
:100DF0008C3C00D51C433C60084F083F3C68D1F850
:100E000004C09C435FEACC3C00D51C433C60521CB0
:100E1000102AFFF42FAFBDE8F88F0000083C014016
:100E2000443802400030014000000240000402400B
:100E300000080240000C0240001002400014024072
:100E400000180240001C02400AB181617047090489
:100E5000FBE70000014880687047000000000020A8
:100E600070B5040025D094F83D00002520B984F821
:100E70003C50204600F0B8F8242084F83D0020685B
:100E8000016821F0010101602068016841F400411E
:100E900001602068016821F40041016000F05CFA03
:100EA0004D4A6168914201D84C4900E04C49884262
:100EB00001D2012070BD4B492368B0FBF1F15E689F
:100EC00026F03F060E435E606368934206D94FF4F6
:100ED000967359434FF47A73B1FBF3F12368491CBD
:100EE0001E6A26F03F06314319626168914210D8AC
:100EF0004900401EB0FBF1F2521CC2F30B02042A5F
:100F000001D2042022E0B0FBF1F0401CC0F30B0042
:100F10001CE0A268F2B301EBC10303EB0116431E10
:100F2000B3FBF6F35B1C43F480431B0549D092B33B
:100F300001EBC10202EB0111401EB0FBF1F0401CBD
:100F4000C0F30B0040F4804040F400402168CA69BF
:100F50004CF6FF739A431043C861D4E9071001436C
:100F60002068026822F0C00211430160D4E9030145
:100F700001432068826848F2FF339A43114381603D
:100F8000D4E9050108432168CA6822F0FF02104332
:100F9000C86001E00EE016E02068016841F0010140
:100FA00001602564202084F83D00256384F83E50CC
:100FB000002070BD01EB4106431EB3FBF6F35B1C42
:100FC000B3E70120C2E701EB4101401EB0FBF1F0A5
:100FD000401CC0F30B00B7E7A086010080841E0010
:100FE00000093D0040420F0010B586B004461421B0
:100FF0006846FFF710FA13492068884220D112484A
:101000000021026842F002020260006800F0020063
:101010000590C02000901220CDE90101032003902B
:101020000420049069460948FFF716FE0648103070
:10103000016841F400110160006800F4001005909F
:1010400006B010BD00540040303802400004024099
:1010500002488168027811448160704700000020D6
:101060000B4810B5016841F400710160016841F45A
:1010700080610160016841F480710160032000F02B
:101080009FF80F2000F006F800F050F8002010BD87
:10109000003C024030B505461F4887B00024016877
:1010A00041F010010160006806A900F010000090F6
:1010B00001A800F031F90498A8B100F04DF9400002
:1010C0001649174AB0FBF1F11648491E026040F27A
:1010D000E732C0E90324C0E90114846100F0A2FCF6
:1010E000040003D015E000F037F9E9E70D4800F0FF
:1010F0001DFD04000DD1362000F034F8102D07D26C
:1011000000222946362000F03BF80748056000E041
:10111000012407B0204630BD4038024040420F0055
:101120000010004018070020040000200C4882B086
:10113000016841F480410160006800F48040009043
:101140000748001F016841F08051016000680022DB
:1011500000F0805000900F21901E02B000F010B8F7
:1011600044380240002809DB00F01F0201219140B1
:101170004009800000F1E020C0F800117047000035
:10118000F0B40E4B1B680C46C3F30223C3F10705F2
:10119000042D00D90425191D072901D2002300E0E0
:1011A000DB1E012606FA05F1491E214099409E40AA
:1011B000761E16403143F0BC02F001B80CED00E0A1
:1011C000064900F0070208684FF6FF03184040EA9E
:1011D0000220034A10430860704700000CED00E055
:1011E0000000FA052DE9F0470E46050065D0DFF84E
:1011F0001481D8F80000F7B200F00700B04207D21F
:1012000088F80070D8F8000000F00700B04254D110
:1012100028683D4C810712D5400703D5206840F46B
:10122000E05020602878000703D5206840F4604033
:1012300020602068A96820F0F0000843206028782A
:10124000C0072DD0304968680839012812D002281B
:1012500013D0032811D00968890700292DDA2168E5
:1012600021F0030101432160FFF7F4FD814641F2C3
:10127000883A0EE009688903EFE709688901ECE71D
:10128000FFF7E8FDA0EB0901514502D90320BDE8B5
:10129000F0872068696800F00C00B0EB810FEFD197
:1012A000D8F80010404601F00701B14207D9077095
:1012B000006800F00700B04201D00120E7E728787D
:1012C000400705D52068E96820F4E0500843206015
:1012D0002878000706D52068296920F4604040EA94
:1012E000C100206000F058F82168084AC1F30311DA
:1012F000515CC8400649086006480068FFF7CAFE0E
:101300000020C4E7003C024008380240923C00083C
:101310000C000020040000200F2202600C4A136819
:1013200003F003034360136803F0F0038360136862
:1013300003F4E053C36012684FF4E05303EAD202AF
:1013400002610448006800F0070008607047000070
:1013500008380240003C024004480549006809681A
:10136000044AC1F38221515CC84070470C00002040
:1013700008380240A23C0008044805490068096892
:10138000044AC1F34231515CC84070470C00002050
:1013900008380240A23C0008154810B5006810F05B
:1013A0000C02144813D01449042A0FD0082A0ED175
:1013B0000F4C241F2268236802F03F025B0207D50E
:1013C0002068C0F38810A0FB010106E0084610BDAC
:1013D0002168C1F38811A1FB00010023FEF7A4FFDF
:1013E0002168C1F30141491C4900B0FBF1F010BD77
:1013F000083802400024F400001BB7002DE9F84F24
:1014000004006ED02078DFF84C93C007A9F10405E2
:101410004AD009F104000168C1F38101012908D013
:101420000068C0F3810002280AD1D9F80000400208
:1014300006D52868800337D560680028E1D033E0FE
:101440006068B0F5803F10D0B0F5A02F286810D0AC
:1014500020F480302860286820F4802028606068AC
:10146000A8B1FFF7F7FC06460DE0286840F480308D
:10147000F4E740F480202860F7E700BFFFF7EAFCBC
:10148000801B642873D828688003F7D50CE0FFF729
:10149000E1FC064605E000BFFFF7DCFC801B64288A
:1014A000F0D828688003F7D42078DFF8AC82800772
:1014B0004FF0000A3ED5A748001D016811F00C0F3F
:1014C00008D00068C0F3810002280BD1D9F80000D1
:1014D000400207D42868800716D5E068012800D1AB
:1014E00012E033E1E068B8B10120C8F80000FFF76E
:1014F000B1FC064605E000BFFFF7ACFC801B0228EC
:10150000C0D828688007F7D52868216920F0F8003E
:1015100040EAC10028600DE0C8F800A0FFF79AFC7F
:10152000064604E0FFF796FC801B02281FD82868B7
:101530008007F7D42078000722D5864F8748616955
:10154000703771B101210160FFF784FC064604E0A9
:10155000FFF780FC801B022809D838688007F7D580
:101560000EE0C0F800A0FFF775FC064605E082E03B
:10157000FFF770FC801B02287DD838688007F7D4FD
:101580002078400768D5DFF8CCB100270BF13C0B81
:10159000DBF80000C0000BD4DBF8001041F08051F4
:1015A000CBF80010DBF80000012700F0805000901D
:1015B0006B4E3068C00510D4306840F480703060E5
:1015C000FFF748FC009005E0FFF744FC0099401A43
:1015D000022850D83068C005F6D55E4EA0686C363B
:1015E00001280FD00528306810D020F001003060AD
:1015F000306820F004003060A068B8B1FFF72AFC22
:1016000000900FE0306840F00100F4E740F0040083
:101610003060F7E7FFF71EFC0099411A41F288306D
:10162000814266D830688007F4D50EE0FFF712FCDF
:10163000009007E0FFF70EFC0099411A41F2883054
:10164000814256D830688007F4D42FB1DBF80010FF
:1016500021F08051CBF80010A069C8B33D49091DA5
:101660000968C1F3810102294AD00228504607D0F7
:10167000C8F8600000E03CE0FFF7ECFB04463BE00C
:101680004746C8F86000FFF7E5FB064605E000BFE7
:10169000FFF7E0FB801B02282BD828688001F7D4D5
:1016A000D4E907010843A16A2E4A490802EB014127
:1016B000626A41EA8211084394F82C1040EA016101
:1016C000C9F8001001203866FFF7C4FB044606E0A5
:1016D0003EE000BFFFF7BEFB001B022809D82868C8
:1016E0008001F7D534E000BFFFF7B4FB001B0228F0
:1016F00002D90320BDE8F88F28688001F4D427E0E0
:101700000128F7D0D9F80000E26900F48001914285
:101710001CD1226A00F03F01914217D147F6C071F7
:10172000626A0140B1EB821F10D1A26A4FF0FF3311
:1017300000F4403103EB5202B1EB024F06D194F8B2
:101740002C1000F07060B0EB016F01D00120D1E7E8
:101750000020CFE70438024000004742800E474295
:10176000007000400000FFFF70B5040003D06079F6
:10177000002510B105E0012070BD2571204600F064
:101780000DF8022060712068016841F004010160D9
:1017900001206071A560002070BD000008B50068E0
:1017A0000649884208D10648016841F040010160BD
:1017B000006800F04000009008BD000000080650DE
:1017C0003438024070B5040009D0606A002540B189
:1017D00025616561A56294F8510040B10CE00120DB
:1017E00070BD6068B0F5827FF4D0E561F2E784F8FF
:1017F0005050204600F044F8022084F85100206840
:10180000016821F040010160A088218900F4827004
:1018100001F404410843A18901F400610843217CDB
:1018200001F002010843217D01F001010843218BF1
:1018300001F400710843217F01F03801084394F856
:10184000201001F080010843218D01F4005108436C
:1018500021680860A069042101EA104094F824106E
:1018600001F010010843216848602068C16921F433
:101870000061C1616565012084F85100002070BDE0
:10188000F0B587B0044614216846FEF7C4FD26492A
:101890002068884245D125480024016841F4004170
:1018A0000160006800F4004005902048103801688D
:1018B00041F001010160016801F001010591016839
:1018C00041F004010160016801F004010591016823
:1018D00041F0020101600068022500F0020005905D
:1018E0004FF40040CDE9000502AA0326062782E84E
:1018F000D00069460E48FFF7AFF9B002CDE9000508
:1019000002AA694682E8D0000A48FFF7A5F920201C
:10191000CDE9000502AA694682E8D0000648FFF733
:101920009BF907B0F0BD0000003C00404038024089
:101930000000024000080240000402407047704767
:1019400010B590F83C20012A22D0012280F83C20DA
:10195000CA688C6822F4407222434C6822F4806288
:1019600022430C6822F4006222430C6922F4805264
:1019700022434C6922F400522243C969002322F415
:1019800080420A4301684A6480F83C30002010BD60
:10199000022010BD70B590F83C20012A32D00124FD
:1019A00080F83C40022280F83D2003685A689D6818
:1019B00022F070060A6832435A60134B02689A425A
:1019C00014D0B2F1804F11D0104B9A420ED0104B70
:1019D0009A420BD00F4B9A4208D00F4B9A4205D037
:1019E0000E4B9A4202D00E4B9A4204D1496825F020
:1019F00080031943916080F83D40002180F83C103D
:101A0000084670BD022070BD000001400004004087
:101A100000080040000C004000040140004001406C
:101A20000018004010B5040003D094F83D0010B138
:101A300007E0012010BD002084F83C00204600F0A3
:101A40001FF8022084F83D00211D206801F0D0F825
:101A5000012084F8460084F83E0084F83F0084F8B2
:101A6000400084F8410084F8420084F8430084F880
:101A7000440084F8450084F83D00002010BD0000BB
:101A800008B501682248234A814207D1106840F016
:101A900001001060106800F001000BE01D481E4BB3
:101AA000001F994208D1016841F0020101600068FD
:101AB00000F00200009008BD184B994207D1016860
:101AC00041F004010160006800F00400F2E7144BEB
:101AD000994207D1016841F008010160006800F0F7
:101AE0000800E7E70F4B994207D1106840F48030B7
:101AF0001060106800F48030DCE70B4A9142DAD1C4
:101B0000016841F040010160006800F04000D1E749
:101B1000000001404438024000040040000800403A
:101B2000000C0040004001400018004090F83D10BB
:101B3000012901D001207047022180F83D10016881
:101B4000CA6842F00102CA6000681149884214D094
:101B5000B0F1804F11D00F4988420ED00E49884213
:101B60000BD00E49884208D00D49884205D00D4956
:101B7000884202D00C49884204D1816801F00701F3
:101B8000062903D0016841F001010160002070477F
:101B9000000001400004004000080040000C00402C
:101BA00000040140004001400018004070B50446A8
:101BB00090F83C000025012817D0012684F83C60ED
:101BC000022084F83D002068826822F0770222F427
:101BD0007F4282600868502838D00DDC20284FD022
:101BE00005DC90B3102811D14AE0022070BD3028E6
:101BF00046D040280AD13BE060282FD070280DD075
:101C0000B0F5805F03D0B0F5005F12D0012584F8F5
:101C10003D60002084F83C00284670BDCB68D1E9C7
:101C20000121206801F04CF82068816841F07701BB
:101C300009E0CB68D1E90121206801F041F8206872
:101C4000816841F480418160E1E719E0CA68496830
:101C5000206801F009F95021206806E0CA68496847
:101C6000206801F012F96021206801F033F8CEE716
:101C7000CA684968206801F0F7F840212068F4E755
:101C8000226801461046F0E770472DE9F04104460E
:101C90000068C66805694FF00007A90713D5B107AA
:101CA00011D5F91E01610120207720688069800725
:101CB000204602D0FFF7E8FF04E000F01DF92046BF
:101CC00000F0AFF92777680716D5700714D521689B
:101CD0006FF004000861022020772068806910F40A
:101CE000407F204602D0FFF7CFFF04E000F004F968
:101CF000204600F096F92777280715D5300713D529
:101D000021686FF008000861042020772068C0690E
:101D10008007204602D0FFF7B7FF04E000F0ECF8A0
:101D2000204600F07EF92777E80616D5F00614D590
:101D300021686FF010000861082020772068C069D2
:101D400010F4407F204602D0FFF79EFF04E000F031
:101D5000D3F8204600F065F92777E80708D0F007A8
:101D600006D021686FF001000861204600F05AF9A2
:101D7000280608D5300606D521686FF08000086176
:101D80002046FFF7DBFD680608D5700606D52168FA
:101D90006FF040000861204600F04EF9A8060AD511
:101DA000B00608D521686FF0200008612046BDE824
:101DB000F041FFF7C4BDBDE8F0810000F0B587B089
:101DC000044614216846FEF726FB2468404D002295
:101DD0004049022301274048AC420FD10C6844F02F
:101DE00010040C60096801F0100105914115009183
:101DF000CDE90132CDE90327694612E0374E384D6F
:101E0000B44212D1086840F00100086008686946D1
:101E100000F00100059080200090CDE901322846B5
:101E200016E0FEF719FF07B0F0BDDFF8B8C02E4E80
:101E3000644510D1086840F00200086008686946EF
:101E400000F002000590B0150090CDE90132304657
:101E5000CDE90323E5E7DFF894C064450FD10868B6
:101E600040F00100086008680097CDE9013200F0F9
:101E70000100CDE90430694603922846D1E71C4DA4
:101E8000AC4210D10C6844F010040C60096801F0F9
:101E90001001059140210091CDE901320321CDE9E6
:101EA00003216946BDE713488442BCD1086840F06D
:101EB000020008600868694600F002000590E0131F
:101EC0000090CDE901320920CDE903203046A8E792
:101ED0000000014030380240001002400004004081
:101EE000000002400008004000040240000C0040D6
:101EF0000040014000180040704770B5044690F85B
:101F00003C0000260D4601280FD0012084F83C003B
:101F10006AB1042A1DD0082A2FD00C2A3FD00126EE
:101F2000002084F83C00304670BD022070BD20685F
:101F300000F0D8FE2068816941F0080181612068C5
:101F4000816921F004018161206881692A69114356
:101F500011E0206800F0F6FE2068816941F400611C
:101F600081612068816921F48061816120688169D3
:101F70002A6941EA02218161D2E7206800F018FF56
:101F80002068C16941F00801C1612068C16921F080
:101F90000401C1612068C1692A69114311E0206808
:101FA00000F03AFF2068C16941F40061C161206816
:101FB000C16921F48061C1612068C1692A6941EA6F
:101FC0000221C161ACE710B5040003D094F83D00D4
:101FD00010B107E0012010BD002084F83C0020462D
:101FE00000F01EF8022084F83D00211D206800F05A
:101FF000FFFD012084F8460084F83E0084F83F008D
:1020000084F8400084F8410084F8420084F84300DA
:1020100084F8440084F8450084F83D00002010BD99
:102020007047704700680349884201D1FFF710B834
:10203000704700000010004070477047704770B54F
:10204000040004D094F84100002510B106E00120FE
:1020500070BD84F84050204600F024F8242084F815
:1020600041002068C16821F40051C160204600F0A1
:10207000CFFF2068016921F4904101612068416926
:1020800021F02A0141612068C16841F40051C1601A
:102090006564202084F8410084F8420065630020D4
:1020A00070BD00002DE9F04786B007461421684650
:1020B000FEF7B1F956485549D7F800C00024544BF3
:1020C000103802250326DFF84CA14FF004098C4597
:1020D0002AD1196841F480111960196801F480113E
:1020E0000591016841F004010160016801F00401FB
:1020F0000591016841F008010160006802AA00F042
:10210000080005909814CDE90005082782E8D00062
:1021100069464148FEF7A0FD02AA694682E8D00060
:10212000CDE90095504620E0DFF8F08007213C4AD9
:10213000C4451FD1364B1B1D1F6847F010071F6099
:102140001B6803F010030593036843F00103036069
:102150000068029400F001000590CDE903614FF49E
:10216000C060CDE9000569461046FEF775FD06B072
:10217000BDE8F087DFF8AC80C445F8D1D3F800C0E3
:102180004CF4003CC3F800C01B6803F40033059313
:10219000036843F001030360036803F00103059340
:1021A000036843F0080303600068884600F00800F5
:1021B000CDF80090CDE904800396CDE9015469463D
:1021C0001046FEF749FD4020CDE900050DF1080C51
:1021D00069468CE850015046FEF73EFD134D12480B
:1021E00028604FF00060C5E901044014C5E90340D0
:1021F0006C61AC61EC612C6228466C62FEF78AFC73
:1022000008B1FEF762FAFD63AF63B0E7005000402B
:1022100040380240000C024000080240001001401B
:10222000000002400044004088600240B8060020E0
:1022300090F84230202B01D00220704721B11AB112
:102240000023036300F06ABF0120704770477047A6
:10225000FEE700007FB50021264800910191029120
:10226000234A0391026001244FF400320461C0E963
:102270000121047680F820101F4AC0E90A210425B4
:10228000C561C16080F830404161FEF7DBFA08B1FA
:10229000FEF71BFA0920CDE900040324694615481E
:1022A0000294FEF729FA08B1FEF70FFA0620009013
:1022B0000220019069460F48FEF71EFA08B1FEF7AA
:1022C00004FA0A20CDE9000469460A48FEF714FA28
:1022D00008B1FEF7FAF90D20CDE900056946054879
:1022E000FEF70AFA002801D0FEF7EFF97FBD0000E3
:1022F00000200140CC0200200100000F114808B569
:10230000016841F480010160016801F480010091DD
:10231000016841F4001101600068002200F400101F
:10232000009005211020FEF72BFF1020FEF71AFF6A
:10233000002205213820FEF723FFBDE808403820A1
:10234000FEF710BF303802401CB50024009423462D
:10235000802207A10948019401F072FB0094002338
:10236000802207A10948019401F06AFB1CBD00000E
:10237000546573745461736B31000000AF2E000814
:10238000546573745461736B32000000F92A0008BD
:102390002DE9F04F87B014216846FEF73CF853480A
:1023A0000024016841F010010160016801F0100192
:1023B0000591016841F004010160016801F0040128
:1023C0000591016841F080010160016801F0800120
:1023D0000591016841F001010160016801F001010E
:1023E0000591016841F002010160016801F00201FC
:1023F0000591016841F00801016000683C4F00F060
:10240000080005900022A0213846FEF71DFDDFF8E8
:10241000E4B0002242F206115846FEF715FDDFF83F
:10242000D880002230214046FEF70EFDDFF8CC9028
:10243000002247F201014846FEF706FDDFF8C0A082
:102440004FF4E066002231465046FEF7FDFC0122C3
:1024500080215846FEF7F8FC012251024846FEF75B
:10246000F3FC012211463846FEF7EEFCA120009055
:102470000125CDE90154694638460394FEF7ECFB8B
:1024800042F286100090CDE9015469465846039403
:10249000FEF7E2FB30200090CDE90154694640464A
:1024A0000394FEF7D9FB47F201200090CDE90154D7
:1024B000694648460394FEF7CFFBE8038DE83100F8
:1024C00069463846FEF7C8FB0096CDE901546946D7
:1024D00050460394FEF7C0FB40208DE8310069466A
:1024E0005846FEF7B9FB07B0BDE8F08F3038024020
:1024F00000100240000802400000024000040240B8
:10250000000C02400D4810B50B4901600C494160B8
:1025100000214FF480428160C0E903124161816172
:10252000C1610162FEF79CFC002803D0BDE81040A9
:10253000FEF7CBB810BD000000540040740300202B
:10254000A0860100074910B5054808600846FFF756
:102550000BF9002803D0BDE81040FEF7B6B810BD57
:1025600000080650C80300200F4810B50D4901604F
:102570004FF48271416000218160C1604FF480227C
:102580000161C0E90512C1610162416281620A21F3
:10259000C162FFF717F9002803D0BDE81040FEF72D
:1025A00094B810BD003C0040D803002010B58CB09A
:1025B00000240794089409941C2168460A94FDF7A6
:1025C0002AFF1A48184901601421C0E9011440F299
:1025D0008F11C0E903148461FFF724FA08B1FEF7F4
:1025E00074F84FF48050079007A91048FFF7DEFAFF
:1025F00008B1FEF76AF80D48FFF7E5FC08B1FEF7F1
:1026000064F860200090C820CDE9010404226946E6
:1026100006480494FFF771FC08B1FEF756F803482A
:10262000FFF7CCFB0CB010BD00180040980500204F
:1026300010B596B000240F94109411941294139432
:102640001C2108A81494FDF7E6FE20216846FDF73A
:10265000E2FE2948274901600321C0E9011440F244
:10266000E731C0E9031444618461FFF7DBF908B185
:10267000FEF72BF84FF480500F900FA91E48FFF77C
:1026800095FA08B1FEF721F81B48FFF79CFC08B14A
:10269000FEF71BF8139413A917481494FFF77AF95F
:1026A00008B1FEF712F86020CDE908040220CDE958
:1026B0000A040C940D94002208A90F480E94FFF709
:1026C0001CFC08B1FEF701F800944FF40050CDE96E
:1026D0000440029401940394694607480794FFF765
:1026E0002FF908B1FDF7F1FF0348FFF767FB16B0BC
:1026F00010BD0000000001403004002010B58EB075
:1027000000240794089409940A940B941C216846A9
:102710000C94FDF780FE1F481D4901600321C0E9AC
:10272000011440F2E731C0E903148461FFF77AF93C
:1027300008B1FDF7CAFF4FF48050079007A915486C
:10274000FFF734FA08B1FDF7C0FF1248FFF73BFC72
:1027500008B1FDF7BAFF0B940BA90E480C94FFF7D4
:1027600019F908B1FDF7B1FF6020CDE9000402209E
:1027700002900422694604940648FFF7BEFB08B1A4
:10278000FDF7A3FF0348FFF719FB0EB010BD0000D3
:10279000000400407804002010B58EB00024079497
:1027A000089409940A940B941C2168460C94FDF734
:1027B00032FE1F481D4901600321C0E9011440F2A7
:1027C000E731C0E903148461FFF72CF908B1FDF784
:1027D0007CFF4FF48050079007A91548FFF7E6F9F2
:1027E00008B1FDF772FF1248FFF7EDFB08B1FDF7E6
:1027F0006CFF0B940BA90E480C94FFF7CBF808B1B3
:10280000FDF763FF6020CDE900040220029008225A
:10281000694604940648FFF770FB08B1FDF755FFC1
:102820000348FFF7CBFA0EB010BD000000080040CF
:10283000C004002010B58EB00024079408940994B9
:102840000A940B941C2168460C94FDF7E4FD1F4884
:102850001D4901600321C0E9011440F2E731C0E9DC
:1028600003148461FFF7DEF808B1FDF72EFF4FF483
:102870008050079007A91548FFF798F908B1FDF7B0
:1028800024FF1248FFF79FFB08B1FDF71EFF0B94D2
:102890000BA90E480C94FFF77DF808B1FDF715FF62
:1028A0006020CDE9000402200290002269460494D1
:1028B0000648FFF722FB08B1FDF707FF0348FFF7C3
:1028C0007DFA0EB010BD0000000C0040080500208D
:1028D00010B58CB000240794089409941C21684614
:1028E0000A94FDF798FD1A48184901600321C0E9D0
:1028F000011440F2E731C0E903148461FFF792F854
:1029000008B1FDF7E2FE4FF48050079007A9104888
:10291000FFF74CF908B1FDF7D8FE0D48FFF753FB60
:1029200008B1FDF7D2FE6020CDE90004022002903C
:102930000422694604940648FFF7DFFA08B1FDF760
:10294000C4FE0348FFF73AFA0CB010BD0040014046
:10295000500500200C4810B50A4901604FF4E131E0
:102960004160002181600C22C160C0E904128161D4
:10297000C161FFF764FB002803D0BDE81040FDF7FC
:10298000A4BE10BD00500040E00500200C4810B56A
:102990000A4901604FF4E1314160002181600C225D
:1029A000C160C0E904128161C161FFF748FB0028E2
:1029B00003D0BDE81040FDF788BE10BD00100140F7
:1029C000280600200E4810B50C4901600D494160F1
:1029D0004FF4805181604900C160C9100161042138
:1029E000416100218161C161FFF729FB002803D00B
:1029F000BDE81040FDF769BE10BD00000044004076
:102A000070060020A0860100FEE7FEE770B50546CF
:102A10002DED028B00249FED0C8A00BF05EB4406D0
:102A2000F0EE480AF08C00EE100A05EBC4003430DA
:102A3000B8EE400AFDF74BFE641CE4B27083042C30
:102A4000ECD3BDEC028B70BD0AD7233D10B5044614
:102A5000014619221D48FFF7EBFB18B1002084F84E
:102A6000540010BD012084F85400B4F80100C0F3F4
:102A70000A00E084A078C108E07841EA4011C1F37F
:102A80000A0121852179800940EA8101607941EAC2
:102A90008021C1F30A0161854108A07941EAC01192
:102AA000C1F30A01A1850109E07941EA0011C1F3EE
:102AB0000A01E185217AC00940EA4100617A40EAD1
:102AC0004120C0F30A00208610BD000070060020DF
:102AD00010B50446FFF7BAFF9FED060A002100BFBC
:102AE00004EBC100491CC9B280ED0D0A0429F7D3DB
:102AF00010BD000000007A440648FFF7E9FF0548D2
:102B0000FFF7A4FF0348FFF781FF012000F08EFBD1
:102B1000F5E700006007002010B5502080F3118811
:102B2000BFF34F8FBFF36F8F00F0E2FF18B104497E
:102B30004FF080500860002080F3118810BD000025
:102B400004ED00E030B593B030216846FDF763FC3A
:102B500014210CA8FDF75FFC1C480025016841F01A
:102B600080510160006800F08050119018480168A1
:102B700041F4804101600068022400F4804011901B
:102B800001200090000401908001CDE9064006205C
:102B90000890A820CDE9090407200B906846FEF7AD
:102BA0002DFC08B172B6FEE70CA90F2081E83100B8
:102BB0004FF4A0500F90109005210CA8FEF712FBC7
:102BC000002801D072B6FEE713B030BD4038024095
:102BD000007000400248016841F4700101607047D4
:102BE00088ED00E00148FFF750B80000180700200A
:102BF000F0B50268274B284D284E294F294C4FF03D
:102C0000804C984209D0604507D0A84205D0B04218
:102C100003D0B84201D0A04204D122F0700E4A681D
:102C200042EA0E0298421BD0604519D0A84217D044
:102C3000B04215D0B84213D0A04211D01A4DA842CC
:102C40000ED01A4DA8420BD0194DA84208D0194DEC
:102C5000A84205D0184DA84202D0184DA84203D171
:102C600022F44075CA682A434D6922F080022A4343
:102C70008D68C5620D688562984201D0A04201D17D
:102C800009690163016841F00401016001214161AA
:102C90000260F0BD00000140000400400008004058
:102CA000000C00400004014000400140004401408D
:102CB0000048014000180040001C00400020004077
:102CC00010B5846842EA032224F47F440A43224375
:102CD000826010BD826822F070020A4342F0070150
:102CE00081607047F0B5036A026A22F00102026255
:102CF00042688469124E24F073050C682C4323F05B
:102D000002058B682B430D4DA84201D0B04205D17E
:102D100023F00807CB683B4323F00403A84201D00B
:102D2000B04205D14D6922F4407215438A692A43A5
:102D300042608461496841630362F0BD0000014064
:102D400000040140F0B5026A036A23F01003036235
:102D5000436884690D6824F4E64444EA05248D68D8
:102D600022F0200242EA05120F4D104EA84201D077
:102D7000B04206D1CF6822F0800242EA071222F068
:102D80004002A84201D0B04207D14D6923F440630C
:102D900043EA85038D6943EA85034360846149689A
:102DA00081630262F0BD00000000014000040140A8
:102DB000F0B5026A036A23F4807303624368C4694E
:102DC00022F4007224F073050C68124E2C438D68B7
:102DD00042EA05220E4DA84201D0B04206D1CF688A
:102DE00022F4006242EA072222F48062A84201D063
:102DF000B04207D14D6923F4405343EA05138D696E
:102E000043EA05134360C4614968C1630262F0BDCF
:102E1000000001400004014030B5046A026A22F457
:102E2000805202624268C3690D6823F4E64343EAB4
:102E300005238D6824F4005444EA0534084DA84263
:102E400002D0084DA84204D14D6922F4804242EAE2
:102E500085124260C36149680164046230BD0000AC
:102E6000000001400004014010B5036A046A24F028
:102E700001040462846924F0F00444EA021423F09B
:102E80000A020A438461026210BD10B5036A046A33
:102E900024F010040462846923F0A00324F4704435
:102EA00044EA023243EA01118261016210BD01204D
:102EB00000F0BCF9FBE770B5846B2068406994F8BA
:102EC0004110C0F3C0100025212904D118B1E584B8
:102ED000204600F08EF82068406994F84210C0F354
:102EE0008010222904D118B1E585204600F05AF857
:102EF000606C40F0100060642046FFF79FF870BDE2
:102F000010B50146806B096809684FF00002C905D9
:102F10002ED4C28501680C3151E8003F23F4807340
:102F200041E80034002CF5D10168143151E8003F2C
:102F300023F0010341E80034002CF5D1016814317D
:102F400051E8003F23F0400341E80034002CF5D164
:102F5000202180F84210016B012909D101680C3150
:102F600051E8003F23F0100341E80034002CF5D174
:102F70004263016B012902D0FFF768F910BD818D12
:102F8000FFF75BF810BD10B5806B01214163016B49
:102F9000012902D0FFF75BF910BD818D4908FFF7C9
:102FA0004CF810BD01680C3151E8002F22F49072EA
:102FB00041E80023002BF5D10168143151E8002FBE
:102FC00022F0010241E80023002BF5D1016B012919
:102FD00009D101680C3151E8002F22F0100241E8BC
:102FE0000023002BF5D1202180F84210002101633D
:102FF000704701680C3151E8002F22F0C00241E80F
:103000000023002BF5D1202180F8411070470000EB
:1030100070B5044600680169E26821F4405111432B
:1030200001612169A068E2690843616911430843AD
:103030002168CA6849F20C639A430243CA60206857
:103040004169A26921F4407111434161314920680D
:10305000884202D03049884202D1FEF78DF901E062
:10306000FEF77AF9E2690023192164253226B2F5C8
:10307000004F626828D0A0FB0101930F9200FDF77A
:1030800053F90146B0FBF5F06FF01802504301EB25
:10309000800006EB0010B0FBF5F000F0F002B1FB91
:1030A000F5F002EB0012B1FBF5F06FF01803584396
:1030B00001EB800006EB0010B0FBF5F000F00F0014
:1030C00021681044886070BDA0FB010192185B412B
:1030D000FDF72AF90146B0FBF5F00201B1FBF5F06E
:1030E0006FF01803584301EB800006EBC000B0FB03
:1030F000F5F000F0F80002EB4002B1FBF5F05843A8
:1031000001EB800006EBC000B0FBF5F000F007001B
:10311000D6E70000001001400014014038B581627C
:1031200004468285002013466064222284F84220EF
:10313000E56B1F4AEA63E56B1E4A2A64E56B1E4A8B
:10314000EA64E26B10650A462168E06B091DFDF731
:103150004BFD30B110206064202084F84200012033
:1031600038BD2068016840680090206948B1206837
:103170000C3050E8001F41F4807140E80012002A32
:10318000F5D12068143050E8001F41F0010140E8FB
:103190000012002AF5D12068143050E8001F41F0D9
:1031A000400140E80012002AF5D1002038BD00009F
:1031B000012F0008872F0008B72E0008FEE7090737
:1031C000090E002804DB00F1E02080F800147047AD
:1031D00000F00F0000F1E02080F8141D7047FDF7AB
:1031E0003FFFFFF7AFFCFFF7D3F8FFF787F8FFF7D4
:1031F00031F8FFF71DFAFFF781FAFFF7CDFAFFF775
:1032000019FBFFF765FBFFF7D1F9FFF77BF9FFF734
:1032100099F9FFF7A9F9FFF79DFBFFF7B7FBFFF758
:10322000D1FBFFF791F800F008F8FEE710B500B900
:10323000012000F0F9FA002010BD10B500F01AFBD3
:10324000002010BD2DE9F041184C0F460546E668F8
:103250002068001D00F020FA38B9206890F82C1082
:1032600001208840216981432161681C07D137B161
:103270002168BDE8F0410E48091D00F051BA2068F0
:103280003544B5424560216805D2A06BBDE8F041E8
:10329000091D00F02DBA606B091D00F029FAA06A23
:1032A000854200D2A562BDE8F08100001000002038
:1032B000940800202DE9F041054600F03DFA2E4C1F
:1032C000A068401CA06020682C4F10B1606940B31A
:1032D0002DE02560A068012829D1002606EB860094
:1032E00007EB800000F0F6F9761C072EF6D3234892
:1032F0008C3000F0EFF92148A03000F0EBF91F48C6
:10330000B43000F0E7F91D48C83000F0E3F91B487D
:10331000DC3000F0DFF919488C3060631430A063B2
:1033200005E02068E96AC06A884200D82560606AC2
:10333000401C6062E96A01202269884010432061D4
:1033400001EB810007EB8000291D00F0E9F900F096
:1033500013FA606900280CD02068E96AC06A8842C4
:1033600007D207494FF080500860BFF34F8FBFF37B
:103370006F8FBDE8F081000010000020B80700202A
:1033800004ED00E010B5044690F8510058B1012852
:103390000CD002280FD0502080F31188BFF34F8F3C
:1033A000BFF36F8FFEE7206B00F0FAF92046BDE80F
:1033B000104000F0F5B910BD10484FF470514207AD
:1033C00006D0C01D0D4920F00700411AC1F570510B
:1033D0000B4A00230144C2E900030839183A21F0DE
:1033E000070111604B600B600B1AC0E9001393607A
:1033F0004FF000405360506170470000A808002063
:1034000064000020144E154CA6F1C8074FF08058F8
:10341000DFF84C9012E000BF00F08EF9F068C5684C
:10342000281D00F039F9A068401EA0606068401EA9
:10343000606000F0A1F92846FFF7A4FF606800284B
:10344000EAD138680128F9D9C9F80080BFF34F8F55
:10345000BFF36F8FF2E7000080080020100000200B
:1034600004ED00E02DE9F0479A46DDE90984814644
:103470006FF00303206B03EB82021044089E20F0E0
:103480000707780707D0502080F31188BFF34F8FCC
:10349000BFF36F8FFEE7002561B1002023180A5C9F
:1034A00083F834200A5C12B1401C1028F6D384F84B
:1034B000435001E084F83450072E00D30626E6621C
:1034C000C4E91165201D00F010F904F1180000F0A6
:1034D0000CF92461C6F107006462A061E56484F818
:1034E000505052464946384600F0C0F82060B8F1C6
:1034F000000F01D0C8F80040BDE8F08730B5114991
:1035000000E011460A688242FBD34B685C18844293
:1035100003D1406818444860084643681C18944228
:1035200009D1084C183C2468A24209D052681A44B8
:1035300042600A6812680260814200D0086030BDB3
:103540000460F9E7640000200648416B096829B16E
:10355000416BC968C9684968816270474FF0FF31A3
:10356000FAE700001000002008484068401C4FF0B7
:10357000500080F3118804D0BFF34F8FBFF36F8FDB
:10358000FEE7BFF34F8FBFF36F8FFEE76C000020A5
:103590002DE9F0410546002700F0A2F9324E3068CF
:1035A00008B9FFF709FF706905424ED1C5B3083568
:1035B00068070ED005F00700C0F108000544680751
:1035C00007D0502080F31188BFF34F8FBFF36F8F68
:1035D000FEE72DB37068854237D82348183001467E
:1035E0000C6801E020460C466168A94202D22168BD
:1035F0000029F7D131688C4227D007682168016023
:1036000060680837411B10290FD96019420708D09C
:10361000502080F31188BFF34F8FBFF36F8FFEE709
:1036200013E041606560FFF769FF61687068401AE8
:103630007060B268904200D2B060706901430020AF
:10364000C4E90001F068401CF06000F0B7FA7807A8
:1036500007D0502080F31188BFF34F8FBFF36F8FD7
:10366000FEE73846BDE8F0814C00002010B5031F8E
:103670004FF080741C601B1F21F001011960191F9D
:10368000044B0B6014390A60091F6FF002024438C2
:103690000A6010BD69350008D0E9013201699A60FD
:1036A000D0E901235A604A68824201D182684A60A7
:1036B000002202610868401E086008687047000028
:1036C000034B036003F154000860802010607047D2
:1036D0007800002000F108014FF0FF32C0E901122C
:1036E000C1600161002101607047002101617047E4
:1036F00030B50B685A1C02D000F1080202E00269E2
:1037000004E02246546825689D42FAD953684B600C
:1037100099608A60516008610168491C016030BD90
:1037200042684A6093688B60936859609160086151
:103730000168491C01607047502080F31188BFF375
:103740004F8FBFF36F8F0A494868401C48600128BB
:103750000CD10848006810F0FF0F07D0502080F30C
:103760001188BFF34F8FBFF36F8FFEE770470000E4
:103770006C00002004ED00E00849486828B1401EB4
:10378000486001D180F311887047502080F3118880
:10379000BFF34F8FBFF36F8FFEE700006C00002078
:1037A00070B500282AD0164DA0F108046068696938
:1037B000084207D1502080F31188BFF34F8FBFF329
:1037C0006F8FFEE722683AB1502080F31188BFF373
:1037D0004F8FBFF36F8FFEE78843606000F080F883
:1037E00060686968084468602046FFF787FE2869BA
:1037F000401C2861BDE8704000F0E0B970BD0000D9
:103800004C0000204FF0E02000210161816105495A
:103810004FF47A720968B1FBF2F1491E4161072148
:10382000016170470C00002010B5020014D00F4851
:10383000006B38B1502080F31188BFF34F8FBFF376
:103840006F8FFEE700F04CF800211046FFF7FAFCFE
:1038500000F0B4F9002807D105494FF08050086006
:10386000BFF34F8FBFF36F8F10BD0000100000201B
:1038700004ED00E010B586B00024039405AA04A965
:1038800003A80494FFF71CFFDDE903010094CDE9D0
:10389000011000230EA11048059A00F0FEF80F4910
:1038A0000028C86211D0502080F31188BFF34F8FD9
:1038B000BFF36F8F4FF0FF30886201204861CC600A
:1038C00006B0BDE8104000F041B806B010BD0000E1
:1038D00049444C4500000000053400081000002059
:1038E0000248016B491C0163704700001000002072
:1038F0001448016B11B10121C16170470021C16100
:103900000169B1FA81F1C1F11F0101EB81020E4998
:1039100051F822306BB101EB820101F108034A68D2
:1039200052684A609A4201D152684A60D168016087
:103930007047502080F31188BFF34F8FBFF36F8F14
:10394000FEE7000010000020B80700201CB5374833
:103950000168374A914207D1502080F31188BFF3A4
:103960004F8FBFF36F8FFEE700683149491E8842D1
:1039700007D1502080F31188BFF34F8FBFF36F8FB3
:10398000FEE72C4908780190FF20087008788DF830
:1039900000009DF800009DF8002000F0F00090422B
:1039A00007D0502080F31188BFF34F8FBFF36F8F84
:1039B000FEE79DF80000204C00F05000207007202A
:1039C000A06005E09DF8002052008DF80020401E08
:1039D0009DF800201206F5D4A060032807D05020DF
:1039E00080F31188BFF34F8FBFF36F8FFEE74FF463
:1039F0004070A060019808700C482030016841F4C4
:103A000070010160016841F070410160FFF7FAFE4A
:103A100000206060FCF72CFC0848016841F0404140
:103A20000160FCF711FC00201CBD000000ED00E06F
:103A300071C20F4100E400E06C00002034EF00E0B0
:103A40002DE9FF5F8346DDE90E87994616468A46D3
:103A50009000FFF79DFD05001CD05420FFF798FD56
:103A6000040014D00020256384F85100CDE9024001
:103A7000CDE900874B46324651465846FFF7F2FCE7
:103A80002046FFF717FC012004B0BDE8F09F284650
:103A9000FFF786FE4FF0FF30F6E7F0B585B0DDE9C1
:103AA0000B640A9DA6B1DCB1542700972663022659
:103AB00084F85160002604AFCDE90246CDE90057F5
:103AC000FFF7D0FC2046FFF7F5FB049805B0F0BDEA
:103AD000502080F31188BFF34F8FBFF36F8FFEE745
:103AE000502080F31188BFF34F8FBFF36F8FFEE735
:103AF0002DE9F0412F4C0026206B28B1A069401C15
:103B0000A0613046BDE8F081E5686D1CE56013D129
:103B1000606B006838B1502080F31188BFF34F8F7D
:103B2000BFF36F8FFEE7606BA16B6163A063206AD8
:103B3000401C2062FFF708FDA06ADFF87C80854208
:103B400009D3606B0068A0B1606BC068C768786813
:103B5000854211D2A0622068C06A00EB800158F84B
:103B60002100012800D90126E0690028C9D00126DA
:103B7000C7E74FF0FF30EDE7381DFFF78DFDB86A5E
:103B800018B107F11800FFF787FDF96A01202269D3
:103B900088401043206101EB810108EB8100391D51
:103BA000FFF7BEFDF86A2168C96A8842C9D30126B9
:103BB000C7E7000010000020B80700202DE9F047FB
:103BC0002C4D00242746286B38B1FFF7B5FD286B34
:103BD000401E2863286B40B146E0502080F31188D6
:103BE000BFF34F8FBFF36F8FFEE7A968224E01200E
:103BF000D1B3A6F1B40980463068E8B1F068C46872
:103C000004F11800FFF748FD201DFFF745FDE06AAD
:103C10002A6908FA00F11143296100EB800109EBE0
:103C20008100211DFFF77CFDE06A2968C96A88428E
:103C3000E2D3C5F81C80DFE70CB1FFF785FCAC6967
:103C400044B14646FFF754FF00B1EE61641EF9D15E
:103C50000020A861E86938B10849012738070860E1
:103C6000BFF34F8FBFF36F8FFFF786FD3846BDE878
:103C7000F0870000100000206C08002004ED00E038
:103C80004FF04070E1EE100A704700061016000673
:103C900010160000000000000000010203040607E7
:103CA000080900000000010203040000CC3C0008E9
:103CB0000000002078000000C4010008443D000816
:103CC00078000020904A0000E00100080100000098
:103CD00010000000000000000024F40000000000BC
:103CE00000000000000000000000000000000000D4
:103CF00000000000000000000000000000000000C4
:103D000000000000000000000000000000000000B3
:103D100000000000000000000000000000000000A3
:103D20000000000000000000000000000000000093
:103D3000000000000000000000000000AAAAAAAADB
:043D4000000000007F
:040000050800018965
:00000001FF
