:020000040800F2
:10000000304B0020E9020008F13B00086D33000886
:10001000ED3B0008690A00089D460008000000004A
:10002000000000000000000000000000290200089D
:10003000970B000800000000850200080D3D000835
:100040000303000803030008030300080303000878
:100050000303000803030008030300080303000868
:100060000303000803030008030300080303000858
:100070000303000803030008030300080303000848
:100080006D0A0008030300080303000803030008C7
:100090000303000803030008030300080303000828
:1000A0000303000803030008030300080303000818
:1000B0000303000803030008030300080303000808
:1000C00003030008030300080303000803030008F8
:1000D00003030008030300080303000803030008E8
:1000E000030300080303000803030008153E00088B
:1000F00003030008030300080303000803030008C8
:1001000003030008030300080303000803030008B7
:100110000303000803030008053E0008030300086A
:100120007D0A000803030008030300080303000816
:100130000303000803030008030300080303000887
:100140000303000803030008030300080303000877
:100150000303000803030008030300080303000867
:100160000303000803030008030300080303000857
:100170000303000803030008030300080000000055
:100180005D3300080303000800F002F800F03CF8BB
:100190000AA090E8000C82448344AAF10107DA45E2
:1001A00001D100F031F8AFF2090EBAE80F0013F0F8
:1001B000010F18BFFB1A43F001031847C05C000091
:1001C000E05C0000103A24BF78C878C1FAD8520722
:1001D00024BF30C830C144BF04680C6070470000C1
:1001E0000023002400250026103A28BF78C1FBD840
:1001F000520728BF30C148BF0B6070471FB505F0DC
:1002000013FE1FBD10B510BD00F0A6F91146FFF793
:10021000F5FF04F061FA00F0C4F903B4FFF7F2FF50
:1002200003BC00F0CBF900002C4B19680868B0E85B
:10023000F04F80F30988BFF36F8F4FF0000080F319
:10024000118870470000000008480068006880F3CB
:1002500008884FF0000080F3148862B661B6BFF3DF
:100260004F8FBFF36F8F00DF00BF00BF08ED00E0CE
:10027000DFF80C00016841F470010160704700BFB5
:1002800088ED00E0EFF30980BFF36F8F134B1A681E
:100290001EF0100F08BF20ED108A20E9F04F10600B
:1002A00009B44FF0500080F31188BFF34F8FBFF3B4
:1002B0006F8F05F001F84FF0000080F3118809BC42
:1002C00019680868B0E8F04F1EF0100F08BFB0ECD6
:1002D000108A80F30988BFF36F8F704740000020B9
:1002E000EFF3058070470000094880470948004740
:1002F000FEE7FEE7FEE7FEE7FEE7FEE7FEE7FEE7D6
:10030000FEE7FEE704480549054A064B7047000032
:10031000F13D00088901000830450020304B0020E5
:10032000304700203047002053EA020C00F069807B
:100330002DE9F04B4FF00006002B1FBFB3FA83F5F9
:1003400003FA05F424FA05F65E4012BF1643B2FA2A
:1003500082F502FA05F4C5F120051EBF22FA05FC5C
:1003600044EA0C04203556EA044C4FEA144418BF02
:10037000641C4FF000084FF00009904271EB030C31
:1003800039D3002919BFB1FA81F701FA07F6B0FA9B
:1003900080F700FA07F6C7F120071EBF20FA07FC16
:1003A00046EA0C062037B6FBF4FCA7EB0507103F26
:1003B00007F01F0BCBF120060CFA0BFB2CFA06F60C
:1003C00044BFB3460026202FA4BF5E464FF0000B6B
:1003D0005BEA060C08BF4FF0010B19EB0B09ABFBF6
:1003E000027C48EB0608C01B06FB02CC0BFB03CCCF
:1003F00071EB0C01C1E70B46024641464846BDE899
:10040000F08B13B54FF000004FF00001AFF3008008
:10041000BDE81C407047032A40F2308010F0030C06
:1004200000F0158011F8013BBCF1020F624498BF47
:1004300011F801CB00F8013B38BF11F8013BA2F1E4
:10044000040298BF00F801CB38BF00F8013B11F05F
:10045000030300F02580083AC0F0088051F8043BFF
:10046000083A51F804CBA0E80810F5E7121D5CBF6C
:1004700051F8043B40F8043BAFF30080D20724BF9F
:1004800011F8013B11F801CB48BF11F8012B24BF33
:1004900000F8013B00F801CB48BF00F8012B704782
:1004A00010B5203AC0F00B80B1E81850203AA0E80F
:1004B0001850B1E81850A0E81850BFF4F5AF5FEA43
:1004C000027C24BFB1E81850A0E8185044BF18C9F6
:1004D00018C0BDE810405FEA827C24BF51F8043B9D
:1004E00040F8043B08BF7047D20728BF31F8023BF1
:1004F00048BF11F8012B28BF20F8023B48BF00F885
:10050000012B70474FF0000200B513469446964603
:10051000203922BFA0E80C50A0E80C50B1F1200116
:10052000BFF4F7AF090728BFA0E80C5048BF0CC0C4
:100530005DF804EB890028BF40F8042B08BF704722
:1005400048BF20F8022B11F0804F18BF00F8012B94
:100550007047704770477047754600F02BF8AE46FD
:1005600005006946534620F00700854618B020B5BF
:10057000FFF7C8FEBDE820404FF000064FF000072F
:100580004FF000084FF0000B21F00701AC46ACE83B
:10059000C009ACE8C009ACE8C009ACE8C0098D46A8
:1005A000704710B50446AFF300802046BDE8104008
:1005B000FFF733BE00487047CC44002001491820A3
:1005C000ABBEFEE726000200704770B50546AC6B77
:1005D000206C00F0500050BB206C40F40070206490
:1005E0002068806800F04050E8B9207ED8B92068C3
:1005F000C06A00F4700020B12068806800F4806058
:1006000088B92068406820F0200021684860206C8C
:1006100020F480702064206C00F4805018B9206CA5
:1006200040F001002064204600F0C6FB0BE0206C87
:1006300000F0100018B1204600F0C0FB03E0A06BF2
:10064000C16C2846884770BD70B50546AC6B40202C
:100650002064606C40F004006064204600F0AEFB53
:1006600070BD70B50446A56B284600F0A6FB70BDB2
:1006700055494A6822F440324A604A6843681A433E
:100680004A600268526822F4807203685A60026805
:100690005368026943EA022203685A60026852689A
:1006A00022F0407203685A600268526883681A43F5
:1006B00003685A600268926822F4006203689A60D4
:1006C00002689268C3681A4303689A603F4B826A63
:1006D0009A4218D00268926822F0706203689A60A9
:1006E00002689268836A1A4303689A600268926893
:1006F00022F0405203689A6002689268C36A1A4303
:1007000003689A600BE00268926822F070620368E6
:100710009A600268926822F0405203689A60026808
:10072000926822F0020203689A6002689368027E6F
:1007300043EA420203689A602022125CA2B1026876
:10074000526842F4006203685A600268526822F4F8
:10075000604203685A6002685368426A521E43EA64
:10076000423203685A6005E00268526822F400626F
:1007700003685A600268D26A22F470020368DA627F
:100780000268D36A828B521E43EA02520368DA621D
:100790000268926822F4007203689A6002689368A3
:1007A00090F8302043EA422203689A600268926817
:1007B00022F4806203689A6002689368426943EA9F
:1007C000822203689A607047002301400100000FF5
:1007D00010B50446002020732070A071A074227B05
:1007E0000121094800F070FF22780221074800F03B
:1007F0006BFFA2792021064800F066FFA27C102141
:10080000044800F061FF10BD0004024000080240EF
:10081000001002400000024010B504460120207381
:100820002070A071A074227B2021144800F04CFF9E
:1008300022780121124800F047FFA27902211148D5
:1008400000F042FFA27C10210F4800F03DFF002184
:10085000E181002060802181A182E0890B49096843
:10086000886360880A4909684863208909490968DA
:100870004863A08A08490968886310BD00100240D7
:1008800000040240000802400000024080050020F1
:100890006004002038050020A804002010B504469C
:1008A0004FF0FF3208490948006804F04DFF012865
:1008B00009D10548018821824088A08002488188AA
:1008C000E182C188618110BD200000201400002059
:1008D00010B508220549064800F03EFB00235A1EC9
:1008E00002490448006804F05BFE10BD18000020B7
:1008F000FC0200201400002070B504460E46154688
:10090000B5F57A7F24DC66B1012E10D0022E02D01C
:10091000032E18D111E0E581E0890F490968886349
:1009200015E0658060880D49096848630FE02581FE
:1009300020890B490968486309E0A582A08A094912
:100940000968886303E02046FFF742FF00BF02E02A
:100950002046FFF73DFF70BD8005002060040020A9
:1009600038050020A804002010B504465CB1012C15
:100970000ED0022C02D0032C14D10EE00421134817
:1009800002F09AFA1FE00021114802F095FA1AE0ED
:100990000021104802F090FA15E004210E4802F000
:1009A0008BFA10E00421094802F00CFB00210848F2
:1009B00002F008FB0021074802F004FB042106486E
:1009C00002F000FB00BF00BF10BD0000800500204A
:1009D0006004002038050020A804002010B504465B
:1009E0005CB1012C0ED0022C02D0032C14D10EE0ED
:1009F0000421134802F0E6FA1FE00021114802F03A
:100A0000E1FA1AE00021104802F0DCFA15E00421B6
:100A10000E4802F0D7FA10E00421094802F0D2FA99
:100A20000021084802F0CEFA0021074802F0CAFA75
:100A30000421064802F0C6FA00BF00BF10BD000046
:100A4000800500206004002038050020A804002054
:100A500010B500220221042004F028FD014908609D
:100A600010BD00001400002000BFFEE710B50248D2
:100A700000F050FB10BD0000E806002010B5024851
:100A800000F048FB10BD0000440300200146087838
:100A900010381823B0FBF3F20848805CC865032ABD
:100AA00005D908686FF30900001D886503E0086830
:100AB0006FF309008865886D70470000505E00087C
:100AC000014600208A6A8B69CBB932B1012A0DD068
:100AD000022A03D0032A10D10EE000BFCB6A03F034
:100AE0008073B3F1807F00D1012007E0CB6AB3F1BE
:100AF000C07F00D1012001E000E000BF34E08B693D
:100B0000B3F5005F1AD132B1012A07D0022A03D00F
:100B1000032A11D10AE000BF01200EE0CB6A03F0E6
:100B20008073B3F1807F00D1012006E0CB6AB3F17E
:100B3000C07F00D1012000E000BF15E032B1012AE2
:100B400005D0022A04D0032A0CD103E000BF00BF65
:100B5000012008E0CB6A03F08073B3F1807F00D1FD
:100B6000012000E000BF00BF704730B50468246872
:100B700024F4802405682C60046863608468402C39
:100B800004D10468A2600468E16003E00468A16025
:100B90000468E26030BD704772B600BFFEE7000037
:100BA0000246124B1B88D01A002801DB034600E0E6
:100BB00043429BB28B4204DD0C4800880C4B1880EA
:100BC0000CE00A4B1B88D01A002801DB034600E02A
:100BD00043429BB28B4201DC0548028004480088F6
:100BE000024B188002480088704700003C0000203B
:100BF0003E000020014601EE101AB8EE411A20EE28
:100C0000011AF7EE001A71EEC01A074890ED002A9B
:100C100001EE821AF0EE410AC0ED000ABCEEE01AC5
:100C200011EE100A80B270473800002038B5024635
:100C30000020009000BF92F83C00012801D1022062
:100C400038BD012082F83C0000BF0868092816D989
:100C50001068C0680C780A3C04EB44050724AC40DB
:100C6000A0431468E0600C780A3C04EB44048868F4
:100C7000A0401468E46820431468E06013E0106842
:100C800000690C7804EB44050724AC40A0431468C9
:100C900020610C7804EB44048868A040146824693F
:100CA0002043146820614868072817D21068406BF9
:100CB0000C79641E04EB84051F24AC40A043146827
:100CC0006063088880B20C79641E04EB8404A04041
:100CD0001468646B20431468606331E048680D2831
:100CE00017D21068006B0C79E41F04EB84051F24F5
:100CF000AC40A04314682063088880B20C79E41FDC
:100D000004EB8404A0401468246B2043146820631F
:100D100016E01068C06A0C790D3C04EB84051F24B2
:100D2000AC40A0431468E062088880B20C790D3CA6
:100D300004EB8404A0401468E46A20431468E06271
:100D4000194B1A4C1068A04206D10868122803D12A
:100D5000586840F480005860144C1068A0421CD1C0
:100D60000868102802D00868112816D1586840F485
:100D700000005860086810280FD10D4800680D4C1D
:100D8000B0FBF4F000EB80004000009002E000981F
:100D9000401E009000980028F9D100BF002082F882
:100DA0003C0000BF00BF4BE7002301400020014092
:100DB0001000002040420F0070477047704700004D
:100DC00070B5044600250CB9012070BD1549A06A14
:100DD000884200D000BF206C30B9204600F024F8D3
:100DE0000020606484F83C00206C00F0100088B99A
:100DF000206C20F4885040F0020020642046FFF769
:100E000037FC00206064206C20F0020040F00100FC
:100E1000206400E0012500BF002084F83C0000BFF2
:100E20002846D2E70100000F10B586B00446142111
:100E300001A8FFF767FB4149206888427CD100BFC9
:100E4000002000903E48006840F480703C490860F3
:100E50000846006800F48070009000BF00BF00BF2B
:100E60000020009036481438006840F004003449EF
:100E7000143908600846006800F00400009000BFC4
:100E800000BF00BF002000900846006840F001004D
:100E900008600846006800F00100009000BF00BF35
:100EA00000BF002000900846006840F00200086083
:100EB0000846006800F00200009000BF00BF092053
:100EC0000190032002900020039001A91D4800F02A
:100ED00001FB40200190032002900020039001A913
:100EE000194800F0F7FA0220019003200290002038
:100EF000039001A9154800F0EDFA1548154908605E
:100F000000204860002113488160C1604FF4806177
:100F1000016149004161890081614911C16100217C
:100F20000162416200F016FA08B1FFF735FE00BF1A
:100F30000848A063846300BF06B010BD00200140D4
:100F40004438024000080240000002400004024011
:100F500010640240440300202DE9F84304460D4686
:100F6000164600200090804600BF94F83C000128FF
:100F700002D10220BDE8F883012084F83C0000BFC4
:100F80002068806800F00100A0B92068806840F007
:100F9000010021688860564800685649B0FBF1F0AE
:100FA00000EB4000009002E00098401E0090009886
:100FB0000028F9D12068806800F48070B0F5807F47
:100FC00005D12068806820F48070216888602068DE
:100FD000806800F0010000287FD0206C40F20161A1
:100FE000884340F4807020642068406800F480608A
:100FF00028B1206C20F4005040F480502064206C14
:1010000000F48050B0F5805F04D1606C20F00600E1
:10101000606401E00020606400BF002084F83C00B0
:1010200000BF354F3548A16BC8633548A16B0864D4
:101030003448A16BC8646FF0220021680860206802
:10104000406840F08060216848602068806840F413
:10105000807021688860226802F14C0133462A467C
:10106000A06B00F0EDF98046786800F01F0018BB17
:1010700025492068884213D024492068884204D139
:10108000381D006800F01F0050B1214920688842D7
:101090002BD11948001D006800F01F00102824D231
:1010A0002068806800F04050F8B92068806840F0FF
:1010B00080402168886018E013492068884214D174
:1010C0002068806800F0405078B92068806840F05F
:1010D00080402168886008E0FFE7206C40F0100045
:1010E0002064606C40F001006064404642E700000C
:1010F0001000002040420F0000230140CB050008F3
:101100006306000849060008002001400021014054
:1011100000220140F8B50446002000908C48006889
:101120004FF41651B0FBF1F7A56D2E6894F85C10E2
:1011300008208840304098B12068006800F0040022
:1011400070B12068006820F004002168086094F8FD
:101150005C1008208840A860606D40F00100606568
:1011600094F85C1001208840304068B120684069E4
:1011700000F0800040B194F85C1001208840A86025
:10118000606D40F00200606594F85C1004208840B7
:10119000304068B12068006800F0020040B194F867
:1011A0005C1004208840A860606D40F00400606519
:1011B00094F85C1010208840304078B320680068B4
:1011C00000F0080050B394F85C1010208840A8602C
:1011D0002068006800F4802080B12068006800F476
:1011E000002028B9206CC8B12046216C884715E042
:1011F000A06C98B12046A16C88470FE02068006879
:1012000000F4807028B92068006820F00800216888
:101210000860206C10B12046216C884794F85C105F
:10122000202088403040002865D02068006800F009
:10123000100000285FD094F85C1020208840A8603F
:1012400094F83500052828D12068006820F01600A1
:10125000216808602068406920F0800021684861AA
:10126000206C08B9A06C28B12068006820F0080044
:101270002168086094F85C103F208840A860012035
:1012800084F8350000BF002084F8340000BF206DD2
:1012900010B12046216D8847F8BD2068006800F431
:1012A000802080B12068006800F4002028B9606CBC
:1012B00010B12046616C88471DE0E06BD8B1204634
:1012C000E16B884717E02068006800F4807068B917
:1012D0002068006820F0100021680860012084F870
:1012E000350000BF002084F8340000BFE06B10B16F
:1012F0002046E16B8847606D38B3606D00F00100F7
:10130000F0B1052084F835002068006820F0010065
:101310002168086000BF0098401C0090B84200D9C6
:1013200005E02068006800F001000028F3D100BF4C
:10133000012084F8350000BF002084F8340000BF8D
:10134000E06C10B12046E16C884700BFA4E70000C4
:10135000100000202DE9F0410446002500F0BAF904
:10136000074614B90120BDE8F081606A00B100BFF2
:10137000022084F8350000BF002084F8340000BF4C
:101380002068006820F00100216808600AE000F091
:10139000A1F9C01B052805D920206065032084F829
:1013A0003500E0E72068006800F001000028EED179
:1013B0002068056821480540D4E901010843E16837
:1013C00008432169084361690843A1690843E16949
:1013D0000843216A08430543606A042803D1D4E91D
:1013E0000B0108430543206805602068456925F026
:1013F0000705606A0543606A04280DD1A06A0543A9
:10140000E06A48B12046FFF75BFB28B140206065E9
:10141000012084F83500A6E7206845612046FFF7E3
:1014200035FB064694F85C103F208840B0600020F1
:101430006065012084F83500002094E73F8010F0BB
:101440002DE9F04704460D4616461F464FF00008AA
:10145000D4F8589000BF94F83400012802D102203B
:10146000BDE8F087012084F8340000BF94F835000F
:10147000012825D1022084F83500002060653B4614
:10148000324629462046FFF770FB94F85C103F2057
:101490008840C9F808002068006840F016002168FC
:1014A0000860206C28B12068006840F008002168BE
:1014B00008602068006840F001002168086006E0CC
:1014C00000BF002084F8340000BF4FF002084046FF
:1014D000C6E70000F8B502460B46002500240020B0
:1014E0000021D6E0012606FA01F51E6806EA050489
:1014F000AC4274D11E7906F00306012E04D01E7989
:1015000006F00306022E13D190684F000326BE405A
:10151000B0434F00DE68BE40304390605068012603
:101520008E40B0431E79C6F300168E4030435060A3
:101530001E7906F00306032E09D0D0684F0003265B
:10154000BE40B0434F009E68BE403043D0601E791D
:1015500006F00306022E13D1CF0802F1200656F83A
:1015600027004E07F70E0F26BE40B0434F07FF0E71
:101570001E69BE403043CF0802F1200646F827001E
:1015800010684F000326BE40B0431E7906F00306E4
:101590004F00BE40304310605E6806F44036002EB7
:1015A00076D000BF002600963C4E366846F4804652
:1015B0003A4F3E603E46366806F48046009600BFCD
:1015C00000BF374E8F0856F827008E07370F0F26BB
:1015D000BE40B043334EB24202D1002624E057E071
:1015E000314EB24201D101261EE0304EB24201D14D
:1015F000022619E02E4EB24201D1032614E02D4EF0
:10160000B24201D104260FE02B4EB24201D1052691
:101610000AE02A4EB24201D1062605E0284EB24227
:1016200001D1072600E008268F073F0FBE40304358
:101630001B4E8F0846F82700224E3068A0435E6894
:1016400006F4801606B120431E4E3060361D306809
:10165000A0435E6806F4001606B12043194E361DFD
:101660003060184E361F3068A0435E6806F40036BE
:1016700006B12043134E361F3060361F3068A0433A
:101680005E6806F4803606B120430E4E083E306098
:10169000491C1029FFF426AFF8BD00004438024071
:1016A00008380140000002400004024000080240E7
:1016B000000C0240001002400014024000180240DA
:1016C000001C0240083C01400AB1816101E00B04AA
:1016D00083617047014800687047000004000020E3
:1016E00070B504460CB9012070BD94F83D0028B9CE
:1016F000002084F83C00204600F0DAF8242084F82A
:101700003D002068006820F0010021680860206822
:10171000006840F40040216808602068006820F4F8
:1017200000402168086000F005FB05465C496068E0
:10173000884206D85B48854201D2012007E000209C
:1017400005E05948854201D2012000E0002001282F
:1017500000D1C9E75548B5FBF0F62068406820F095
:101760003F003043216848604D496068884201D895
:10177000701C07E04FF4967070434FF47A71B0FB21
:10178000F1F0401C2168096A21F03F0108432168FB
:10179000086243496068884214D8681E616849003D
:1017A000B0FBF1F0401CC0F30B00042801D2042070
:1017B0003DE0681E61684900B0FBF1F0401CC0F3D9
:1017C0000B0034E0A06838B9681E616801EB410184
:1017D000B0FBF1F0401C0AE0681E616801EBC10239
:1017E00002EB0111B0FBF1F0401C40F48040C0F36B
:1017F0000B0008B901201AE0A06848B9681E6168AA
:1018000001EB4101B0FBF1F0401CC0F30B000CE018
:10181000681E616801EBC10202EB0111B0FBF1F03F
:10182000401CC0F30B0040F4804040F400402168AD
:10183000C9694CF6FF72914308432168C861D4E935
:10184000070108432168096821F0C00108432168A5
:101850000860D4E9031008432168896848F2FF3220
:101860009143084321688860D4E905010843216851
:10187000C96821F0FF0108432168C860206800683A
:1018800040F001002168086000202064202084F8D6
:101890003D000020206384F83E0000BF24E70000E4
:1018A000A086010080841E0000093D0040420F0018
:1018B00010B586B00446142101A8FEF723FE1B498B
:1018C000206888422FD100BF00200090184800688F
:1018D00040F00200164908600846006800F0020067
:1018E000009000BF00BFC020019012200290002095
:1018F0000390032004900420059001A90D48FFF7F0
:10190000E9FD00BF0020009009481030006840F455
:1019100000100749103108600846006800F4001004
:10192000009000BF00BF06B010BD00000054004092
:101930003038024000040240034800680349097837
:101940000844014908607047040000200C00002092
:1019500010B50D48006840F400700B490860084657
:10196000006840F4806008600846006840F48070B9
:101970000860032000F0E0F80F2000F007F800F006
:101980005FF8002010BD0000003C02402DE9F0414E
:1019900088B004460027B84600BF002001902348C5
:1019A000006840F01000214908600846006800F017
:1019B0001000019000BF00BF02A903A800F092F937
:1019C000069F1FB900F0B6F9054602E000F0B2F933
:1019D00045001748B5FBF0F0A0F10108154816497D
:1019E000086040F2E7311448C160C0F8048000216B
:1019F00001618160816100F05DFE064696B90E4886
:101A000000F026FF06466EB9362000F043F8102C91
:101A100007D200222146362000F050F80748046023
:101A200000E00126304608B0BDE8F08140380240B1
:101A300040420F000010004048070020080000202E
:101A400008B500BF002000901148006840F48040B5
:101A50000F4908600846006800F48040009000BF0D
:101A600000BF00BF00200090081F006840F08050B9
:101A7000091F08600846006800F08050009000BF11
:101A800000BF00220F21901E00F018F808BD0000D2
:101A9000443802400146084600280DDB00BF00BF65
:101AA00000F01F0301229A4043099B0003F1E02349
:101AB000C3F8002100BF00BF00BF70472DE9F05FF1
:101AC00080460D461646002702F0EAFD07463946D5
:101AD0002A46334601F00700C0F1070ABAF1040FA5
:101AE00002D94FF0040A01E0C0F1070AD14600F123
:101AF000040ABAF1070F02D24FF0000A01E0A0F188
:101B0000030AD4464FF0010A0AFA09FAAAF1010AB7
:101B10000AEA020A0AFA0CFA4FF0010B0BFA0CFB64
:101B2000ABF1010B0BEA030B4AEA0B0421464046DA
:101B300002F0BEFDBDE8F09F00BF00F00702064BBB
:101B400019684FF6FF031940044B0B4343EA022187
:101B5000014B196000BF70470CED00E00000FA0572
:101B600070B504460D460CB9012070BD5848006898
:101B700000F00700A84209D255490D7008460068D8
:101B800000F00700A84201D00120EEE7207800F025
:101B9000020002281DD1207800F00400042805D19D
:101BA0004C48006840F4E0504A490860207800F052
:101BB0000800082805D14748006840F460404549BE
:101BC00008604448006820F0F000A16808434149DB
:101BD0000860207800F00100A8B36068012807D1F0
:101BE0003C4808380068C0F34040B8B90120BCE761
:101BF0006068022802D06068032807D13548083899
:101C00000068C0F3406048B90120AEE731480838A9
:101C10000068C0F3400008B90120A6E72D4800681D
:101C200020F00300616808432A490860FFF752FD6D
:101C3000064609E0FFF74EFD801B41F288318842DD
:101C400002D9032091E707E02248006800F00C0069
:101C50006168B0EB810FEDD11D48006800F007000E
:101C6000A84209D91A490D700846006800F007001B
:101C7000A84201D0012078E7207800F00400042871
:101C800007D11448006820F4E050E1680843114986
:101C90000860207800F00800082808D10D48006886
:101CA00020F46040216940EAC1000A49086000F060
:101CB00061F808490968C1F30311074A515CC8403B
:101CC0000649086006480068FFF760FE00204CE700
:101CD000003C024008380240585E00081000002016
:101CE000080000200F2202600D4A126802F0030271
:101CF00042600B4A126802F0F0028260084A1268E1
:101D000002F4E052C260064A126802F46042D2084D
:101D10000261044A126802F007020A60704700007C
:101D200008380240003C024001480068704700004B
:101D30001000002000B5FFF7F7FF04490968C1F360
:101D40008221034A515CC84000BD000008380240AF
:101D5000685E000800B5FFF7E7FF04490968C1F3B2
:101D60004231034A515CC84000BD000008380240BF
:101D7000685E00082DE9F047002400250026A146F2
:101D80002548006800F00C0020B1042805D0082880
:101D90003AD105E0DFF8849039E0DFF8849036E04E
:101DA0001D48001F006800F03F041B48001F00682A
:101DB00000F4800078B11A481749091F0968C1F377
:101DC0008811A0FB01700146224600233846FEF729
:101DD000ABFA05460EE011480F49091F0968C1F327
:101DE0008811A0FB01700146224600233846FEF709
:101DF0009BFA05460848001F0068C0F30140401CDC
:101E00004600B5FBF6F902E0DFF8109000BF00BF16
:101E10004846BDE8F0870000083802400024F4007E
:101E2000001BB700F8B504460CB90120F8BD2078B6
:101E300000F00100002874D0F948006800F00C00A0
:101E400004280DD0F648006800F00C00082813D1D3
:101E5000F348001F006800F48000B0F5800F0BD13C
:101E6000EF4808380068C0F34040002859D0606847
:101E7000002856D10120D9E700BF6068B0F5803F47
:101E800008D1E7480838006840F48030E449083950
:101E900008601EE06068B0F5A02F0DD1E04808385A
:101EA000006840F48020DE49083908600846006870
:101EB00040F4803008600CE0D9480838006820F40D
:101EC0008030D749083908600846006820F480202F
:101ED000086000BF606890B1FFF7FCFB054606E0B4
:101EE000FFF7F8FB401B642801D903209EE7CC488C
:101EF00008380068C0F340400028F1D011E0FFF737
:101F0000E9FB054606E0FFF7E5FB401B642801D925
:101F100003208BE7C24808380068C0F3404000281F
:101F2000F1D1207800F0020002285FD1BC4800689F
:101F300000F00C0058B1BA48006800F00C00082806
:101F40001CD1B748001F006800F48000B0B9B44845
:101F500008380068C0F3400020B1E068012801D0D3
:101F6000012063E7AE480838006820F0F8002169D6
:101F700040EAC100AA490839086037E0E06800B3C8
:101F80000120A8490860FFF7A5FB054606E0FFF71A
:101F9000A1FB401B022801D9032047E7A0480838CD
:101FA0000068C0F340000028F1D09D480838006860
:101FB00020F0F800216940EAC10099490839086019
:101FC00014E0002097490860FFF784FB054606E00F
:101FD000FFF780FB401B022801D9032026E7904829
:101FE00008380068C0F340000028F1D1207800F0E4
:101FF000080008282CD16069A8B101208A4908602E
:10200000FFF768FB054606E0FFF764FB401B02286C
:1020100001D903200AE782486C300068C0F3400011
:102020000028F1D014E000207F490860FFF752FB40
:10203000054606E0FFF74EFB401B022801D90320AE
:10204000F4E677486C300068C0F340000028F1D116
:10205000207800F00400042870D100277048383040
:10206000006800F0805090B900BF002000906C48DC
:102070003830006840F080506949383108600846BF
:10208000006800F08050009000BF00BF0127674843
:10209000006800F48070B0B96448006840F4807053
:1020A00062490860FFF716FB054606E0FFF712FBE2
:1020B000401B022801D90320B8E65C48006800F400
:1020C00080700028F2D000BFA068012808D15448D1
:1020D0006830006840F001005149683108601DE037
:1020E000A06805280DD14E486830006840F0040013
:1020F0004B49683108600846006840F001000860FC
:102100000CE047486830006820F00100444968311D
:1021100008600846006820F00400086000BFA0685E
:10212000A8B1FFF7D7FA054609E0FFF7D3FA401B3D
:1021300041F28831884202D9032077E626E0384808
:1021400068300068C0F340000028EED013E0FFF7CD
:10215000C1FA054608E0FFF7BDFA401B41F288319D
:10216000884201D9032061E62D4868300068C0F339
:1021700040000028EFD1012F07D1294838300068EE
:1021800020F0805026493831086000BFA06900283F
:1021900045D02348006800F00C0008285DD0A069F5
:1021A000022845D100201F490866FFF793FA05462B
:1021B00006E0FFF78FFA401B022801D9032035E61D
:1021C000174808380068C0F340600028F1D1D4E90E
:1021D00007010843616A40EA81110122A06AC2EB4B
:1021E000500041EA00412C20005D41EA00600C49AA
:1021F000091F086001200B490866FFF76BFA0546C6
:1022000006E0FFF767FA401B022801D903200DE61C
:10221000034808380068C0F340600028F1D049E066
:102220000838024000004742800E474200700040DC
:10223000002021490866FFF74DFA054606E0FFF742
:1022400049FA401B022801D90320EFE51B4800682A
:10225000C0F340600028F2D12CE0A069012800D131
:10226000E4E51648001D0668A069012820D006F4A0
:102270008001E06981421BD106F03F01206A814262
:1022800016D147F6C0703040616AB0EB811F0FD1A4
:1022900006F440310122A06AC2EB5000B1EB004FBE
:1022A00006D106F070612C20005DB1EB006F01D00B
:1022B0000120BBE50020B9E500004742003802409C
:1022C000704770B5044600262068456805F0200078
:1022D000202803D11020A060012606E005F0400070
:1022E000402802D10820A0600126012E09D1042037
:1022F00060712046FFF7E4FF6FF0600021684860DE
:1023000070BD05F00100A8B12068006820F0080049
:102310002168086020688068E0606079042809D03E
:102320000120607100BF0020207100BF2046E168DD
:1023300000F040F800BFE3E710B504460CB90120F7
:1023400010BD607920B900202071204600F00EF801
:10235000022060712068006840F004002168086075
:10236000012060710020A06000BFE9E738B5044695
:102370000E492068884217D100BF002000900C4809
:10238000006840F040000A4908600846006800F014
:102390004000009000BF00BF002205215020FFF741
:1023A0008DFB5020FFF776FB38BD0000000806507B
:1023B00034380240704710B504460CB9012010BDF6
:1023C000606A38B96068B0F5827F00D105E000210D
:1023D000E16102E00021216161610021A16294F8C4
:1023E000510028B9002084F85000204600F048F839
:1023F000022084F851002068006820F04000216825
:102400000860A08800F48270218901F40441084327
:10241000A18901F400610843217C01F00201084315
:10242000217D01F001010843218B01F40071084373
:10243000217F01F0380108432021095D01F080016E
:102440000843218D01F400510843216808600421EC
:10245000A06901EA104094F8241001F0100108432B
:10246000216848602068C06920F400602168C86164
:1024700000206065012084F8510000209FE70000E3
:1024800010B586B00446142101A8FEF73BF839497F
:10249000206888426BD100BF002000903648006859
:1024A00040F40040344908600846006800F40040E9
:1024B000009000BF00BF00BF002000902E481038E1
:1024C000006840F001002C49103908600846006897
:1024D00000F00100009000BF00BF00BF002000908E
:1024E0000846006840F0040008600846006800F0F4
:1024F0000400009000BF00BF00BF0020009008460D
:10250000006840F0020008600846006800F0020021
:10251000009000BF00BF4FF40040019002200290E5
:1025200000200390032004900620059001A9134881
:10253000FEF7D0FF4FF4406001900220029000208F
:102540000390032004900620059001A90C48FEF793
:10255000C1FF202001900220029000200390032060
:1025600004900620059001A90648FEF7B3FF06B0C7
:1025700010BD0000003C0040403802400000024016
:1025800000080240000402407047704710B503463F
:10259000002200BF93F83C00012801D1022010BDA9
:1025A000012083F83C0000BF22F0FF00CC6840EA25
:1025B000040222F440708C6840EA040222F4806035
:1025C0004C6840EA040222F400600C6840EA04020D
:1025D00022F480500C6940EA040222F400504C6955
:1025E00040EA040222F48040CC6940EA0402186800
:1025F000426400BF002083F83C0000BF00BFCEE76C
:1026000030B502460B4600BF92F83C00012801D1CC
:10261000022030BD012082F83C0000BF022082F879
:102620003D00106844681068816824F070041868E0
:10263000044310684460184D1068A8421BD010680D
:10264000B0F1804F17D0154D1068A84213D0144D2B
:102650001068A8420FD0134D1068A8420BD0124D3D
:102660001068A84207D0114D1068A84203D0104D41
:102670001068A84205D121F0800158680143106814
:102680008160012082F83D0000BF002082F83C00FC
:1026900000BF00BFBDE70000000001400004004093
:1026A00000080040000C00400004014000400140D0
:1026B0000018004010B504460CB9012010BD94F874
:1026C0003D0028B9002084F83C00204600F026F8A0
:1026D000022084F83D00211D206801F0A3FB0120A9
:1026E00084F8460000BF84F83E0001213F200155D8
:1026F000402001554120015500BF00BF012084F852
:10270000420043200155442001554520015500BF9A
:10271000012084F83D000020D0E7000038B50446D1
:102720004449206888420FD100BF002000904248F1
:10273000006840F00100404908600846006800F069
:102740000100009000BF73E03C492068884211D12D
:1027500000BF002000903848001F006840F00200D1
:102760003549091F08600846006800F00200009023
:1027700000BF5DE032492068884211D100BF0020CF
:1027800000902D48001F006840F004002A49091FEE
:1027900008600846006800F00400009000BF47E0B1
:1027A00028492068884211D100BF002000902248AB
:1027B000001F006840F008001F49091F0860084614
:1027C000006800F00800009000BF31E01E4920685A
:1027D00088420FD100BF002000901748006840F4E5
:1027E0008030154908600846006800F48030009089
:1027F00000BF1DE015492068884219D100BF0020A4
:1028000000900D48001F006840F040000A49091F71
:1028100008600846006800F04000009000BF00BF5C
:1028200000220A212B20FFF749F92B20FFF732F96C
:1028300038BD000000000140443802400004004060
:1028400000080040000C004000400140001800401B
:10285000014691F83D00012801D001207047022077
:1028600081F83D000868C06840F001000B68D8603E
:102870001A4B086898421BD00868B0F1804F17D0F7
:10288000174B0868984213D0164B086898420FD02F
:10289000154B086898420BD0144B0868984207D033
:1028A000134B0868984203D0124B086898420CD129
:1028B0000868806800F00702062A0CD008680068E3
:1028C00040F001000B68186005E00868006840F0FF
:1028D00001000B6818600020C0E700000000014004
:1028E0000004004000080040000C004000040140CB
:1028F00000400140001800402DE9F04104460D461B
:10290000002700BF94F83C00012802D10220BDE856
:10291000F081012084F83C0000BF022084F83D00D3
:102920002068866826F0770626F47F462068866051
:102930002868502833D00CDC202850D004DC002834
:102940004BD0102851D149E0302849D040284CD1F3
:1029500039E060282DD0702807D0B0F5805F03D013
:10296000B0F5005F41D10DE041E0D5E902136A689E
:10297000206801F0D8FA2068866846F0770620685B
:10298000866034E0D5E902136A68206801F0CBFA6A
:102990002068806840F480402168886027E0EA6809
:1029A0006968206801F0B0FB5021206801F0C6FA88
:1029B0001DE0EA686968206801F0B9FB60212068C1
:1029C00001F0BCFA13E0EA686968206801F09CFB3A
:1029D0004021206801F0B2FA09E000BF00BF00BF4B
:1029E0002968206801F0AAFA01E0012700BF00BFB2
:1029F000012084F83D0000BF002084F83C0000BFA7
:102A0000384684E7704770B504462068C56820687A
:102A1000066906F00200022819D105F0020002281A
:102A200015D1401F21680861012020772068806946
:102A300000F0030018B12046FFF7E4FF05E0204650
:102A400000F082F9204600F036FA0020207706F0E8
:102A50000400042819D105F00400042815D1C0434E
:102A600021680861022020772068806900F44070A6
:102A700018B12046FFF7C6FF05E0204600F064F9D4
:102A8000204600F018FA0020207706F008000828F9
:102A900019D105F00800082815D1C0432168086144
:102AA000042020772068C06900F0030018B1204698
:102AB000FFF7A8FF05E0204600F046F9204600F0A9
:102AC000FAF90020207706F01000102819D105F03F
:102AD0001000102815D1C043216808610820207714
:102AE0002068C06900F4407018B12046FFF78AFFE3
:102AF00005E0204600F028F9204600F0DCF900202F
:102B0000207706F0010048B105F0010030B16FF008
:102B1000010021680861204600F0A8FA06F0800054
:102B2000802809D105F08000802805D1C0432168A4
:102B300008612046FFF728FD06F04000402809D133
:102B400005F04000402805D1C043216808612046B7
:102B500000F098FA06F02000202809D105F02000A6
:102B6000202805D1C043216808612046FFF70DFDEC
:102B700070BD000010B586B00446142101A8FDF711
:102B8000C1FC6749206888421DD100BF0020009029
:102B90006448006840F01000624908600846006818
:102BA00000F01000009000BF00BF48150190022007
:102BB00002900020039004900120059001A95A483A
:102BC000FEF788FCA9E05949206888421DD100BF62
:102BD000002000905348006840F00100514908600F
:102BE0000846006800F00100009000BF00BF802090
:102BF0000190022002900020039004900220059092
:102C000001A94B48FEF766FC87E04A4920688842E4
:102C10001DD100BF002000904248006840F0020033
:102C2000404908600846006800F00200009000BFBC
:102C300000BF8815019002200290002003900490AC
:102C40000220059001A93C48FEF744FC65E03B49A1
:102C5000206888421DD100BF0020009031480068E4
:102C600040F001002F4908600846006800F00100AC
:102C7000009000BF00BF01200190022002900020C0
:102C8000039004900220059001A92948FEF722FC38
:102C900043E02B49206888421DD100BF00200090EE
:102CA0002048006840F010001E490860084600688F
:102CB00000F01000009000BF00BF402001900220F3
:102CC00002900020039004900320059001A916486B
:102CD000FEF700FC21E01B49206888421DD100BF9F
:102CE000002000900F48006840F002000D49086085
:102CF0000846006800F00200009000BF00BF4FF4DB
:102D000000400190022002900020039004900920CE
:102D1000059001A90848FEF7DDFB06B010BD0000D4
:102D20000000014030380240001002400004004022
:102D3000000002400008004000040240000C004077
:102D4000004001400018004070472DE9F041044662
:102D50000D461646002700BF94F83C00012802D11A
:102D60000220BDE8F081012084F83C0000BF36B1AC
:102D7000042E1BD0082E31D00C2E5ED145E0294602
:102D8000206801F0E5F82068806940F008002168BB
:102D900088612068806920F00400216888612068CB
:102DA0008069296908432168886148E029462068CC
:102DB00001F006F92068806940F4006021688861AC
:102DC0002068806920F480602168886120688069BB
:102DD000296940EA01202168886130E0294620689D
:102DE00001F02CF92068C06940F008002168C86132
:102DF0002068C06920F004002168C8612068C069AB
:102E0000296908432168C86119E02946206801F052
:102E100051F92068C06940F400602168C8612068E9
:102E2000C06920F480602168C8612068C069296990
:102E300040EA01202168C86101E0012700BF00BF0E
:102E400000BF002084F83C0000BF384689E710B579
:102E500004460CB9012010BD94F83D0028B90020AB
:102E600084F83C00204600F025F8022084F83D005C
:102E7000211D206800F0D6FF012084F8460000BF25
:102E800084F83E0001213F2001554020015541209A
:102E9000015500BF00BF012084F8420043200155C6
:102EA000442001554520015500BF012084F83D0014
:102EB0000020D0E77047704770B504460D4615B93D
:102EC00094F83E000BE0042D02D13F20005D06E0A7
:102ED000082D02D14020005D01E04120005D012865
:102EE00001D0012070BD1DB9022084F83E000EE023
:102EF000042D03D102213F20015508E0082D03D104
:102F000002214020015502E0022141200155012209
:102F10002946206800F0F6FF23492068884203D044
:102F200022492068884201D1012000E0002028B118
:102F30002068406C40F40040216848641A492068C9
:102F400088421BD02068B0F1804F17D01849206804
:102F5000884213D01749206888420FD0164920684C
:102F600088420BD011492068884207D01349206855
:102F7000884203D01249206888420CD120688068BA
:102F800000F00706062E0CD02068006840F0010013
:102F90002168086005E02068006840F001002168B1
:102FA000086000209EE7000000000140000401408E
:102FB0000004004000080040000C004000400140B8
:102FC0000018004030B504460D460022294620680E
:102FD00000F098FF23492068884203D022492068E6
:102FE000884201D1012000E0002090B100BF20689C
:102FF000006A41F21111084050B92068006A891036
:10300000084028B92068406C20F4004021684864DA
:1030100000BF00BF2068006A41F21111084050B99A
:103020002068006A8910084028B92068006820F0EC
:1030300001002168086000BF1DB9012084F83E002E
:103040000EE0042D03D101213F20015508E0082D99
:1030500003D101214020015502E001214120015509
:10306000002030BD000001400004014010B50446BE
:1030700003492068884201D1FEF75EFC10BD0000C4
:103080000010004070477047704710B504460CB9F7
:10309000012010BDA06900B100E000BF94F841001C
:1030A00028B9002084F84000204600F029F82420A8
:1030B00084F841002068C06820F400502168C8608E
:1030C000204601F069F92068006920F490402168E9
:1030D00008612068406920F02A0021684861206862
:1030E000C06840F400502168C8600020606420205F
:1030F00084F8410084F842000020606300BFC8E704
:1031000010B586B00446142101A8FDF7FBF97E49ED
:10311000206888424DD100BF002000907B480068A5
:1031200040F48010794908600846006800F4801077
:10313000009000BF00BF00BF00200090734810380F
:10314000006840F0040071491039086008460068C2
:1031500000F00400009000BF00BF00BF00200090FE
:103160000846006840F0080008600846006800F063
:103170000800009000BF00BF881401900220029058
:1031800000200390032004900820059001A96048C6
:10319000FEF7A0F904200190022002900020039085
:1031A000032004900820059001A95A48FEF792F9DF
:1031B000A8E059492068884233D100BF0020009020
:1031C0005248001D006840F010005049091D086079
:1031D0000846006800F01000009000BF00BF00BF6C
:1031E0000020009049481038006840F0010047492D
:1031F000103908600846006800F00100009000BF28
:1032000000BF4FF4C06001900220029000200390A4
:10321000032004900720059001A94048FEF75AF9C1
:1032200070E03F49206888426CD100BF00200090C8
:103230003648006840F400303449086008460068A9
:1032400000F40030009000BF00BF00BF00200090DD
:103250002E481038006840F001002C4910390860F1
:103260000846006800F00100009000BF00BF00BFEA
:10327000002000900846006840F0080008600846FA
:10328000006800F00800009000BF00BF042001901B
:103290000220029000200390032004900720059054
:1032A00001A91E48FEF716F9402001900220029065
:1032B00000200390032004900720059001A91548E1
:1032C000FEF708F91748184908604FF00060486099
:1032D000002115488160C1604FF4806101610021C7
:1032E00041618161C1614FF480310162002141621D
:1032F000FEF730F808B1FDF74FFC00BF0A48E06365
:10330000846300BF06B010BD00500040403802404A
:1033100000080240000C0240001001400000024082
:103320000044004088600240E806002070B5044672
:103330000D46164694F8420020280BD105B10EB96F
:10334000012070BD0020206332462946204601F04E
:1033500039F9F6E70220F4E77047704710B50248E4
:10336000FEF7AFFF10BD0000F803002000BFFEE72E
:103370001FB5002000900190029003902748284933
:1033800008604FF400304860002125488160012129
:1033900001610176002180F82010C162214981621B
:1033A0000021C1600421C161012180F83010002199
:1033B0004161FDF705FD08B1FDF7EEFB0920009026
:1033C000012001900320029069461548FDF72EFC6C
:1033D00008B1FDF7E1FB062000900220019069464C
:1033E0000F48FDF723FC08B1FDF7D6FB0A2000903B
:1033F0000320019069460A48FDF718FC08B1FDF763
:10340000CBFB0D2000900420019069460448FDF795
:103410000DFC08B1FDF7C0FB1FBD000000200140FE
:10342000FC0200200100000F08B500BF0020009042
:103430001648006840F48000144908600846006897
:1034400000F48000009000BF00BF00BF002000908B
:103450000846006840F4001008600846006800F460
:103460000010009000BF00BF002205211020FEF7D1
:1034700025FB1020FEF70EFB002205213820FEF769
:103480001DFB3820FEF706FB08BD00003038024067
:1034900000B589B01C220A4902A8FDF701F80021F5
:1034A00002A801F059F9074908600020009003467E
:1034B000802205A10190074802F040FA09B000BD42
:1034C000345E000800000020546573745461736B0F
:1034D000000000005941000800B587B0142102A87F
:1034E000FDF710F800BF002001906A48006840F026
:1034F0001000684908600846006800F0100001905C
:1035000000BF00BF00BF002001900846006840F0E7
:10351000040008600846006800F00400019000BF45
:1035200000BF00BF002001900846006840F0800006
:1035300008600846006800F08000019000BF00BFEE
:1035400000BF002001900846006840F001000860BC
:103550000846006800F00100019000BF00BF00BFF6
:10356000002001900846006840F00200086008460C
:10357000006800F00200019000BF00BF00BF002003
:1035800001900846006840F008000860084600689E
:1035900000F00800019000BF00BF0022A0213E48BB
:1035A000FEF792F8002242F206113C48FEF78CF832
:1035B000002230213A48FEF787F8002247F2010145
:1035C0003848FEF781F800224FF4E0613648FEF7F4
:1035D0007BF8012280213148FEF776F80122510262
:1035E0003048FEF771F8012211462B48FEF76CF8BF
:1035F000A12002900120039000200490059002A9D0
:103600002548FDF767FF42F28610029001200390E3
:1036100000200490059002A92048FDF75BFF3020B0
:1036200002900120039000200490059002A91C48FC
:10363000FDF750FF47F20120029001200390002087
:103640000490059002A91748FDF744FF4FF400408D
:103650000290002003900120049002A90E48FDF77B
:1036600039FF4FF4E06002900120039000200490A5
:10367000059002A90C48FDF72DFF40200290002084
:1036800003900120049002A90448FDF723FF07B02E
:1036900000BD000030380240001002400008024027
:1036A0000000024000040240000C024010B50B482C
:1036B0000B4908600B484860002109488160C160DF
:1036C0004FF480410161002141618161C16101626A
:1036D000FEF706F808B1FDF75FFA10BD0054004090
:1036E000A4030020A086010010B505480549086024
:1036F0000846FEF721FE08B1FDF74EFA10BD0000A6
:1037000000080650F803002010B50E480E49086066
:103710004FF48270486000210B488160C1600161F4
:1037200041614FF4802181610021C16101624162E8
:1037300081620A21C162FEF73EFE08B1FDF72CFA54
:1037400010BD0000003C00400804002000B58BB014
:1037500000200790089009900A901C216846FCF709
:10376000D1FE1B481B4908601420486000211948FD
:10377000816040F28F11C160002101618161FEF71B
:1037800099FF08B1FDF708FA4FF48050079007A998
:103790001048FFF7B1F808B1FDF7FEF90D48FFF743
:1037A00056FB08B1FDF7F8F960200090C8200190A1
:1037B000002002900490042269460648FFF7C5FAEB
:1037C00008B1FDF7E9F90348FFF7D4F90BB000BDE4
:1037D00000180040C805002000B595B000201190E9
:1037E0001290139014900F9010901C2108A8FCF7D1
:1037F00089FE20216846FCF785FE2C482C4908608C
:103800000320486000212A48816040F2E731C1600E
:103810000021016141618161FEF74CFF08B1FDF7B4
:10382000BBF94FF48050119011A92148FFF764F8BB
:1038300008B1FDF7B1F91E48FFF709FB08B1FDF724
:10384000ABF900200F9010900FA91948FEF7D8FE91
:1038500008B1FDF7A1F9602008900020099002202E
:103860000A9000200B900C900D900E90002208A959
:103870000F48FFF76AFA08B1FDF78EF900200090B3
:1038800001900290039004904FF4005005900020A6
:10389000079069460648FEF779FE08B1FDF77CF906
:1038A0000348FFF767F915B000BD000000000140B4
:1038B0006004002000B58DB0002009900A900B90A4
:1038C0000C90079008901C216846FCF71BFE2148CD
:1038D000214908600320486000211F48816040F2B0
:1038E000E731C160002101618161FEF7E3FE08B1AB
:1038F000FDF752F94FF48050099009A91648FEF7D8
:10390000FBFF08B1FDF748F91348FFF7A0FA08B12B
:10391000FDF742F900200790089007A90E48FEF72E
:103920006FFE08B1FDF738F960200090002001908B
:103930000220029000200490042269460648FFF706
:1039400004FA08B1FDF728F90348FFF713F90DB0A1
:1039500000BD000000040040A804002000B58DB0A8
:10396000002009900A900B900C90079008901C2161
:103970006846FCF7C7FD21482149086003204860DC
:1039800000211F48816040F2E731C16000210161E0
:103990008161FEF78FFE08B1FDF7FEF84FF480500D
:1039A000099009A91648FEF7A7FF08B1FDF7F4F83A
:1039B0001348FFF74CFA08B1FDF7EEF80020079026
:1039C000089007A90E48FEF71BFE08B1FDF7E4F8C2
:1039D00060200090002001900220029000200490BE
:1039E000082269460648FFF7B0F908B1FDF7D4F898
:1039F0000348FFF7BFF80DB000BD0000000800400D
:103A0000F004002000B58DB0002009900A900B90C2
:103A10000C90079008901C216846FCF773FD214824
:103A2000214908600320486000211F48816040F25E
:103A3000E731C160002101618161FEF73BFE08B101
:103A4000FDF7AAF84FF48050099009A91648FEF72F
:103A500053FF08B1FDF7A0F81348FFF7F8F908B1D4
:103A6000FDF79AF800200790089007A90E48FEF786
:103A7000C7FD08B1FDF790F860200090002001908C
:103A80000220029000200490002269460648FFF7B9
:103A90005CF908B1FDF780F80348FFF76BF80DB04B
:103AA00000BD0000000C00403805002000B58BB0C0
:103AB00000200790089009900A901C216846FCF7A6
:103AC00021FD1C481C4908600320486000211A4859
:103AD000816040F2E731C160002101618161FEF740
:103AE000E9FD08B1FDF758F84FF48050079007A999
:103AF0001148FEF701FF08B1FDF74EF80E48FFF739
:103B0000A6F908B1FDF748F8602000900020019068
:103B10000220029000200490042269460648FFF724
:103B200014F908B1FDF738F80348FFF723F80BB094
:103B300000BD0000004001408005002010B50B488A
:103B40000B4908604FF4E13048600021084881606B
:103B5000C16001610C21416100218161C161FFF7F8
:103B600094FA08B1FDF718F810BD000000500040AD
:103B70001006002010B50B480B4908604FF4E130E7
:103B80004860002108488160C16001610C214161E9
:103B900000218161C161FFF778FA08B1FCF7FCFFF1
:103BA00010BD0000001001405806002010B50C4860
:103BB0000C4908600C4848604FF480510948816006
:103BC0004900C160C9100161042141610021816186
:103BD000C161FFF75AFA08B1FCF7DEFF10BD000023
:103BE00000440040A0060020A086010000BFFEE7C0
:103BF00000BFFEE710B50446192221461C48FFF716
:103C000095FB6078A17840EA0120C0F30A00E084C7
:103C1000A078C010E17840EA4110C0F30A01218584
:103C2000E0788011217940EA8100617940EA8120C1
:103C3000C0F30A01618560794010A17940EAC110A2
:103C4000C0F30A01A185A0790011E17940EA0110D1
:103C5000C0F30A01E185E079C011217A40EA410010
:103C6000617A40EA4120C0F30A01218610BD0000BC
:103C7000A006002070B5044600250CE004F12601E2
:103C800031F815004FF49671FCF78AFF124921F8BC
:103C90001500681CC5B2042DF0DB00250CE00E49B0
:103CA00031F815009FED0D0AFCF7A4FF04F11A018D
:103CB00021F81500681CC5B2042DF0DBE08B084923
:103CC0000880608B07490880A08B07490880208CFA
:103CD0000649088070BD000030000020CDCC4C3F6C
:103CE0002A000020280000202C0000202E000020A8
:103CF00000BF0548FFF77EFF0348FFF7BBFF012029
:103D000000F019FDF5E70000A807002010B500BF7E
:103D1000502080F31188BFF34F8FBFF36F8F00BF28
:103D200001F0ACFE18B14FF080500449086000BFAC
:103D3000002080F3118800BF10BD000004ED00E0FA
:103D400000B593B0302107A8FCF7DCFB142102A8D2
:103D5000FCF7D8FB00BF002001902348006840F02A
:103D60008050214908600846006800F080500190AA
:103D700000BF00BF00BF002001901C48006840F455
:103D800080401A4908600846006800F480400190AD
:103D900000BF00BF012007900004089002200D9092
:103DA00041050E9106210F91A82110910221119138
:103DB0000721129107A8FEF735F808B1FCF7ECFED1
:103DC0000F20029002200390002004904FF4A05096
:103DD00005900690052102A8FDF7C2FE08B1FCF788
:103DE000DBFE13B000BD0000403802400070004010
:103DF0000348006840F47000014908607047000003
:103E000088ED00E010B50248FEF7FDFD10BD000092
:103E10004807002010B50248FEF7F5FD10BD000070
:103E2000C805002010B502682B4B98420ED0B0F1A7
:103E3000804F0BD0294B984208D0294B984205D08F
:103E4000284B984202D0284B984203D122F07002AE
:103E50004B681A43204B984220D0B0F1804F1DD0C0
:103E60001E4B98421AD01E4B984217D01D4B9842B9
:103E700014D01D4B984211D01C4B98420ED01C4BB5
:103E800098420BD01B4B984208D01B4B984205D050
:103E90001A4B984202D01A4B984203D122F4407236
:103EA000CB681A4322F080034C6943EA04028B6812
:103EB000C3620B688362084B984202D00A4B984257
:103EC00001D10B690363036843F00403036001231A
:103ED0004361026010BD000000000140000400408A
:103EE00000080040000C0040000401400040014078
:103EF000004401400048014000180040001C004000
:103F00000020004030B501F01F05012404FA05F33C
:103F1000046A9C430462046A01F01F0502FA05F575
:103F20002C43046230BD30B50C46816821F47F41DA
:103F300042EA032525432943816030BD0A46816852
:103F400021F0700142F007031943816070470000BF
:103F500030B5026A056A25F0010505624368846987
:103F600024F0700424F003040D682C4322F00202B4
:103F70008D682A43104DA84200D103E00F4DA8429E
:103F800006D100BF22F00802CD682A4322F00402C5
:103F9000094DA84202D0094DA84207D123F48073ED
:103FA00023F400734D692B438D692B434360846177
:103FB0004D684563026230BD0000014000040140CD
:103FC00030B5026A056A25F0100505624368846908
:103FD00024F4E04424F440740D6844EA052422F0FB
:103FE00020028D6842EA0512124DA84200D103E07A
:103FF000114DA84207D100BF22F08002CD6842EAED
:10400000051222F040020B4DA84202D00A4DA842F0
:1040100009D123F4806323F400634D6943EA8503E7
:104020008D6943EA8503436084614D68856302625C
:1040300030BD0000000001400004014030B5026ABC
:10404000056A25F4807505624368C46924F070042C
:1040500024F003040D682C4322F400728D6842EAB8
:104060000522124DA84200D103E0114DA84207D10C
:1040700000BF22F40062CD6842EA052222F4806289
:104080000A4DA84202D00A4DA84209D123F4805318
:1040900023F400534D6943EA05138D6943EA051380
:1040A0004360C4614D68C563026230BD00000140D9
:1040B0000004014030B5036A056A25F480550562A5
:1040C0004468C26922F4E04222F440720D6842EA78
:1040D000052223F400538D6843EA0533084DA842B6
:1040E00002D0084DA84204D124F480444D6944EA2A
:1040F00085144460C2614D680564036230BD0000F0
:10410000000001400004014030B50B461446026A2D
:10411000056A25F001050562816921F0F00141EA97
:10412000041122F00A021A438161026230BD30B5E7
:104130000B461446026A056A25F01005056281697E
:1041400021F4704141EA043122F0A00242EA031254
:104150008161026230BD00001F48FCF75DFB40F248
:10416000E73200211C48FCF7C7FB40F2E73202218E
:104170001948FCF7C1FB40F2E73201211648FCF771
:10418000BBFB40F2E73203211348FCF7B5FB0020EC
:10419000FCF7EAFB0220FCF7E7FB0120FCF7E4FB5D
:1041A0000320FCF7E1FB0020FCF718FC0220FCF7E1
:1041B00015FC0120FCF712FC0320FCF70FFCFCF7B8
:1041C00047FC00BFFCF784FB0348FCF767FB0120BA
:1041D00000F0B1FAF6E700009007002070B506463F
:1041E0000025B46B20684069C0F3C01594F8410005
:1041F000212805D125B10020E084204600F0B8F840
:1042000020684069C0F3801594F84200222805D147
:1042100025B10020E085204600F074F8606C40F085
:10422000100060642046FEF72FFF70BD70B5054694
:10423000AC6B2868006800F48070002842D1E085EB
:1042400000BF00BF21680C3151E8001F21F48070CD
:1042500021680C3141E80002002AF3D100BF00BF01
:1042600000BF2168143151E8001F21F001002168CE
:10427000143141E80002002AF3D100BF00BF00BFA3
:104280002168143151E8001F21F0400021681431E9
:1042900041E80002002AF3D100BF202084F8420048
:1042A000206B01280ED100BF00BF21680C3151E8FE
:1042B000001F21F0100021680C3141E80002002AA3
:1042C000F3D100BF00206063206B012804D1A18DD1
:1042D0002046FEF7D8FE02E02046FFF73DF870BD0D
:1042E00070B50546AC6B01206063206B012805D1D9
:1042F000A08D41082046FEF7C6FE02E02046FFF7EB
:104300002CF870BD00BF00BF02680C3252E8002FCD
:1043100022F4907102680C3242E80013002BF3D1B2
:1043200000BF00BF00BF0268143252E8002F22F025
:1043300001010268143242E80013002BF3D100BFE0
:10434000016B01290ED100BF00BF02680C3252E898
:10435000002F22F0100102680C3242E80013002BFB
:10436000F3D100BF202180F8421000210163704783
:1043700000BF00BF02680C3252E8002F22F0C001DB
:1043800002680C3242E80013002BF3D100BF202159
:1043900080F84110704700002DE9F84F044620686E
:1043A000006920F44050E1680843216808612169F0
:1043B000A068084361690843E169084300902068E8
:1043C000C06849F20C618843009908432168C860BD
:1043D0002068406920F44070A16908432168486161
:1043E00076492068884203D075492068884203D105
:1043F000FDF7B0FC814602E0FDF79CFC8146E069D8
:10440000B0F5004F6CD102206168A0FB015003465B
:104410001920A9FB007001462A463846FBF784FFA5
:104420006421B0FBF1F04FEA001A02206168A0FBA2
:1044300001510B461920A9FB00712A463846FBF7AB
:1044400073FF834602206168A0FB015003461920D8
:10445000A9FB00712A463846FBF766FF6421B0FBD2
:10446000F1F000EBC00101EB0010ABEB800032215A
:1044700001EBC0006421B0FBF1F000F0F8000AEBA2
:10448000400A02206168A0FB015003461920A9FBE5
:10449000007001462A463846FBF746FF8346022055
:1044A0006168A0FB015003461920A9FB00712A4650
:1044B0003846FBF739FF6421B0FBF1F000EBC00197
:1044C00001EB0010ABEB8000322101EBC000642156
:1044D000B0FBF1F000F007005044216888606AE00A
:1044E00004206168A0FB015003461920A9FB00705D
:1044F00001462A463846FBF717FF824604206168CA
:10450000A0FB015003461920A9FB007001462A4672
:104510003846FBF709FF6421B0FBF1F000EBC00166
:1045200001EB0010AAEB8000322101EB00106421A6
:10453000B0FBF1F000F0F00A04206168A0FB01700C
:1045400003461920A9FB00513A462846FBF7ECFE2A
:104550006421B0FBF1F00AEB001A04206168A0FBB3
:1045600001510B461920A9FB00712A463846FBF77A
:10457000DBFE834604206168A0FB0150034619203E
:10458000A9FB007001462A463846FBF7CDFE6421A0
:10459000B0FBF1F000EBC00101EB0010ABEB8000D1
:1045A000322101EB00106421B0FBF1F000F00F00AC
:1045B000504421688860BDE8F88F00000010014079
:1045C0000014014077B581B0044615460298A062F8
:1045D000A58500206064222084F842002C48E16B0D
:1045E000C8632C48E16B08642B48E16BC864002069
:1045F000E16B086502AE32682368191D2B46E06B3B
:10460000FCF71EFF38B110206064202084F84200BF
:10461000012004B070BD00BF002000902068006839
:10462000009020684068009000BF00BF206970B112
:1046300000BF00BF21680C3151E8001F41F48070B9
:1046400021680C3141E80002002AF3D100BF00BF0D
:1046500000BF2168143151E8001F41F001002168BA
:10466000143141E80002002AF3D100BF00BF00BFAF
:104670002168143151E8001F41F0400021681431D5
:1046800041E80002002AF3D100BF0020C1E700008A
:104690002D420008E1420008DD41000800BFFEE7AE
:1046A00002480068C0F30220704700000CED00E0F3
:1046B00010B5002804DB0A07130E054A135406E060
:1046C0000A07140E034A00F00F031B1FD45410BD39
:1046D00000E400E018ED00E0FDF73AF9FFF730FBE9
:1046E000FEF7FAFEFEF7A0FEFEF742FEFFF774F8B3
:1046F000FFF7E0F8FFF732F9FFF784F9FFF7D6F993
:10470000FFF724F8FFF752FAFEF7D0FFFEF7FCFFA1
:10471000FFF714FAFFF72EFAFEF7E6FFFEF7B8FEF2
:1047200000F015F800BFFEE701460020842901D003
:10473000CA1C1044704770B5044625460DB1294681
:1047400000E00121084600F0FBFC002070BD10B520
:1047500000F052FD002010BD7FB504460D46606993
:1047600098B1A06988B1B4F90800FFF7DDFF0646EB
:10477000D4E90510CDE9006102902B462269D4E905
:10478000001001F00DF9039013E0B4F90800FFF7F1
:10479000CBFF064603A8CDE90060238A9AB22B46D8
:1047A000D4E9001001F0CAF8012802D0002004B0BA
:1047B00070BD0398FBE700002DE9F04105460E4669
:1047C0001C4807681C480068001D00F0B5FB50B984
:1047D0001948006890F82C10012088401749096892
:1047E000814316480160681C38B936B11248016827
:1047F000091D134800F0EAFB1AE07C190E48006816
:104800004460BC4207D20C480168091D0D4800688D
:1048100000F0C2FB0CE008480168091D0A48006866
:1048200000F0BAFB09480068844201D207480460DE
:10483000BDE8F08154000020400000205800002016
:10484000B80800204800002044000020700000202C
:1048500010B5044600F0C6FB23480068401C2249FE
:1048600008602248006840B9204804600846006893
:1048700001280DD100F0A6F90AE01D48006838B9FA
:104880001A480068C06AE16A884201D81748046083
:1048900018480068401C1749086094F82C10012043
:1048A000884015490968084313490860E16A01EB2B
:1048B0008101124A02EB8100211D00F087FB00F00C
:1048C000BBFB0B48006868B108480068C06AE16A31
:1048D000884207D24FF0805009490860BFF34F8FDC
:1048E000BFF36F8F10BD000050000020400000207B
:1048F0005C0000206C00002058000020DC07002035
:1049000004ED00E010B516E000F06CFB0C48C06848
:10491000C468201D00F010FB0A480068401E0949C9
:10492000086009480068401E0749086000F084FBE1
:10493000204600F05FF8044800680028E4D110BD6C
:10494000A4080020500000204C00002070B5044650
:104950000D46206C70B1216CE0680144E160D4E93F
:104960000210884201D32168E1602846226CE16888
:10497000FBF751FD70BD2DE9F04104460F46154689
:104980004FF00008A66B206C48B9206800282CD195
:10499000A06801F017F980460020A06025E07DB9ED
:1049A0003946226C6068FBF736FD216C606808446C
:1049B0006060D4E90101884217D32068606014E088
:1049C0003946226CE068FBF726FD216CE068411A4D
:1049D000E1602168E068884203D2216CA068411A36
:1049E000E160022D01D106B1761E701CA063404625
:1049F000BDE8F08110B5044694F8510030B9206B41
:104A000000F038FB204600F035FB1AE094F8510026
:104A1000012803D1204600F02DFB12E094F851004C
:104A2000022801D1012000E0002050B900BF502031
:104A300080F31188BFF34F8FBFF36F8F00BF00BFAC
:104A4000FEE710BD30B54FF47053174800F007046F
:104A50002CB1C01D20F00700134C041B1B1B024689
:104A6000124C22600024114D6C60D018083820F0E0
:104A700007000F4C206000240D4D2D686C600C4D1C
:104A80002D682C601146441A4C60094C24680C6057
:104A9000084D4C682C60084D4C682C604FF0004469
:104AA000064D2C6030BD0000CC0800207C000020AA
:104AB000840000208C000020880000209800002046
:104AC00000BFFFF71FFF064800680128F9D94FF023
:104AD000805004490860BFF34F8FBFF36F8FF0E73A
:104AE000DC07002004ED00E02DE9F04106460D460C
:104AF00017469846069C0DB9246000E02760E663DF
:104B000025640121204600F0FFFCBDE8F0812DE97D
:104B1000FF5F81460E469246DDE90E7B109CAAF1AE
:104B20000100216B01EB800828F0070808F007005E
:104B300008B9012000E0002050B900BF502080F3E8
:104B40001188BFF34F8FBFF36F8F00BF00BFFEE729
:104B500086B1002507E0715D04F134004155705DB8
:104B600000B902E06D1C102DF5D300BF00214320D9
:104B7000015502E0002084F83400072F00D30627F7
:104B8000E76267640020A064201D00F002FA04F1CF
:104B9000180000F0FEF92461C7F10700A06164620B
:104BA0000020E06484F8500049464046039A00F033
:104BB000ADF92060BBF1000F01D0CBF80040BDE89B
:104BC000FF9F000010B5002407E004EB84010F4AAA
:104BD00002EB810000F0D0F9641C072CF5D30C48DF
:104BE00000F0CAF90B4800F0C7F90B4800F0C4F90F
:104BF0000A4800F0C1F90A4800F0BEF90448094922
:104C0000086004480849086010BD0000DC07002067
:104C1000680800207C08002090080020A4080020DC
:104C2000B8080020440000204800002010B50146CC
:104C3000164800E0006803688B42FBD302464368D5
:104C400013448B4204D143684C68234443600146BB
:104C50000A464B6813440468A34211D10C4C036804
:104C60002468A34208D04B680468646823444B60FE
:104C700003681B680B6005E0054B1B680B6001E0D7
:104C800003680B60884200D0016010BD7C000020EA
:104C90008400002070B5054600F0A4F9A86B08B99F
:104CA000012400E0002400F0C7F9204670BD70B573
:104CB000054600F097F9A86BE96B884201D1012401
:104CC00000E0002400F0B8F9204670BD0A490968E8
:104CD000096809B9012100E0002121B14FF0FF313D
:104CE000064A116006E004490968C968C868034AB1
:104CF00041681160704700004400002070000020EF
:104D00000E480068401C08B9012000E0002050B99E
:104D100000BF502080F31188BFF34F8FBFF36F8F18
:104D200000BF00BFFEE700BF502080F31188BFF333
:104D30004F8FBFF36F8F00BF00BFFEE79C000020C6
:104D400070B5044600F04EF994F9455010E0606AE1
:104D500008B9012000E0002038B904F1240000F077
:104D600095FF18B100F026FA00E003E0681E45B296
:104D7000002DECDC00BFFF2084F8450000F05CF95A
:104D800000F030F994F9445010E0206908B901208E
:104D900000E0002048B904F1100000F077FF08B1EE
:104DA00000F008FA681E45B200E001E0002DECDCDE
:104DB00000BFFF2084F8440000F03EF970BD000001
:104DC0002DE9F04104464FF0000800F06DFA494823
:104DD000006808B9FFF736FE474800682040002801
:104DE00070D1D4B1083404F00700B0B104F007006A
:104DF000C0F10800044404F0070008B9012000E0F5
:104E0000002050B900BF502080F31188BFF34F8FAE
:104E1000BFF36F8F00BF00BFFEE7002C52D03748B2
:104E2000006884424ED8364E3046056801E02E4672
:104E30002D686868A04202D228680028F7D12D4862
:104E4000006885423ED0306800F10808286830606C
:104E50006868001B102819D92F1907F0070008B936
:104E6000012000E0002050B900BF502080F31188DD
:104E7000BFF34F8FBFF36F8F00BF00BFFEE76868BF
:104E8000001B78606C603846FFF7D0FE1B496868ED
:104E90000968081A1949086008460068194909682C
:104EA000884203D2154800681649086012496868AC
:104EB0000968084368600020286013480068401CA7
:104EC0001149086000F02EFF08F0070008B9012022
:104ED00000E0002050B900BF502080F31188BFF3DC
:104EE0004F8FBFF36F8F00BF00BFFEE74046BDE8A6
:104EF000F08100008400002098000020880000203D
:104F00007C0000208C00002090000020001F4FF04B
:104F100080730360001F21F001030360001F054B35
:104F2000036014380260001F6FF002030360203832
:104F300070470000014D000801460A69D1E90130BF
:104F40009860D1E9010358605068884201D18868AF
:104F50005060002008611068401E106010687047A3
:104F6000034B0360034B0B6080231360704700000A
:104F7000A8000020FC00002000F1080141604FF073
:104F8000FF31816000F10801C16001610021016011
:104F9000704700210161704710B502460B685C1C28
:104FA0000CB9106907E002F1080000E040684468AD
:104FB00024689C42FAD944684C604C68A1608860BF
:104FC00041600A611468641C146010BD42684A6044
:104FD00093688B60936859609160086103685B1CFB
:104FE0000360704700BF502080F31188BFF34F8FDC
:104FF000BFF36F8F00BF0E480068401C0C4908606B
:1050000008460068012812D10A480068C0B208B9F1
:10501000012000E0002050B900BF502080F311882B
:10502000BFF34F8FBFF36F8F00BF00BFFEE7704726
:105030009C00002004ED00E00D48006850B900BF5E
:10504000502080F31188BFF34F8FBFF36F8F00BFE5
:1050500000BFFEE706480068401E05490860084694
:10506000006820B9002080F3118800BF00BF70479E
:105070009C00002070B506463546002E44D0083D01
:105080002C46224960680968084008B1012000E008
:10509000002050B900BF502080F31188BFF34F8F1C
:1050A000BFF36F8F00BF00BFFEE7206808B9012083
:1050B00000E0002050B900BF502080F31188BFF3FA
:1050C0004F8FBFF36F8F00BF00BFFEE70F496068CF
:1050D00009680840C0B12068B0B90C496068096827
:1050E0008843606000F0E0F8094960680968084496
:1050F000074908602046FFF799FD06480068401CF4
:105100000449086000F00EFE70BD00009800002009
:10511000880000209400002000204FF0E02108616A
:105120008861064800684FF47A71B0FBF1F0401EC8
:105130004FF0E0214861072008617047100000200F
:1051400070B504460025D4B11248006808B90120A2
:1051500000E0002050B900BF502080F31188BFF359
:105160004F8FBFF36F8F00BF00BFFEE700F09CF8CA
:1051700000212046FFF720FB00F0D4FD05463DB995
:105180004FF0805004490860BFF34F8FBFF36F8F1B
:1051900070BD00007800002004ED00E003490968BC
:1051A0000160034909684160704700006800002001
:1051B000540000200120014908607047640000206D
:1051C00070B504460D4654B900BF502080F31188D5
:1051D000BFF34F8FBFF36F8F00BF00BFFEE70548DF
:1051E000016818312046FFF7D7FE01212846FFF756
:1051F000E3FA70BD4000002010B586B00020059095
:10520000049003AA04A905A8FFF7AAFE0022DDE97D
:1052100004101346CDE9002102901CA11D48039AF9
:1052200000F0BEFB1C4908600846006808B1012474
:1052300000E00024012C15D100BF502080F311881C
:10524000BFF34F8FBFF36F8F00BF4FF0FF30134995
:10525000086001201249086000201249086000F02F
:1052600071F810E0601C08B1012000E0002050B986
:1052700000BF502080F31188BFF34F8FBFF36F8FB3
:1052800000BF00BFFEE706B010BD000049444C451A
:1052900000000000C14A00087400002070000020D7
:1052A0005C0000205400002002480068401C0149B6
:1052B00008607047780000201D48006818B1012080
:1052C0001C49086032E000201A4908601A4800684A
:1052D000B0FA80F0C0F11F0101EB8100174A52F8CB
:1052E000200008B1012000E0002050B900BF50208C
:1052F00080F31188BFF34F8FBFF36F8F00BF00BFE4
:10530000FEE701EB81020D4B03EB8200426852681D
:10531000426000F108024368934202D14268526839
:1053200042604268D268064B1A6000BF70470000B6
:10533000780000206400002058000020DC070020D6
:10534000400000201CB5524800685249884201D0F4
:10535000012000E0002050B900BF502080F31188E8
:10536000BFF34F8FBFF36F8F00BF00BFFEE748480A
:1053700000684849491E884201D0012000E0002011
:1053800050B900BF502080F31188BFF34F8FBFF397
:105390006F8F00BF00BFFEE73F49084600780190CD
:1053A000FF200A4610700846007800909DF8000023
:1053B00000F0F0009DF80020904201D1012000E0B3
:1053C000002050B900BF502080F31188BFF34F8FE9
:1053D000BFF36F8F00BF00BFFEE79DF8000000F035
:1053E00050002E4A107007202D4A106009E02C480A
:1053F0000068401E2A4A10609DF800004006000E1A
:1054000000909DF8000000F080008028EFD0244834
:105410000068C0F10700042801D1012000E000204D
:1054200050B900BF502080F31188BFF34F8FBFF3F6
:105430006F8F00BF00BFFEE7194800680002184ADE
:1054400010601046008800F4E0601060124A019875
:1054500010700F482030006840F470000C49203173
:1054600008600846006840F070400860FFF754FE8E
:1054700000200C490860FAF7FBFE0B48006840F07A
:10548000404009490860FAF7DFFE00201CBD00001B
:1054900000ED00E071C20F4100E400E0A000002038
:1054A000A40000209C00002034EF00E02DE9F84328
:1054B00005460E4617460DB1012000E0002050B908
:1054C00000BF502080F31188BFF34F8FBFF36F8F61
:1054D00000BF00BFFEE705FB06F808F14800FFF734
:1054E0006FFC044664B1A14609F14809002084F824
:1054F00046003B464A46314628460094FFF7F4FAF8
:105500002046BDE8F883000070B505460E462C46DF
:1055100054B900BF502080F31188BFF34F8FBFF301
:105520006F8F00BF00BFFEE7FFF75CFDD4E90F12ED
:10553000206801FB0200A0600020A063206860607A
:10554000E06B401E226C216800FB0211E160FF202D
:1055500084F8440084F845009EB9206908B9012008
:1055600000E00020A8B904F1100000F08FFB80B12A
:105570004FF0805009490860BFF34F8FBFF36F8F22
:1055800007E004F11000FFF7F7FC04F12400FFF737
:10559000F3FCFFF751FD012070BD000004ED00E0B9
:1055A0002DE9FF4383B0064688461D464FF00009AB
:1055B000344654B900BF502080F31188BFF34F8F99
:1055C000BFF36F8F00BF00BFFEE7B8F1000F01D13E
:1055D000206C08B9012000E0002050B900BF502025
:1055E00080F31188BFF34F8FBFF36F8F00BF00BFF1
:1055F000FEE7022D02D1E06B012801D1012000E07D
:10560000002050B900BF502080F31188BFF34F8FA6
:10561000BFF36F8F00BF00BFFEE700F01FFA08B9AD
:10562000059808B9012000E0002050B900BF5020C3
:1056300080F31188BFF34F8FBFF36F8F00BF00BFA0
:10564000FEE700BFFFF7CEFCA06BE16B884201D301
:10565000022D28D12A4641462046FFF78CF90746FD
:10566000606A08B9012000E0002068B904F1240054
:1056700000F00CFB88B14FF0805032490860BFF356
:105680004F8FBFF36F8F08E03FB14FF080502D492F
:105690000860BFF34F8FBFF36F8FFFF7CDFC012082
:1056A00007B0BDE8F083059818B9FFF7C5FC0020E6
:1056B000F6E7B9F1000F04D101A8FFF76FFD4FF035
:1056C0000109FFF7B9FCFFF7EFFDFFF78BFC94F939
:1056D0004400401C10B9002084F8440094F94500AF
:1056E000401C10B9002084F84500FFF7A5FC05A96F
:1056F00001A800F0DDF8F0B92046FFF7D8FAA0B114
:1057000004F110000599FFF75BFD2046FFF718FB39
:1057100000F008FB002895D14FF08050094908603F
:10572000BFF34F8FBFF36F8F8CE72046FFF708FB67
:1057300000F0F8FA86E72046FFF702FB00F0F2FAE5
:105740000020ADE704ED00E02DE9F74183B0054608
:105750000E464FF000082C4654B900BF502080F38D
:105760001188BFF34F8FBFF36F8F00BF00BFFEE7FD
:105770000EB9206C08B9012000E0002050B900BF2C
:10578000502080F31188BFF34F8FBFF36F8F00BF9E
:1057900000BFFEE700F062F908B9059808B90120DA
:1057A00000E0002050B900BF502080F31188BFF303
:1057B0004F8FBFF36F8F00BF00BFFEE700BFFFF743
:1057C00011FCA76BF7B131462046FFF7BFF8781EF2
:1057D000A063206908B9012000E0002060B904F14D
:1057E000100000F053FA38B14FF080502F49086094
:1057F000BFF34F8FBFF36F8FFFF71EFC012006B082
:10580000BDE8F081059818B9FFF716FC0020F6E70F
:10581000B8F1000F04D101A8FFF7C0FC4FF0010858
:10582000FFF70AFCFFF740FDFFF7DCFB94F94400AB
:10583000401C10B9002084F8440094F94500401C35
:1058400010B9002084F84500FFF7F6FB05A901A870
:1058500000F02EF8F0B92046FFF71CFAA0B104F1D1
:1058600024000599FFF7ACFC2046FFF769FA00F029
:1058700059FA0028A3D14FF080500C490860BFF3BB
:105880004F8FBFF36F8F9AE72046FFF759FA00F06A
:1058900049FA94E72046FFF753FA00F043FA20460E
:1058A000FFF7F8F900288AD00020A8E704ED00E00F
:1058B00070B505460C4655B900BF502080F31188DD
:1058C000BFF34F8FBFF36F8F00BF00BFFEE754B928
:1058D00000BF502080F31188BFF34F8FBFF36F8F4D
:1058E00000BF00BFFEE7FFF77DFB12480268686853
:1058F000131A2068401C08B9002617E00E492868D2
:105900000968884204D06868904201D801260DE0F9
:105910002068984207D92068C01A20602846FFF7FF
:105920003DFC002602E0002020600126FFF784FBFA
:10593000304670BD54000020680000202DE9FF4F64
:1059400085B0804689461746DDE912ABB800FFF7FF
:1059500037FA064656B15420FFF732FA04460CB126
:10596000266304E03046FFF785FB00E000248CB19D
:10597000002084F85100CDE900ABCDE902403A4661
:1059800049464046089BFFF7C2F82046FEF760FFF5
:10599000012501E04FF0FF35284609B0BDE8F08F42
:1059A0002DE9F04F85B00746884691469A46DDE9D5
:1059B0000EB6109C0EB1012000E0002050B900BFCF
:1059C000502080F31188BFF34F8FBFF36F8F00BF5C
:1059D00000BFFEE70CB1012000E0002050B900BF7D
:1059E000502080F31188BFF34F8FBFF36F8F00BF3C
:1059F00000BFFEE7542003900398542801D10120F2
:105A000000E0002050B900BF502080F31188BFF3A0
:105A10004F8FBFF36F8F00BF00BFFEE700BFB4B171
:105A2000AEB125462C462E63022085F85100002099
:105A300004A953464A46CDE900B1CDE9025041469A
:105A40003846FFF764F82846FEF702FF01E0002021
:105A50000490049805B0BDE8F08F0000054909687E
:105A600009B9012005E00449096809B9022000E0EC
:105A7000002070475C000020780000202DE9F041F4
:105A80004FF000084448006800287CD14348006873
:105A9000451C4248056015BB41480068006808B9CC
:105AA000012000E0002050B900BF502080F3118891
:105AB000BFF34F8FBFF36F8F00BF00BFFEE73848C3
:105AC0000768384800683649086036480760364835
:105AD0000068401C34490860FFF7F8F800BF3348FD
